:400000000080002011000000AD050000AD05000008B5044B1A6803F53F5302331A6000F0DFFA00BFFA46004010B5054C237833B9044B13B10448AFF300800123237010BD3A
:40004000F881FF1F00000000F449000008B5064B1BB106480649AFF300800648036813B1054B03B1984708BD00000000F4490000FC81FF1F0881FF1F00000000F8B50120A1
:4000800000F0ACFE00F09CF901F0D8F901F080F800F0BAFF0028FBD1022000F0BDFF43F69823984216D81BE001F072F8284600F0B3FF43F69823984207D900233B600120DC
:4000C00000F08CFE0323336002E00A2000F06AFD013C03E00A240625034F044E002CE3DC024B1868F8BD00BF5082FF1F4482FF1F08B500F0C1F900F035F900F02FF901228D
:40010000054B1A600020014600F0C6FE034800F053FE022008BD00BF5082FF1FF849000008B5044800F048FE0222034B1A60032008BD00BF004A00005082FF1F08B53B4B28
:400140001B68032B04D10020014600F0A5FE08E0012000F043FE364800F02EFE0322334B1A600120002100F097FE01F067F901F00FF800F049FF0028FBD1012001F0C6F901
:4001800078B12C4B1B68002B07DB013B294A13604FF4FA7000F006FD0FE00522254B1A600BE0022001F0B2F938B1224B186800F013F900F059F8042008BD1E4B1B68042B8D
:4001C00031D8DFE803F0030C151E27000120002100F062FE184800F0EFFD032008BD0120002100F059FE154800F0E6FD032008BD0120002100F050FE114800F0DDFD0320B6
:4002000008BD0120002100F047FE0E4800F0D4FD032008BD0120002100F03EFE0A4800F0CBFD032008BD032008BD00BF5082FF1F084A00001482FF1F1C4A0000284A0000AE
:40024000344A0000404A00004C4A000010B50424044B1C600020014600F01EFE00F030F9204610BD5082FF1F704700BF0000000008B503F01BFB02460B4603F0CBF90246A5
:400280000B4605A1D1E9000103F0A0FC03F086FD08BD00BFAFF300800000000080842E412DE9F8430446894603F024FFFFF7E0FF05464FF0010800274FF07E56404600F0D6
:4002C0004FFE284600F084FC384600F049FE284600F07EFC2046314603F08CFD0446484603F03EFE214603F0DDFE0028E6D1BDE8F88300BF10B515488221FFF7D1FF202028
:4003000000F050FC12483021FFF7CAFF402000F049FC10484121FFF7C3FF202000F042FC0D484121FFF7BCFF642000F03BFC3D2408E0204603F014FE04EBD4714910FFF758
:40034000AFFF013C3A2CF4DC10BD00BFA4D082437BD412435CCF02430000444308B5FFF7C9FF08BDF8B5012000F038FD002427460526104D0AE03846E1B200F08DFD3046C5
:4003800000F028FD286800F00DFC01340F2CF2DD012000F023FD0020032100F07DFD064800F00AFD0120022100F076FD034800F003FDF8BD0C81FF1F584A0000644A0000AA
:4003C00008B50020014600F067FD024800F0F4FC08BD00BF744A00002DE9F04105460424DFF890801F4F204E37E0012000F0F6FC642000F0D7FB042D2BD8DFE805F0030B3E
:40040000131B23000120002100F046FD174800F0D3FC1EE00120002100F03EFD144800F0CBFC16E00120002100F036FD304600F0C3FC0EE00120002100F02EFD384600F021
:40044000BBFC06E00120002100F026FD404600F0B3FC642000F0A6FB013C002CC5DCBDE8F08100BF404A0000344A00001C4A0000284A00004C4A000008B501F0A9FA01F0B9
:40048000B5FA00F0FBFC00F021FF00F075FD00F07FFE00F05FFF01F065FB01F0EBF901F093FB01F00BFC02F0EBFD0020014601F0FBFC024800F05AF808BD00BF804A0000D9
:4004C00010B50020014600F0E7FC0F4800F074FC0120002100F0E0FC0C4B1A680C4B1B68D31A0C4890FBF3F003F03AFD0A4C206003F026FE00F0EEFC084800F05DFC2068C4
:4005000000F03EF8206810BD9C4A00002C82FF1F3082FF1FC02709005882FF1FA84A000010B562B60120104B186000F057FC0E4C2368042BFCD8DFE803F00B0307130F00F7
:40054000FFF7D6FD2060F3E7FFF7EAFD2060EFE7FFF794FD2060EBE7FFF778FE2060E7E7FFF7ECFD2060E3E74482FF1F10B5044601F0BCFD0028FBD0204601F06DFD10BD4B
:4005800000B58FB003F0B6FD024601A8064903F035FE01F0ABFD0028FBD001A801F05CFD0FB05DF804FB00BFB04A0000FEE700BF08B5094B1B681844084A821A802A02DCE6
:4005C000054A106005E003F0DBFD0C2303604FF0FF33184608BD00BF1081FF1FB883FF1F80B5104F104E002415E031687368B568224604E051F8040B43F8040B0432AA42F3
:40060000F8D1F168224602E043F8044B04328A42FAD11036013F002FE7D103F0B7FDFFF77FFFFEE701000000185E000010B5134A134B1A6008331A6842F400721A60002317
:400640001048114C114908E0032B02D854F8232000E0024641F8232001332F2BF4D90C4B1A780C4B1A70094A0B4B1A6000F016F900F0CAF90022094B1A6010BD0004FA058E
:400680000CED00E0AD050000000000000080FF1FBC7600400481FF1F08ED00E00081FF1FFEE700BFF0B400231F4611E050F82760F2B226F0FF0608E001EB430511F81340C1
:4006C0006D78A5550133013AD2B2002AF4D10137242FEBD9F0BC7047164B1B78DBB203F00701154A11701B09013213700222134B1A70102220331A70092103F2FF6319702C
:4007000000210433197003F5C8731A7020230C490B7088310A700B4A1370402103321170103213700122084B1A704422A3F2E5231A707047CF0100496E5800404D510040E0
:40074000085A0040C05A00405B5B004008B50A46002103F04AFD08BDF8B50022384B1A80582202331A70092202331A801B2202331A7041F26F7202331A80182202331A7063
:40078000062203F276231A7043F21332EE3B1A80023B05221A701B7843F2C824294D4FF4F07603E0304600F01BF9013C1CB12B7813F0800FF6D114B90120FFF771FF4022E2
:4007C0004FF040231A70702203F500731A704FF4E16222331A8041F25122023B1A8000251924194F4FF4F0760AE03B7803F0010343EA450505F00305304600F0F1F8013C4D
:400800000CB1032DF1D114B90320FFF749FF0F4A4FF4807313800723137000230C490B704820023108701370053213700222094B1A7003F2A1331A7842F007021A70F8BDF2
:4008400080400040104200402542004004400040064000400140004008B503F0BDFC08BD092808D8044A52F82030104490F828101A780A431A707047C84A0000092809D835
:40088000054A52F82030104490F828101A7822EA01021A70704700BFC84A000038B572B6384B1A7842F004021A700024364D09E004EB44035B002B4418689988FFF746FF30
:4008C0000134E4B2072CF3D94FF090402F49FFF7E9FE4FF440722E4B1A8003222A3B1A8040F2032204331A802A480421FFF72EFF29480421FFF72AFF284B1A7842F00202CC
:400900001A7010331A7842F002021A70244C237843F040032370234B1A7842F010021A70214822490A22FFF797FF214821490822FFF792FF204821490822FFF78DFF2048C0
:4009400020490822FFF788FF1F4820490822FFF783FF84221E4B1A70A3F54143B93B1A7842F008021A701B4D01232B70FFF7F4FE81232B70FFF7B0FE174821460E22FFF716
:400980006BFF38BDE8460040FC4A00009400004872580040007600400876004003500140A0430040C2430040F05100402C0600482251004038060048425100404006004839
:4009C00052510040480600486251004050060048DB04014000480040B0430040000000000230800800F0058000BF013800467FF4FCAF7047EFF3108072B6704780F3108874
:400A0000704700BFAFF300800B4A7F2313708021517007E0DA0002F1804202F5F042013BDBB21370002BF5D1DB0003F1804303F5F04300221A7070471481FF1F172815D867
:400A400031B102010A4BD15C41F02001D15405E00201074BD15C01F0DF01D1540001044BC25C42F00102C25400207047012070471070004017280BD80001064BC25C02F08F
:400A8000F10201F0070142EA4101C15400207047012070471070004041F6FF73994201D14FF4005141F6FF739A4201D14FF40052172808D8C00000F1804000F5EC408180D0
:400AC000C280002070470120704700BF172805D8034B03EB0010417200207047012070471070004010B417281AD8C40004F1804404F5EC44D201D2B201F07F011143217074
:400B00009DF804201201D2B203F00F03134363709DF8083003F00F03A3700020E07000E001205DF8044B704710B5FFF763FF0A4B5B78182B0BD9084A1478013B5370E3005A
:400B400003F1804303F5F0431B78137000E0FF24FFF754FF204610BD1481FF1F10F0800F0CD111F4704F0BD1C00000F1804000F5F04001808270C370002070470120704754
:400B80000120704710F0800F08D1C00000F1804000F5F0408180C280002070470120704701BE704738B50446084D04E02868FFF717FFA4F50044B4F5004FF7D8034B586839
:400BC00000FB04F0FFF70CFF38BD00BF1C81FF1F08B5034B1B7A03FB00F0FFF701FF08BD1C81FF1F70B505460E46074B1C681F2802D90020FFF7D4FF05F01F05103554F843
:400C0000250044F8256070BD08ED00E038B505460C46072902D90020FFF7C2FF1F2D02D90020FFF7BDFF05F01F0000F1604000F564406401E4B2047038BD00BF10B50B4CEA
:400C4000237803F09F032370237803F0F00323702378184340F0100323700120FFF7B8FF237803F0EF03237010BD00BF2051004038B505460E4C237843F020032370237802
:400C800003F0BF0323700020FFF7A2FF237803F0F003237023781D4345F0100525700120FFF796FF237803F0EF03237038BD00BF205100402DE9F041364B1A7802F0800255
:400CC000D2B21A70344A117801F0F00141F00F0111700132117801F0F00111700132117801F0F00111701A7802F0DF021A701A7842F040021A704FF4CA7500271C46DFF89C
:400D00009C803846FFF764FF237843F0100323700120FFF75DFF98F80060F6B2237803F0EF0323703846FFF753FF06F00806F6B2237843F0100323700120FFF749FF23784E
:400D400003F0EF03237016B90A20FFF741FF013D0EB1002DD5D10F4B1A7802F0BF021A701A7802F08002D2B21A7002331A7802F0F0021A7001331A7802F0F00242F00F029D
:400D80001A7001331A7802F0F00242F00F021A70BDE8F08120510040225100402151004010B50446FFF786FF2009FFF761FF04F00F00FFF75DFF10BD38B505460078012406
:400DC00004E0FFF7EDFF285D0134E4B20028F8D138BD00BF08B5FFF7E3FF08BD10B50446FFF768FF2009FFF729FF04F00F00FFF725FF10BD08B52820FFF7D4FE0320FFF75B
:400E00001DFF0520FFF7CEFE0320FFF717FF0F20FFF7C8FE0320FFF711FF0120FFF7C2FE0220FFF70BFF0520FFF7BCFE0620FFF7D5FF0E20FFF7D2FF2C20FFF7CFFF082081
:400E4000FFF7CCFF0120FFF7C9FF0C20FFF7C6FF0320FFF7C3FF0520FFF7A4FE014800F069F808BD2C4B000008B50C20FFF7B6FF0122014B1A7008BD1882FF1F08B5054B66
:400E80005B7823B9FFF7B6FF0122024B5A70FFF7EBFF08BD1882FF1F08B5032819D8DFE800F002070D1381F08000FFF797FF08BDA1F14000C0B2FFF791FF08BDA1F16C00B9
:400EC000C0B2FFF78BFF08BDA1F12C00C0B2FFF785FF08BD10B584B000238DF80E300922134C0FE0A4FB0013DB08194603EB83035B00C31A303304A8104400F80C3C0846E3
:400F0000013AD2B20928EDD8094BA3FB0013DB0803EB83035B00C31A303304A9114401F80C3C01A81044FFF747FF04B010BD00BFCDCCCCCC38B50546FFF7BCFE4020FFF7DA
:400F40004DFF002404E0285DFFF72AFF0134E4B23F2CF8D9FFF7AEFE8020FFF73FFF38BD044B1A7802F0BF02800100F0400002431A7070476051004010B5FFF73BFD04460E
:400F8000134B1A7842F020021A7000F0F5FB00F017FB00F06FFB0F4B1A7842F010021A70103B1A7842F010021A7003F5A65305331A7842F001021A702046FFF71FFD0222AC
:400FC000054B1A60054B1A7842F080021A7010BD95640040BB43004000E100E07764004010B4012407490130C0B2072807D0C30800F0070204FA02F2CB5C1A42F3D05DF8B4
:40100000044B70472C81FF1F024B187800F00100704700BF7482FF1F014B33F8100070475C82FF1F10B50B4B1A5C1918097A03EB80031B6909241C700F2A00D10722054BD7
:4010400003EB8202D36A1A780A431A70FFF708FC10BD00BF6C4B000070B504460B4B1D5C03441E7AFFF70AFC0F2D00D10725074B03EB8505EA6A117821EA0606167003EB97
:401080008404236908221A7070BD00BF6C4B000010B5002404E02046FFF7DEFF0134E4B2062CF8D910BD00BF10B50E4B197801F0FC011970653B197809020B4B23F8101072
:4010C0000A4C24782143C94323F81010FFF7C4FF002000F0EBFA064B1A7842F001021A7010BD00BF776400405C82FF1F0264004070580040024B1870400810331870704713
:401100002464004070B50446084B034493F84C60074D2B18187900F0C9FA35442A7B054B1A70054B185DFFF7E5FF70BD6C4B00002C81FF1F556400406C82FF1F38B5054649
:40114000FFF7E0FF084C237843F001032370074B1A7802F0FE021A702846FFF763FF237843F00203237038BD776400407058004008B5054B00221A70044A107081221A7089
:40118000FFF7DCFF08BD00BF7482FF1F7382FF1F10B500220A4B1A700A4CFF2323702078FFF71EFF20702378DBB2062B07D8044B1A7842F001021A702078FFF7BFFF10BDB6
:4011C0007482FF1F7382FF1F012805D1054B1A7802F0EF021A707047024B1A7842F010021A7070477764004038B5FFF751FF0220FFF7EAFFFFF7FEFB2E4B1A7842F00302DF
:401200001A7001331A7842F003021A70FFF7F6FB4FF43442284B1A804FF6FF7520331D8007243F331C70FFF7E5FB244B1A7842F003021A70033B1A7842F003021A70FFF7FF
:40124000DDFBFF231E4A157020321370403A13701D32137030321370103A1370022203F1E02381331A6001201649FFF7BBFC01202146FFF7CBFC00F07BFA2046FFF7F0FACB
:401280000820FFF7EDFA0920FFF7EAFA0E4B1A7842F004021A7000F0CFF900F027FA002000F03AFA042000F047FA002000F0FEF938BD00BF9664004026640040956400401F
:4012C00025640040391500007764004008B5084B1B7823B9FFF788FF0122054B1A70FFF74BFE00F05DF90122024BDA7308BD00BF1A82FF1F2C81FF1F094B1B5C094A32F830
:401300001010094A22F81010002208490A5408490A5423B15A1E0749C95C074B99547047B84B00005C82FF1F9082FF1F8082FF1F8882FF1F3C81FF1F1C82FF1F10B50446AC
:40134000FFF716FFFFF760FE0028FBD12046FFF7D3FF10BD10B5002404E02046FFF7EEFF0134E4B2062CF8D910BD00BF2DE9F04104462B4B1B5C2B4A13441F792A4B33F82D
:40138000106000F009F9294B33F81430B34204D8F51AADB24FF0010803E09D1BADB24FF00008B8F1000F10D1142D0ED9204B1B5D042B06D92046FFF79FFF00221C4B1A557C
:4013C00019E001331A4A135515E0AF4204D2132D11D8B8F1000F0ED1164A115D41EA03210E44F31AC3F30F20104921F81400135500220F4B1A55AF420DD2B8F1000F0AD0DC
:40140000FF2D04D9FF220C4B1A55BDE8F0810A4B1D55BDE8F0810022074B1A55BDE8F081B84B00003C81FF1F5C82FF1F9082FF1F7882FF1F8082FF1F8882FF1F70B500241D
:401440000126094D0CE0E30804F0070206FA02F2EB5C1A4202D02046FFF788FF0134E4B2062CF0D970BD00BF2C81FF1FF0B4C10800F0070301229A40D2B21F4B1B5C1F4C1E
:40148000E5182E7A2D7BE75C23B901241C4B9C70022301E0013BDBB21A4C645C14420DD0DFF864C01CF80000751BA8421BDA24EA0204144844541248C75414E0DFF848C032
:4014C0001CF800003544A8420BDD18460C4DEB5C012B02D814430B4D6C54013B084C235401E00748C754074B5B5C134201D0012000E00020F0BC7047B84B00003C81FF1F37
:401500001C82FF1FA082FF1F8882FF1FF8B5094B1C5C184405792544EDB2002601272046FFF7A4FF00B13E460134E4B2AC42F6D33046F8BDC04B000010B5114B1878FFF74B
:40154000B3FD104B1B7813F0800F05D00D4B1A7802F0FE021A7010BD094C2078FFF740FD20702378DBB2062B03D82078FFF7E6FD10BD044B1A7802F0FE021A7010BD00BF28
:401580007382FF1F7482FF1F08B5FFF7F1FD08BD08B5FFF739FD08BD08B501F027FF08BD08B501F0D9FF08BD08B50220FFF70CFE08BD00BF08B50120FFF706FE08BD00BF4D
:4015C000054B1A7842F004021A7010331A7842F004021A70704700BFA74300400F4B1A7802F0FC0200F003010A431A7001280AD10B4B1A78D2B20B4B1A700B4B1A78D2B2AD
:401600000A4B1A7070470A4B1A78D2B2054B1A70084B1A78D2B2054B1A7070474258004012010049344600401601004935460040B1010049B901004908B50020FFF7CEFF2C
:401640000B4B1A7842F020021A701A7802F0FB021A701A7842F008021A7003F295231A7802F0E7021A701A7842F010021A7008BD42580040054B1A7842F001021A701033BA
:401680001A7842F001021A70704700BFA8430040054B1A7802F0FD021A701A7800F0020002431A70704700BF20580040014B1870704700BF805B0040094B1B7803F00C030C
:4016C0005B08084A127812F0040F00D0013303F1924393F82021D2B2034B1A70704700BF20580040215800400846004008B51422084B1A700133002018701A7842F00402B6
:401700001A701A7842F002021A70FFF7C1FFFFF7D3FF08BD2058004008B5064B1A7802F0FB021A701A7800F0040002431A70FFF7C3FF08BD2158004008B5064B1A7802F09C
:40174000F3021A701A7800F00C0002431A70FFF7B3FF08BD2058004010B5002404E02046FFF78CF80134E4B2092CF8D910BD00BF08B5FFF7F1FF08BD054B1A7842F00102DF
:401780001A7010331A7842F001021A70704700BFA2430040084B1A7842F001021A7010331A7842F001021A7003F5A5531E331A7842F080021A707047A9430040044B1A7863
:4017C00002F0FC0200F0030002431A70704700BF0158004010B487B00446194A03AB1068516803C3117A19706B4652F80C0F516803C3127A1A70082C1ED8124B1A7802F011
:401800008002D2B21A70197806AA144414F80C0C14F8182C920002F00C0202430A431A70013B1A7802F0F3021A70197814F8182C0A4342F00C021A7007B05DF8044B704714
:40184000F84B00000258004008B50C22084B1A7001331A7842F020021A70802201331A700620FFF7B7FF0320FFF7A8FF08BD00BF0058004008B5054B1B7823B9FFF7E4FFBC
:401880000122024B1A70FFF785FF08BD2482FF1F2DE9F0471E4B1D7805F00105064640B96DB1A3F5AB53063B1A7842F010021A7005E025B9174B1A7842F010021A700EB9FF
:4018C0000F2700E007270024DFF848A0DFF84890DFF83C8018E036B999F800300133DBB289F8003005E09AF800300133DBB28AF800300A20FFF76CF998F8003003F001030F
:40190000AB4203D10134E4B2BC42E4D3BDE8F087965B00403146004030460040054B1A7842F001021A7010331A7842F001021A70704700BFA74300400F4B1A7802F0FC02FB
:4019400000F003010A431A7001280AD10B4B1A78D2B20B4B1A700B4B1A78D2B20A4B1A7070470A4B1A78D2B2054B1A70084B1A78D2B2054B1A7070474058004010010049D9
:40198000304600401401004931460040AD010049B501004908B50120FFF7CEFF0B4B1A7842F020021A701A7802F0FB021A701A7842F008021A7003F287231A7802F0E70290
:4019C0001A701A7842F010021A7008BD4058004008B5054B1B7823B9FFF7DCFF0122024B1A70FFF79BFF08BD2582FF1FF8B51E480678F6B21D490D78EDB21D4B1C78E4B2AA
:401A0000002202700A7004F0F6011970A3F283231F78FFB2197841F03001197015490A7001310A701B7803F00303012B03D11046FFF72EFF05E00120FFF72AFF0020FFF761
:401A400027FF0D4B1F7003F520731E7002331D7001331C70A3F5A453123B1878013B1B7843EA0020F8BD00BFC05A0040C25A0040C35A0040304600404058004010B501F06B
:401A800057FB074C20780121FEF7D8FF60780121FEF7D4FF002001F067FB01F0FFFA10BD2682FF1F70B505460E46012001462A0C4FF4804301F000FB094C2070A2781046A0
:401AC00031460123FFF74AF8A078A9B245F68232FFF758F82078A178FEF7F8FF70BD00BF2682FF1F70B505460E46012001462A0C4FF4804301F0FEFA094C6070E2781046F6
:401B000031460123FFF72AF8E078A9B245F68232FFF738F86078E178FEF7D8FF70BD00BF2682FF1F10B501F045FB022001F00EFB002001F02FFBFEF7F7FF084CA070FEF7EA
:401B4000F3FFE070064C20464FF47A61FFF7AAFF04F57A606421FFF7C5FF10BD2682FF1F104C000008B5054B1B7923B9FFF7DAFF0122024B1A71FFF781FF08BD2682FF1F65
:401B800010B5034C6368236000F046F8606010BD2C82FF1F014B1B681864704708ED00E04001C0B2014B1870704700BF00E400E00122014B1A60704700E100E00122014BD4
:401BC0001A60704780E100E008B5FFF7F7FF0448FFF7E0FF0720FFF7E3FFFFF7E9FF08BD811B0000024B1A7842F080021A70704774650040014B1870704700BF8765004008
:401C0000014B1878704700BF67650040014B1860704700BF04650040024B1B78024B1868704700BF0465004044650040014B1868704700BF44650040014B1860704700BF49
:401C400024650040014B1860704700BF3465004008B501E0FFF7EAFFFFF7D2FF10F0400FF8D108BD08B5134B1A7802F0F80242F001021A701A7802F0FC021A70FFF7E8FF26
:401C80004FF0FF30FFF7D8FF4FF0FF30FFF7BEFF0020FFF7AFFFFFF7B3FF8020FFF7D2FFFEF7A8FE044B1A7842F010021A70FEF7A5FE08BD746500409765004008B5054BEC
:401CC0001B7823B9FFF7CEFF0122024B1A70FFF789FF08BD3482FF1FF8B5FEF78BFE07463C4B1A7842F001021A7010331A7842F001021A70012603F5E75308331E70022574
:401D0000943B1D7007331A7802F07F021A700020FEF75EFF304C237803F0F90323702F4B1A7802F0DF021A702378334323703046FEF74EFF2820FEF74BFF294B1A7802F02F
:401D40007F021A701A7802F0BF021A7023782B4323702846FEF73CFF237843F0040323700023204A1370013213703846FEF746FE17201D49FEF736FF17200721FEF746FF0A
:401D800015201A49FEF72EFF15200721FEF73EFF18201749FEF726FF18200721FEF736FF28461449FEF71EFF28460721FEF72EFF03201149FEF716FF03200721FEF726FF1D
:401DC00004200E49FEF70EFF04200721FEF71EFFF8BD00BFA54300409443004012600040F8510040846000402526000021260000FD23000071250000A9250000E1250000DA
:401E000008B51D4B4FF400021A604FF080721A6004221A6008221A6010221A600022174B1A7011B1012904D007E00222144B1A7006E00322124B1A7002E00322104B1A7083
:401E4000104B18700023104A1370104A1370104A1370104A1370104A1370104A137003220F4B1A708022203B1A700120FEF7B8FD04220C4B1A7008BD00E100E0FA82FF1FAC
:401E800009600040F582FF1F1383FF1F0883FF1F1083FF1F1283FF1F1583FF1FF482FF1F286000401260004038B505460C46064B1B7823B9FFF710FF0122034B1A702846A7
:401EC0002146FFF79DFF38BD3582FF1F00230A4A13700A4A13700A4A13700A4A13700A4A13700A4A13700A4A13700322094B1A708022203B1A707047FA82FF1F1383FF1F8C
:401F00000883FF1F1083FF1F1283FF1F1583FF1FF482FF1F2860004070B4461EF6B2072E38D83601F6B21C4D354400EB40039B001A4C2344DB889BB2C3F500739A4207D91F
:401F400000EB40039B002344DA88C2F5007292B200EB40039B00114C2344DC7844EA12240F4BF454D4B20133F45429B907E0CC5C2C7001339BB200E000239342F7D3074A78
:401F800041000B189B00134400245C705A79D2B2044BF25470BC7047886000401883FF1F0C6000400E6000400246002001E0013080B2135C002BFAD1704700BF08B51F4B23
:401FC0001B7813F0800F0CD01D4B1B78DBB2212B2ED11C4B07221A801B4A5A6000F078FA08BD164B1B7813F0800F23D1144B1B78DBB2202B02D0222B0DD01DE0114B0722DB
:402000001A80114A5A60114B1A7842F001021A7000F088FA08BD0E4B1A78D2B20D4B1A800A4B1A7842F002021A7000F015F908BD002008BD002008BD002008BD00600040F3
:4020400001600040FC82FF1F8481FF1FF082FF1F02600040EE82FF1F2DE9F8438046FFF7A3FF064600271F4C1F4D237803EB43039B002B441B899BB2B34209D2237803EB24
:4020800043039B002B44B3F808901FFA89F900E0B146207808EB07014A46FFF73DFFC9EB0606B6B246B9237803EB43039B002B441B899BB2994510D14F44BFB2237803EB89
:4020C00043039B002B445B7813F0FF0FF6D026B9207800210A46FFF71FFF002EC5D1BDE8F88300BFED82FF1F1883FF1F044B1B7803EB43039B00034A13445878704700BF66
:40210000ED82FF1F1883FF1F1D4B19781D4B1A880A4492B21A8000221B4B10E002F1804101F5C04158680078C0B208705968013159600132D2B21988013989B21980198832
:4021400089B209B1072AE9D90D4B1B78DBB2082B00D05AB10D4B197881F0800119700F210B4B197002210B4B197004E0022308490B7008490B70024B1A70074B1A70704771
:40218000F482FF1FF682FF1FFC82FF1F8683FF1F1183FF1FFA82FF1F1483FF1F0222074B1A708022064B1A700F22064B1A700023054A1370054A137001207047FA82FF1F6F
:4021C0008683FF1F1183FF1FF482FF1F1483FF1F08B5FFF799FF08BD10B4194B197801F00F010239C9B2174B1A880A4492B21A800020154B12E05C6800F1804202F5C0422B
:402200001278D2B222705A6801325A600130C0B20139C9B21A88013A92B21A801A8892B20AB10029E7D1094B1970094B1A7882F080021A700B22074B1A705DF8044B704715
:4022400029600040F682FF1FFC82FF1F1483FF1F8683FF1F1183FF1F0623064A1370064A13708022054B1A700022054B1A700120704700BFFA82FF1F1183FF1F8683FF1F84
:402280001483FF1F064B9B6843B1054B9A6810709A6804490988518000229A60704700BFFC82FF1FF682FF1F08B5134B1A78D2B21A701B78DBB213F0800F02D00F4A1370BF
:4022C00008BD0220FFF7DEFF0D4B1B7803F06003202B05D0402B06D043B900F0E7FC06E000F07CFF03E000F0ABFE00E0002010B90322024B1A7008BD286000401183FF1FE2
:402300000060004008B5084B1978084B1A880A4492B21A800022064B1A700120FFF7B2FF0322044B1A7008BDF482FF1FF682FF1FFA82FF1F1183FF1F08B50B4B1B78DBB20A
:40234000042B06D0062B07D0022B0BD1FFF7DAFF08BDFFF741FF08BD0320FFF793FF0322024B1A7008BD00BFFA82FF1F1183FF1F08B50022044B1A700120FFF783FF0322CB
:40238000024B1A7008BD00BFFA82FF1F1183FF1F08B50B4B1B7813F0FF0F07D0084B197841F08001074A117000221A700022064B1A700120FFF766FF0322044B1A7008BD98
:4023C0001283FF1F08600040FA82FF1F1183FF1F08B5094B1B78DBB2042B06D0062B07D0022B07D1FFF7F4FE08BDFFF7C1FF08BDFFF7CEFF08BD00BFFA82FF1F08B5264BBC
:402400001B78DBB213F0100F45D013F0800F0CD003F00F03012B16D1FFF746FF1F4B1B7813F0800F11D1012312E013F0400F03D0FFF7CEFF01230BE013F0200F07D0FFF707
:402440007BFF012304E0002302E0002300E000230BB3114B1B7813F0800F1CD1104B1B78104A12781343104A13701278D2B29A4211D10A4B08491A78D2B2087810F0800FE7
:4024800005D11A78D2B20A700A7802F00F021878C0B28242EFD108BD286000401183FF1F8683FF1F1483FF1F296000400022064B1A80064B9B682BB1044A916800230B70A5
:4024C00092685380704700BFF682FF1FFC82FF1F08B5104B1B889BB213B9FFF75FFE16E002220D4B1A7000220C4B1A70FFF7DEFF0B4B1A78013B1B7843EA0223054A12887C
:4025000092B29A4201D9034A1380FFF7FDFD012008BD00BFFC82FF1FFA82FF1F8683FF1F0760004008B504220C4B1A7080220C4B1A70FFF7BBFF0B4B1A78013B1B7843EA4D
:402540000223094A128892B29A4201D9064A13800B22064B1A70012008BD00BFFA82FF1F8683FF1F07600040FC82FF1F1183FF1F0A4B1B780A4B1B7B03F00303012B04D03D
:40258000074BDA7B82F08002DA730122044B5A73044B1A7802F0FE021A7070470E6000401883FF1F0B6000400A4B1B780A4B1B7E03F00303012B04D0074BDA7E82F0800261
:4025C000DA760122044B5A76044B1A7802F0FD021A7070471E6000401883FF1F0B6000400C4B1B780C4B93F8243003F00303012B06D0094B93F8272082F0800283F827201D
:402600000122054B83F82520044B1A7802F0FB021A7070472E6000401883FF1F0B600040704700BF08B5FFF751FC08BD30B484B00446144B0FCB04AD05E90F00F4B12223B6
:402640002370032363700022022315E002F1924191F80011C9B20132D2B204AD05EB111010F8100CE054981C01F00F01294411F8101C21540433DBB2212BE7D904B030BCAA
:40268000704700BF145C00002DE9F00F002001224FF00C0C2F4DDFF8C8B0DFF8C8A0DFF8C8904DE0034600F1804101F5C14181F800C0144602EB420189002944497911F0B0
:4026C000FF0F0ED002EB420189002944097911F0800F02D000F80BC006E0082100F80B1002E0802100F80B1066003119890029440F89C7F3072703F80A700F89FFB203F88A
:402700000970CF88FFB2DFF8648003F80870CF88C7F3072708F1010803F80870C988C9B20D4FD955311989002944C988C1F30721A8F1020803F808100132D2B21030C0B254
:4027400010F0800FAED0FF22044B1A70BDE8F00F704700BF1883FF1F846000400A6000400E6000400C6000400D60004086600040084B1A78084B03EBC2035B6803F10802D8
:402780001B7A834203D902EBC000406870470020704700BFF582FF1F645C00002DE9F84F5D4B1B7813F0FF0F00F0B3805A4B18780138C0B2FFF7DCFF047AC3680022574904
:4027C000574FDFF868A1A1E018780E5C554D2D5CF6B2AE4200F097800E5CF6B25D78AE4240F091803D78EDB2A84240F08C80987800F07F056E1E3601F6B293F803C00CF043
:40280000030C10F0800F19D005EB45008000DFF8208140444FF0010880F80180C44502D14FF0070C01E04FF00D0C05EB45008000DFF8FC80404480F805C019E005EB4500C1
:402840008000DFF8EC8040444FF0000880F80180BCF1010F02D14FF0050C01E04FF0090C05EB45008000DFF8C880404480F805C0012006F80A00B3F804B0DFF8B48005FA95
:4028800000F909EB050C4FEA8C0C08EB0C00A0F808B093F802B080F804B093F803B008F80CB04FF0000C80F803C0B0F808C0CCF3072CDFF880B006F80BC0B0F808C05FFA16
:4028C0008CFC0BF1010B06F80BC0B0F806C05FFA8CFC0BF1790B06F80BC0B0F806C0CCF3072C0BF1010B06F80BC0C088C0B2DFF848C006F80C004D44AD004544E888C0F329
:402900000720094D705508330132D2B2A242FFF45BAFBDE8F88F00BF1383FF1F8483FF1F04600040F882FF1F856000400E6000401883FF1F0C60004084600040034B1A7846
:40294000034B03EBC2035868704700BFF582FF1F645C000008B5074B18780138C0B2FFF707FF28B14268127900EBC203586908BD002008BD1383FF1F2DE9F84F00226D4D6F
:4029800013460EE05600B418A40029192B558B704B70CB704B710B81214629448B720132D2B2082AEED928B90AE0C254CA540133DBB203E0002360481A466049012BF4D91E
:4029C0005F4B1B7813F0FF0F00F0B1805C4B18780138C0B2FFF7CCFE4368DB7913F0400F05D0584B1A7842F001021A7004E0554B1A7802F0FE021A70047A01214FF0000833
:402A00004C4EDFF834C14FF009098A4665E0C368424601EB4107BF0001EB410E06EB8E0E57E09D7805F07F05A9424FD1F519B5F808B01FFA8BFB9D88AB4503D206EB070B8D
:402A4000ABF808501D781CF805B05FFA8BFB5D78AB453BD1DD7805F0030593F902B0BBF1000F17DA8EF801A0012D02D14FF0070B01E04FF00D0B8EF805B093F806B0BBF138
:402A80000A0F02D0BBF1020F1AD1032D18D02E4D297015E08EF80180012D02D14FF0050B00E0CB468EF805B093F806B0BBF10A0F02D0BBF1020F03D1032D01D0234D29706C
:402AC0009D788EF80450DD788EF8005008330132D2B2A242A5D30131C9B2082997D9C1680022144D0BE08B7803F07F0311F8080B03EB43039B002B4498720132D2B2A24212
:402B0000F1D3FFF727FF124B186000200123094C09E05A00D11889002144C8800A89104480B20133DBB2082BF3D9FFF7ADFDBDE8F88F00BF1883FF1F8483FF1FF882FF1F0B
:402B40001383FF1F1583FF1FED82FF1FEC82FF1F0C83FF1F38B5144B1B7803F07F035A1ED2B21101C9B2072A1CD810485C00E21892000244957845F0010595700025D570E6
:402B8000557845F002055570137913F0800F03D08D22074BCA5402E08922054BCA54FFF75BFB38BD002038BD046000401883FF1F0E60004010B5244B1B7803F07F035A1E27
:402BC000D2B21101C9B2072A3BD85A001A4492001E480244907800F0FE0090700020D0701B480C5C04F07F040C54507800F0FD005070127912F0800F10D003EB43039B0052
:402C0000124A13445B78DBB2012B03D10C22114BCA5413E00D220F4BCA540FE003EB43039B000A4A13445B78DBB2012B03D10822084BCA5402E00922064BCA54FFF70CFB62
:402C400010BD002010BD00BF046000401883FF1F0C6000400E60004010B50F4B1C78E4B20E4B18780138C0B2FFF782FD43681B799C420CD2012C0CD8094B195DC9B2094A2E
:402C80001155094A1278D2B21A55012010BD002010BD002010BD00BF046000401383FF1F8483FF1FF882FF1F0260004010B50022994B1A80994B1B7813F0800F00F0B98009
:402CC000974B1B78DBB20A2B00F29181DFE813F073008F018F018F018F018F010B008F019E008F01A6008F4B1B78DBB2012B09D1FFF724FE4268884B5A6012221A80FFF70A
:402D0000E7FB10BD874B1B78DBB2022B16D103F1804303F5C0431878FFF72AFD002800F0688142687C4B5A605A68D1785A68927842EA01221A80FFF7CBFB10BD794B1B78B3
:402D4000DBB2032B05D033E019780B440132D2B202E00022744B75480178C9B2914203D9197811F0FF0FEFD1704A1278D2B2EE2A00D16F4B6D4A127812F0FF0F0BD06B4A4A
:402D80001178C9B26B4A127C914204D16A4C2046FFF74CFC23461A7812F0FF0F00F02B811978C9B25C4A11805360FFF791FB10BD00F014FA10BD594B1B7813F0030317D0EC
:402DC000022B40F01A81544A13805C4B1B7803F07F0303EB43039B0059490B449978C9B2584B1970002159705360FFF771FB10BD494A02231380544B1978C9B2514B19709C
:402E0000002159705360FFF763FB10BD424B01221A804E4A5A60FFF75BFB10BD3E4B01221A80464A12784A490A445A60FFF750FB10BD3B4B1B78013B0A2B00F2E080DFE873
:402E400013F04700DE00A300DE000B00DE00DE00DE001300DE003000344B1A78D2B23D4B1A70FFF7F9F910BD304B1B7803F0FF041BB1601EC0B2FFF77BFC04B110B9002CB0
:402E800040F0BF80314B1B78DBB29C4206D02F4B1C700120304B1870FFF76EFDFFF7DCF910BDFFF7D9FE002800F0AD80234B1C78E4B22A4B1C700122274B1A70FFF76EFC06
:402EC000234B1A5DD2B2264B1A55FFF7C5F910BD124B1B7803F00303012B43D073B1022B40F0938003F1804303F5C0431B7813F0FF0F40F08C80FFF75DFE10BD0B4B1B78B3
:402F0000DBB2012B40F085800F4B1A7802F0FD021A70FFF7A1F910BDFC82FF1F006000400160004003600040C45C000002600040505C0000A85D00008C83FF1F046000401B
:402F40001883FF1F3882FF1F1583FF1F1383FF1F8483FF1F1283FF1F1083FF1F0883FF1FF882FF1F314B1B78DBB2012B53D82F4B1B78DBB22E4AD15C2E48007821EA000160
:402F8000D154FFF769F910BD2B4B1B7803F00303012B1AD063B1022B3FD103F1804303F5C0431B7813F0FF0F39D1FFF7D3FD10BD204B1B78DBB2012B33D1204B1A7842F081
:402FC00002021A70FFF748F910BD184B1B78DBB2012B28D8154B1B78DBB2154AD15C1548007821EA0001D154FFF736F910BD002010BD002010BD002010BD002010BD0020B8
:4030000010BD002010BD002010BD002010BD002010BD002010BD002010BD002010BD002010BD002010BD002010BD00BF046000408883FF1F02600040006000401583FF1FFD
:4030400008B50B4B1B7813F0800F0CD0094B1B78DBB2012B09D1084B084A5A6012781A80FFF736FA08BD002008BD002008BD00BF0060004001600040FC82FF1F285C00006A
:40308000054B1A7842F002021A7010331A7842F002021A70704700BFA2430040054B1A7842F004021A7010331A7842F004021A70704700BFA2430040F0B583B086460F466F
:4030C00016461D460A4C0023237000930193184671463A46FDF706FD207831462A46FDF7DBFC20780221FDF7C5FC207803B0F0BD8C81FF1FF0B583B086460F4616461D46BD
:403100000A4C0120207000230093019371463A46FDF7E8FC207831462A46FDF7BDFC20780221FDF7A7FC207803B0F0BD8D81FF1F054B1A7842F004021A7010331A7842F0E2
:4031400004021A70704700BFA8430040054B1A7802F0FD021A701A7800F0020002431A70704700BF28580040014B1870704700BF825B0040054B1B78C3F3810303F19243EB
:4031800093F82E21D2B2024B1A707047285800400A46004008B5064B1A7802F0F3021A701A7800F00C0002431A70FFF7E3FF08BD2858004008B50020074B18700133187095
:4031C00003F26E231A7842F008021A70FFF7E2FF0220FFF7BBFF08BD2858004008B5124B1B7803F00303012B02D0022B04D00FE00E4B1B78DBB20CE00C4B1B7803F07F036B
:4032000003EB43039B000A4A13449B78DBB200E00023084A1268D35C022B02D1FEF7CEFE08BD002008BD00BF00600040046000402083FF1F0C83FF1FF7B50193194B041CD6
:403240001B7883422CD9184B184F1B6808261954396800230B54164B16491B6809681B5C8025CA54420000923968201C0B191A782A431A70FEF788F9FEF78AF90028FBD1B8
:403280000D4B009A1B6801999B5A8B4204D23A6813191A78AA431A70013E6D08002EE3D1F7BDC0465181FF1F6081FF1F6481FF1F7481FF1F7881FF1F5C81FF1F70B5194D9E
:4032C000FF232B54184B0F221B68041C1E5C174BFFF7B2FF164A174B10881B5D311C584300F07EF980B2802804D92B5D40085B082B55F8E7104BC0B21855104B1049800893
:4033000018556200002353520E490F4853520F490968095DFF2444540D4843540D4909688B5270BDC082FF1F6481FF1F980D00005481FF1FF04B0000DC82FF1FE482FF1FC6
:40334000A482FF1FC882FF1FBC82FF1F7481FF1FD882FF1F5881FF1F1E4BF7B51A681E4E43001E4C9A5A9F5B195BBD1AADB20191891A6940090429D5002D27D0019D1F535E
:40338000511B89B28DB22CB2002C01DA4D42ADB21349EDB20F5C79088D4217DA114C215C8D4206DD104D00260131FF082E54C9190BE08D420AD00C4D2F5C092F02D801373F
:4033C0002F5403E000272F54013921540249CA52F7BDC0465C81FF1FA482FF1FC882FF1FDC82FF1FE482FF1FB482FF1F70B5264B051C1B681C5CFFF7AFFF244B595D244B08
:4034000048005A5DC0B2234B824204D9185D904205D91A5503E01E5D864200D9185548080918C8B29208011C904200D2111C1A4AC8B2165D864200D2115518490968085D11
:4034400017490968095D4118013989B28D421AD11449185D0D6828551348155D0668355500680E680019355D06786D08AE4200D3057009680D48095D006889080155FF21B5
:4034800019550023135570BD7481FF1FE482FF1FDC82FF1FBC82FF1FD882FF1F6C81FF1F7081FF1F6881FF1F8081FF1F7C81FF1FF7B50022224B1B7893423FD9214C224812
:4034C000267800230768B446191CDDB265450BD2FD5C954206D11D4DEE5C351C8E4200D20D1CE9B20133F0E7194B1B68995424780068019400900023019CD8B2A0421AD2C5
:40350000009CE05C904214D1124CE05C0F4D5D192F78B94206D901267F003743B0402F7080B2F3E7FF25071CAF4301D0E55400E0E0540133E0E70132D2B2BBE7F7BDC046EF
:403540005081FF1F5281FF1F7481FF1FC082FF1F7881FF1FDC82FF1F38B5FEF72BF80024194B1A781D1CA2420AD9184B01221978D923201C93400134FFF75EFEE4B2EFE731
:403580000023134A12789A420BD91249124A09681248C95C1268C908415CD1540133DBB2EFE7FEF701F800242B78A34208D90A4B201C1B68195D0134FFF780FEE4B2F3E7D8
:4035C000FFF776FF38BDC0465181FF1F5681FF1F5281FF1F6481FF1F6081FF1FD04B0000002902D0B0FBF1F0704708B14FF0FF3000F008B80029F8D00246B0FBF1F000FB9D
:4036000011217047704700BF81F0004102E000BF83F0004330B54FEA41044FEA430594EA050F08BF90EA020F1FBF54EA000C55EA020C7FEA645C7FEA655C00F0E2804FEA07
:403640005454D4EB5555B8BF6D420CDD2C4480EA020281EA030382EA000083EA010180EA020281EA0303362D88BF30BD11F0004F4FEA01314FF4801C4CEA113102D0404224
:4036800061EB410113F0004F4FEA03334CEA133302D0524263EB430394EA050F00F0A780A4F10104D5F1200E0DDB02FA0EFC22FA05F2801841F1000103FA0EF2801843FA70
:4036C00005F359410EE0A5F120050EF1200E012A03FA0EFC28BF4CF0020C43FA05F3C01851EBE37101F0004507D54FF0000EDCF1000C7EEB00006EEB0101B1F5801F1BD333
:40370000B1F5001F0CD349085FEA30004FEA3C0C04F101044FEA445212F5800F80F09A80BCF1004F08BF5FEA500C50F1000041EB045141EA050130BD5FEA4C0C404141EB1B
:40374000010111F4801FA4F10104E9D191F0000F04BF01460020B1FA81F308BF2033A3F10B03B3F120020CDA0C3208DD02F1140CC2F10C0201FA0CF021FA02F10CE002F133
:403780001402D8BFC2F1200C01FA02F120FA0CFCDCBF41EA0C019040E41AA2BF01EB0451294330BD6FEA04041F3C1CDA0C340EDC04F11404C4F1200220FA04F001FA02F313
:4037C00040EA030021FA04F345EA030130BDC4F10C04C4F1200220FA02F001FA04F340EA0300294630BD21FA04F0294630BD94F0000F83F4801306BF81F480110134013D01
:403800004EE77FEA645C18BF7FEA655C29D094EA050F08BF90EA020F05D054EA000C04BF1946104630BD91EA030F1EBF0021002030BD5FEA545C05D14000494128BF41F07F
:40384000004130BD14F580043CBF01F5801130BD01F0004545F0FE4141F470014FF0000030BD7FEA645C1ABF194610467FEA655C1CBF0B46024650EA013406BF52EA0335A5
:4038800091EA030F41F4002130BD00BF90F0000F04BF0021704730B54FF4806404F132044FF000054FF0000150E700BF90F0000F04BF0021704730B54FF4806404F132043D
:4038C00010F0004548BF40424FF000013EE700BF42004FEAE2014FEA31014FEA02701FBF12F07F4393F07F4F81F06051704792F0000F14BF93F07F4F704730B54FF460742E
:4039000001F0004521F0004120E700BF50EA010208BF704730B54FF000050AE050EA010208BF704730B511F0004502D5404261EB41014FF4806404F132045FEA915C3FF4E3
:40394000DCAE4FF003025FEADC0C18BF03325FEADC0C18BF033202EBDC02C2F1200300FA03FC20FA02F001FA03FE40EA0E0021FA02F11444C1E600BF70B54FF0FF0C4CF4AA
:40398000E06C1CEA11541DBF1CEA135594EA0C0F95EA0C0F00F0DEF82C4481EA030621EA4C5123EA4C5350EA013518BF52EA033541F4801143F4801338D0A0FB02CE4FF0D8
:4039C0000005E1FB02E506F00042E0FB03E54FF00006E1FB03569CF0000F18BF4EF0010EA4F1FF04B6F5007F64F5407404D25FEA4E0E6D4146EB060642EAC62141EA5551B2
:403A00004FEAC52040EA5E504FEACE2EB4F1FD0C88BFBCF5E06F1ED8BEF1004F08BF5FEA500E50F1000041EB045170BD06F0004646EA010140EA020081EA0301B4EB5C040D
:403A4000C2BFD4EB0C0541EA045170BD41F480114FF0000E013C00F3AB8014F1360FDEBF002001F0004170BDC4F10004203C35DA0C341BDC04F11404C4F1200500FA05F340
:403A800020FA04F001FA05F240EA020001F0004221F0004110EBD37021FA04F642EB06015EEA430E08BF20EAD37070BDC4F10C04C4F1200500FA04F320FA05F001FA04F264
:403AC00040EA020001F0004110EBD37041F100015EEA430E08BF20EAD37070BDC4F1200500FA05F24EEA020E20FA04F301FA05F243EA020321FA04F001F0004121FA04F283
:403B000020EA020000EBD3705EEA430E08BF20EAD37070BD94F0000F0FD101F00046400041EB010111F4801F08BF013CF7D041EA060195F0000F18BF704703F0004652000B
:403B400043EB030313F4801F08BF013DF7D043EA0603704794EA0C0F0CEA135518BF95EA0C0F0CD050EA410618BF52EA4306D1D181EA030101F000414FF0000070BD50EAA8
:403B8000410606BF1046194652EA430619D094EA0C0F02D150EA013613D195EA0C0F05D152EA03361CBF104619460AD181EA030101F0004141F0FE4141F470014FF00000CF
:403BC00070BD41F0FE4141F4780170BD70B54FF0FF0C4CF4E06C1CEA11541DBF1CEA135594EA0C0F95EA0C0F00F0A7F8A4EB050481EA030E52EA03354FEA013100F08880F0
:403C00004FEA03334FF0805545EA131343EA12634FEA022245EA111545EA10654FEA00260EF000419D4208BF964244F1FD0404F5407402D25B084FEA3202B61A65EB0305E9
:403C40005B084FEA32024FF480104FF4002CB6EB020E75EB030E22BFB61A754640EA0C005B084FEA3202B6EB020E75EB030E22BFB61A754640EA5C005B084FEA3202B6EB19
:403C8000020E75EB030E22BFB61A754640EA9C005B084FEA3202B6EB020E75EB030E22BFB61A754640EADC0055EA060E18D04FEA051545EA16754FEA06164FEAC30343EA24
:403CC00052734FEAC2025FEA1C1CC0D111F4801F0BD141EA00014FF000004FF0004CB6E711F4801F04BF01430020B4F1FD0C88BFBCF5E06F3FF6AFAEB5EB030C04BFB6EB78
:403D0000020C5FEA500C50F1000041EB045170BD0EF0004E4EEA113114EB5C04C2BFD4EB0C0541EA045170BD41F480114FF0000E013C90E645EA060E8DE60CEA135594EA66
:403D40000C0F08BF95EA0C0F3FF43BAF94EA0C0F0AD150EA01347FF434AF95EA0C0F7FF425AF104619462CE795EA0C0F06D152EA03353FF4FDAE1046194622E750EA4106C6
:403D800018BF52EA43067FF4C5AE50EA41047FF40DAF52EA43057FF4EBAE12E74FEA410212F5001215D211D56FF47873B3EB625212D94FEAC12343F0004343EA505311F039
:403DC000004F23FA02F018BF404270474FF00000704750EA013005D111F0004008BF6FF0004070474FF00000704700BF80F0004002E000BF81F0004142001FBF5FEA41035B
:403E000092EA030F7FEA226C7FEA236C6AD04FEA1262D2EB1363C1BFD218414048404140B8BF5B42192B88BF704710F0004F40F4000020F07F4018BF404211F0004F41F471
:403E4000000121F07F4118BF494292EA030F3FD0A2F1010241FA03FC10EB0C00C3F1200301FA03F100F0004302D5494260EB4000B0F5000F13D3B0F1807F06D340084FEA20
:403E8000310102F10102FE2A51D2B1F1004F40EBC25008BF20F0010040EA03007047490040EB000010F4000FA2F10102EDD1B0FA80FCACF1080CB2EB0C0200FA0CF0AABFE9
:403EC00000EBC25052421843BCBFD0401843704792F0000F81F4000106BF80F400000132013BB5E74FEA41037FEA226C18BF7FEA236C21D092EA030F04D092F0000F08BF00
:403F00000846704790EA010F1CBF0020704712F07F4F04D1400028BF40F00040704712F100723CBF00F50000704700F0004343F0FE4040F4000070477FEA226216BF084692
:403F40007FEA23630146420206BF5FEA412390EA010F40F4800070474FF0000304E000BF10F0004348BF40425FEA000C08BF704743F0964301464FF000001CE050EA010211
:403F800008BF70474FF000030AE000BF50EA010208BF704711F0004302D5404261EB41015FEA010C02BF84460146002043F0B64308BFA3F18053A3F50003BCFA8CF2083AFF
:403FC000A3EBC25310DB01FA02FC634400FA02FCC2F12002BCF1004F20FA02F243EB020008BF20F00100704702F1200201FA02FCC2F1200250EA4C0021FA02F243EB020055
:4040000008BF20EADC7070474FF0FF3C06E000BF4FF0010C02E000BF4FF0010C4DF804CD4FEA40024FEA41037FEA226C18BF7FEA236C11D001B052EA530C18BF90EA010FF2
:4040400058BFB2EB030088BFC81738BF6FEAE17018BF40F0010070477FEA226C02D15FEA402C05D17FEA236CE4D15FEA412CE1D05DF8040B704700BF844608466146FFE71B
:404080000FB5FFF7C9FF002848BF10F1000F0FBD4DF808EDFFF7F4FF0CBF012000205DF808FB00BF4DF808EDFFF7EAFF34BF012000205DF808FB00BF4DF808EDFFF7E0FFBA
:4040C00094BF012000205DF808FB00BF4DF808EDFFF7D2FF94BF012000205DF808FB00BF4DF808EDFFF7C8FF34BF012000205DF808FB00BF4FEA4002B2F1FE4F0FD34FF09B
:404100009E03B3EB12620DD94FEA002343F0004310F0004F23FA02F018BF404270474FF00000704712F1610F01D1420205D110F0004008BF6FF0004070474FF000007047FE
:4041400042000ED2B2F1FE4F0BD34FF09E03B3EB126209D44FEA002343F0004323FA02F070474FF00000704712F1610F01D1420202D14FF0FF3070474FF00000704700BFBC
:40418000014B1868704700BFF081FF1F70B50E4B0E4D0024ED1AAD101E46AC4204D056F8242090470134F8E701F024FE084D094B0024ED1AAD101E46AC4204D056F824206E
:4041C00090470134F8E770BD005E0000005E0000085E0000005E000010B50023934203D0CC5CC4540133F9E710BD02440346934202D003F8011BFAE7704700000EB400B51A
:404200004FF402719CB0ADF814106FF00041049107914FF6FF711DABADF81610084953F8042B02900690086802A9019300F066F8029B00221A701CB05DF804EB03B07047EB
:40424000F081FF1F2DE9F0478D688146AB420C4692461F4643D38B8913F4906F3DD0266809690222C1EB0608666906EB460696FBF2F608F101023A44964238BF16465B0585
:404280000FD5314600F01AFB054698B121694246FFF7A2FFA38923F4906343F08003A38113E0324600F05EFB054670B94846216900F0C0FA0C23C9F80030A3894FF0FF30AD
:4042C00043F04003A381BDE8F087256166614544C8EB06062560A6603D46AF4200D23D462A462068514600F089FAA36800205B1BA36023681D442560BDE8F0872DE9F043A3
:404300009DB003938B8907461C060D4616460CD50B6953B9402100F0D1FA2860286110B90C233B60C7E040236B610023099320238DF8293030238DF82A3033461C4613F879
:40434000012B1AB9B4EB06090FD002E0252AF5D1F8E73846294632464B46FFF773FF013000F0A480099B4B4409932378002B00F09D8000234FF0FF320493079305920693A2
:404380008DF853301A9304F101094D4E4C4630462178052200F024FA09F10109049B28B1861B0120B04003430493EEE7D90644BF20228DF853201A0744BF2B228DF8532073
:4043C00022782A2A02D0079B21460EE0039A111D12680391002A01DB079204E0524243F002030792049301340AE00C4622780131303A092A03D80A2000FB0323F5E7079338
:4044000023782E2B19D163782A2B09D1039B02341A1D1B680392002BB8BF4FF0FF330BE0611C00230C4622780131303A092A03D80A2000FB0323F5E70593224E21783046FF
:40444000032200F0CDF930B1861B4020B040049B01340343049321781B480622661C8DF8281000F0BDF988B1184B33B9039B073323F007030833039314E003AB00933846D4
:4044800004A92A46124BAFF3008007E003AB0093384604A92A460E4B00F08EF8B0F1FF3F804603D0099B4344099346E7AB895B0601D4099801E04FF0FF301DB0BDE8F08323
:4044C000BE5D0000C45D0000C85D000000000000454200002DE9F84315461F468A680B6906469A42A8BF13462B6091F843200C46DDF820800AB101332B602368990602D5BC
:404500002B6802332B60236813F006091DD094F843302268003318BF012392061FD5E118302081F843005A1C94F845102244023382F8431013E03046394604F1190201237B
:40454000C047013007D009F10109E2682B68D31A9945F0DBDBE74FF0FF30BDE8F8833046394604F14302C0470130F4D023682A6803F00603E168042B08BFC2EB01052369A3
:40458000A2680CBF25EAE57500259A42C4BFC3EB0203ED184FF00009A9450ADA3046394604F11A020123C0470130D4D009F10109F2E70020BDE8F8832DE9FF470E7E804696
:4045C0006E2E0C4691469A460C9D01F1430000F0A58011D8632E22D009D8002E00F0AF80582E40F0BF8081F845607B4A4FE0642E1ED0692E1CD0B5E0732E00F0A48009D854
:404600006F2E2BD0702E40F0AD800B6843F020030B6038E0752E21D0782E34D0A2E02B6801F142071A1D1B682A6081F842309DE022682B6812F0800F03D01A1D2A601D689A
:4046400005E05106F9D51A1D2A60B3F90050002D39DA2D236D4284F8433034E022682B6812F0800F03D01A1D2A601D6804E05206F9D51A1D2A601D88237E574A6F2B14BF4B
:404680000A2308231BE07823544A84F845302368296813F0800F01F104062E6001D00D6802E05F06FBD50D88DE0744BF43F0200323601DB9236823F0200323601023002124
:4046C00084F8431001E0444A0A236668002EA66003DB216821F00401216005B96EB104F14201B5FBF3F603FB1655555D0F4601F801593546002EF4D100E00746082B0AD135
:404700002368DD0707D5626823699A4203DC302307F8013C013FC01B20612CE009682B6811F0800F626904D0191D29601B681A6005E04906F8D5191D29601B681A800023F7
:404740002361074617E02B681A1D2A601F68384600F03EF963682061984288BF23612369636005E004F1420784F8426001232361002384F84330CDF800A04046214603AAB7
:404780004B46FFF7A7FE013002D14FF0FF301FE0404649463A462369D0470130F5D023689B0705D4E068039B9842B8BF18460FE00025E268039BD31A9D42F3DA40464946E9
:4047C00004F119020123D0470130DED00135F0E704B0BDE8F08700BFCF5D0000E05D000010B5C9B202449042034605D01C7801308C42F8D1184610BD002010BD814270B5B8
:4048000001D300230EE08C18A042FAD28518134613F1FF3305D351426618F65C2944CE54F6E770BD934203D0CC5CC4540133F9E770BD000030B500293CD051F8042C0B1F5B
:404840001D49002AB8BF9B180A680C4612B95A600B6030BD93420DD219685818904203D15A581144426819605A60236030BD994203D80A4651680029F9D1146815199D4203
:404880000AD11B682344D0188842136012D10868034413604B680CE002D90C23036030BD18681C188C4203D10C684968204418605960536030BD00BF4082FF1F70B5CD1CAB
:4048C00025F0030508350C2D38BF0C25002D06463FDB8D423DD3214B1C6818462146A1B10B685B1B0ED40B2B03D90B60CC18CD501FE08C4202D1626802601AE04B686360FF
:404900000C4616E00C464968E9E7154C23681BB9304600F04DF820602946304600F048F8431C014615D0C41C24F0030484420AD1256004F10B00231D20F00700C31A0BD0A1
:404940005A42E25070BD3046611A00F031F80130EED10C233360002070BD00BF4082FF1F3C82FF1FF8B5064614460D4621B91146BDE8F840FFF7A2BF1AB9FFF75BFF204624
:40498000F8BD00F02DF8A0420ED230462146FFF795FF074650B129462246FFF71DFC30462946FFF747FF01E02846F8BD3846F8BD38B5064C0023054608462360FBF7F8FD13
:4049C000431C02D1236803B12B6038BDB083FF1F034613F8012B002AFBD1181A0138704751F8040C002802DA04390B5818440438704700000000000052455345540000000E
:404A0000535441525400000053656C65637420612070726F66696C652E2E0000526567756C617220202000004C696768742020202020000048696C6C732020202020000034
:404A400043617264696F202020200000466174204275726E2020000057656C636F6D6520746F20004D792054726561646D696C6C00000000536C656570696E672E2E2E001E
:404A800057656C636F6D6520746F206D792074726561646D696C6C210A0D00004865617274726174653A20002020202020000000596F7572206865617274726174653A2088
:404AC0002569202020200D005C5100405C5100405C5100405C5100405C5100405C5100405C5100406C510040D35A0040835A00402040010204081010011000000051004068
:404B00002000305100401000C0510040100000000140001000140140000800400140000A004C014000020050014020000000000000000000101010101010101018181818CA
:404B4000181818181C1C1C1C1C1C1C1C1E1E1E1E1E1E1E1E1F1F1F1F1F1F1F1F00000000000000000000000000000000050505050505050020400102040810002D500040AE
:404B80002E50004028500040295000402A5000402B5000402C500040065200400E520040165200401E520040265200402E520040365200407E5200400102000000000000B2
:404BC0000200010005010100080000000019000001010102020203030304040404050505060606070707080808090909090A0A0A040402020202020001112131416153630A
:404C0000730000000809010105070704040000000606060606060606060606060606060606060606060606060606070707070707070707070707070707070707070707079D
:404C40000707070707070707070707070707070707070707070707070707070707070707070707070707070707070707070707070707070707070707070707070707070774
:404C80000707070707070707070707070707070707080808080808080808080808080808080808080808080808080808080808080808080808080808080808080808080805
:404CC00008080808080808080808080808080808080808080808080808080808080808080808080808080808080808080808080808080808080808080808080909090909AF
:404D00000909090909090909090909090909090909090909090909090909090909090909090909090909090909090909090909090909090909090909090909090909090933
:404D40000909090909090909090909090909090909090909090909090909090909090909090909090909090909090909090A0A0A0A0A0A0A0A0A0A0A0A0A0A0A0A0A0A0AE0
:404D80000A0A0A0A0A0A0A0A0A0A0A0A0A0A0A0A0A0A0A0A0A0A0A0A0A0A0A0A0A0A0A0A0A0A0A0A0A0A0A0A0A0A0A0A0A0A0A0A0A0A0A0A0A0A0A0A0A0A0A0A0A0A0A0A73
:404DC0000A0A0A0A0A0A0A0A0A0A0A0A0A0A0A0A0A0A0A0A0A0A0A0A0A0A0A0A0A0A0A0A0A0A0A0A0A0A0A0A0A0A0A0A0A0B0B0B0B0B0B0B0B0B0B0B0B0B0B0B0B0B0B0B20
:404E00000B0B0B0B0B0B0B0B0B0B0B0B0B0B0B0B0B0B0B0B0B0B0B0B0B0B0B0B0B0B0B0B0B0B0B0B0B0B0B0B0B0B0B0B0B0B0B0B0B0B0B0B0B0B0B0B0B0B0B0B0B0B0B0BB2
:404E40000B0B0B0B0B0B0B0B0B0B0B0B0B0B0B0B0B0B0B0B0B0B0B0B0B0B0B0B0B0B0B0B0B0B0B0B0B0B0B0B0B0B0B0B0B0B0B0B0B0B0B0B0B0B0B0B0B0B0B0B0B0B0B0B72
:404E80000B0B0B0B0B0B0B0B0B0B0B0C0C0C0C0C0C0C0C0C0C0C0C0C0C0C0C0C0C0C0C0C0C0C0C0C0C0C0C0C0C0C0C0C0C0C0C0C0C0C0C0C0C0C0C0C0C0C0C0C0C0C0C0CFD
:404EC0000C0C0C0C0C0C0C0C0C0C0C0C0C0C0C0C0C0C0C0C0C0C0C0C0C0C0C0C0C0C0C0C0C0C0C0C0C0C0C0C0C0C0C0C0C0C0C0C0C0C0C0C0C0C0C0C0C0C0C0C0C0C0C0CB2
:404F00000C0C0C0C0C0C0C0C0C0C0C0C0C0C0C0C0C0C0C0C0C0C0C0C0C0C0C0C0C0C0C0C0C0C0C0C0C0C0C0C0C0C0C0C0C0C0C0C0C0C0C0C0C0C0C0C0C0C0C0C0C0C0C0C71
:404F40000C0C0C0C0C0C0C0C0C0C0C0C0C0C0C0C0C0C0C0C0C0C0C0C0C0C0C0C0C0C0C0C0C0C0C0C0C0C0C0C0C0C0C0C0C0C0C0C0C0C0C0C0C0C0C0C0C0C0C0C0C0C0C0C31
:404F80000C0C0C0C0C0C0C0C0C0C0C0C0C0C0C0C0C0C0C0C0C0C0C0C0C0C0C0C0C0C0C0C0C0C0C0C0C0C0C0C0C0C0C0C0C0C0C0C0C0C0C0C0C0C0C0C0C0C0C0C0C0C0C0CF1
:404FC0000C0C0C0C0C0C0C0C0C0C0C0C0C0C0C0C0C0C0C0C0C0C0C0C0C0C0C0C0C0C0C0C0C0C0C0C0C0C0C0C0C0C0C0C0C0C0C0C0C0C0C0C0C0C0C0C0C0C0C0C0C0C0C0CB1
:405000000C0C0C0C0C0C0C0C0C0C0C0C0C0C0C0C0C0C0C0C0C0C0C0C0C0C0C0C0C0C0C0C0C0C0C0C0C0C0C0C0C0C0C0C0C0C0C0C0C0C0C0C0C0C0C0C0C0C0C0C0C0C0C0C70
:405040000C0C0C0C0C0C0C0C0C0C0C0C0C0C0C0C0C0C0C0C0C0C0C0C0C0C0C0C0C0C0C0C0C0C0C0C0C0C0C0C0C0C0C0C0C0C0C0C0C0C0C0C0C0C0C0C0C0C0C0C0C0C0C0C30
:405080000C0C0C0C0C0C0C0C0C0C0C0C0C0C0C0C0C0C0C0C0C0C0C0C0C0C0C0C0C0C0C0C0C0C0C0C0C0C0C0C0C0C0C0C0C0C0C0C0C0C0C0C0C0C0C0C0C0C0C0C0C0C0C0CF0
:4050C0000C0C0C0C0C0C0C0C0C0C0C0C0C0C0C0C0C0C0C0C0C0C0C0C0C0C0C0C0C0C0C0C0C0C0C0C0C0C0C0C0C0C0C0C0C0C0C0C0C0C0C0C0C0C0C0C0C0C0C0C0C0C0C0CB0
:405100000C0C0C0C0C0C0C0C0C0C0C0C0C0C0C0C0C0C0C0C0C0C0C0C0C0C0C0C0C0C0C0C0C0C0C0C0C0C0C0C0C0C0C0C0C0C0C0C0C0C0C0C0C0C0C0C0C0C0C0C0C0C0C0C6F
:405140000C0C0C0C0C0C0C0C0C0C0C0C0C0C0C0C0C0C0C0C0C0C0C0C0C0C0C0C0C0C0C0C0C0C0C0C0C0C0B0B0B0B0B0B0B0B0B0B0B0B0B0B0B0B0B0B0B0B0B0B0B0B0B0B49
:405180000B0B0B0B0B0B0B0B0B0B0B0B0B0B0B0B0B0B0B0B0B0B0B0B0B0B0B0B0B0B0B0B0B0B0B0B0B0B0B0B0B0B0B0B0B0B0B0B0B0B0B0B0B0B0B0B0B0B0B0B0B0B0B0B2F
:4051C0000B0B0B0B0B0B0B0B0B0B0B0B0B0B0B0B0B0B0B0B0B0B0B0B0B0B0B0B0B0B0B0B0B0B0B0B0B0B0B0B0B0B0B0B0B0B0B0B0B0B0B0B0B0B0B0B0B0B0B0B0B0B0B0BEF
:405200000B0B0B0B0A0A0A0A0A0A0A0A0A0A0A0A0A0A0A0A0A0A0A0A0A0A0A0A0A0A0A0A0A0A0A0A0A0A0A0A0A0A0A0A0A0A0A0A0A0A0A0A0A0A0A0A0A0A0A0A0A0A0A0AEA
:405240000A0A0A0A0A0A0A0A0A0A0A0A0A0A0A0A0A0A0A0A0A0A0A0A0A0A0A0A0A0A0A0A0A0A0A0A0A0A0A0A0A0A0A0A0A0A0A0A0A0A0A0A0A0A0A0A0A0A0A0A0A0A0A0AAE
:405280000A0A0A0A090909090909090909090909090909090909090909090909090909090909090909090909090909090909090909090909090909090909090909090909AA
:4052C0000909090909090909090909090909090909090909090909090909090909090909090909090909090909090909090909090909090909090808080808080808080878
:40530000080808080808080808080808080808080808080808080808080808080808080808080808080808080808080808080808080808080808080808080808080808086D
:40534000080808080808080808080808080808080808080808080808080808080808080807070707070707070707070707070707070707070707070707070707070707074D
:40538000070707070707070707070707070707070707070707070707070707070707070707070707070707070707070707070707070707070707070707070707070707072D
:4053C0000707070707070706060606060606060606060606060606060606060606060606060606060606060606060606060606060606060606060606060606060606060626
:4054000006060606060606060606060606060606060606060606060606060606060606060606060606060606060606060605050505050505050505050505050505050505FF
:4054400005050505050505050505050505050505050505050505050505050505050505050505050505050505050505050505050505050505050505050505050505050505EC
:4054800005050505050505050505050505050505050505050504040404040404040404040404040404040404040404040404040404040404040404040404040404040404D7
:4054C00004040404040404040404040404040404040404040404040404040404040404040404040404040404040404040404040404040404040404040404040404040404AC
:4055000004040403030303030303030303030303030303030303030303030303030303030303030303030303030303030303030303030303030303030303030303030303A8
:405540000303030303030303030303030303030303030303030303030303030303030303030303030303030303030303030303030303030303030303030302020202020271
:40558000020202020202020202020202020202020202020202020202020202020202020202020202020202020202020202020202020202020202020202020202020202026B
:4055C000020202020202020202020202020202020202020202020202020202020202020202020202020202020202020202020202020202020202020202020202020202022B
:405600000202020202020101010101010101010101010101010101010101010101010101010101010101010101010101010101010101010101010101010101010101010124
:4056400001010101010101010101010101010101010101010101010101010101010101010101010101010101010101010101010101010101010101010101010101010101EA
:4056800001010101010101010101010101010101010101010101010101010101010101010101010101010101010101010101010101010101010101010101010101010101AA
:4056C00001010101010101010000000000000000000000000000000000000000000000000000000000000000000000000000000000000000000000000000000000000000A2
:405700000000000000000000000000000000000000000000000000000000000000000000000000000000000000000000000000000000000000000000000000000000000069
:405740000000000000000000000000000000000000000000000000000000000000000000000000000000000000000000000000000000000000000000000000000000000029
:4057800000000000000000000000000000000000000000000000000000000000000000000000000000000000000000000000000000000000000000000000000000000000E9
:4057C00000000000000000000000000000000000000000000000000000000000000000000000000000000000000000000000000000000000000000000000000000000000A9
:405800000000000000000000000000000000000000000000000000000000000000000000000000000000000000000000000000000000000000000000000000000000000068
:405840000000000000000000000000000000000000000000000000000000000000000000000000000000000000000000000000000000000000000000000000000000000028
:4058800000000000000000000000000000000000000000000000000000000000000000000000000000000000000000000000000000000000000000000000000000000000E8
:4058C0000000000000000000000101010101010101010101010101010101010101010101010101010101010101010101010101010101010101010101010101010101010171
:405900000101010101010101010101010101010101010101010101010101010101010101010101010101010101010101010101010101010101010101010101010101010127
:4059400001010101010101010101010101010101010101010101010101010101010101010101010101010101010101010101010101010101010101010101010101010101E7
:405980000101010101010101010101020202020202020202020202020202020202020202020202020202020202020202020202020202020202020202020202020202020272
:4059C0000202020202020202020202020202020202020202020202020202020202020202020202020202020202020202020202020202020202020202020202020202020227
:405A000002020202020202020202020202020202020202020202020303030303030303030303030303030303030303030303030303030303030303030303030303030303BD
:405A40000303030303030303030303030303030303030303030303030303030303030303030303030303030303030303030303030303030303030303030303030303030366
:405A800003030303030303030303030303030404040404040404040404040404040404040404040404040404040404040404040404040404040404040404040404040404F4
:405AC00004040404040404040404040404040404040404040404040404040404040404040404040404040404040404040404040404040404040404040404040405050505A2
:405B00000505050505050505050505050505050505050505050505050505050505050505050505050505050505050505050505050505050505050505050505050505050525
:405B400005050505050505050505050505050505050505050505050505050505050505050505050506060606060606060606060606060606060606060606060606060606C9
:405B800006060606060606060606060606060606060606060606060606060606060606060606060606060606060606060606060600000000000000000000000000000000C5
:405BC00000000000000000000000000000000000000000000000000000000000000000000000000000000000000000000000000000000000000000000000000000000000A5
:405C0000000000000000000000000000000000000000000030313233343536373839414243444546000000002800000000010400010000000000000000014359555342000D
:405C40000000303030303100000000000000000012034D0053004600540031003000300001000000010000006C5C000001000000A85D0000010000007C5C000001000000A9
:405C8000645D000003000000A85C00000000000000000000000000000000000000000000A45C0000020A000000008103080002000100820240000A000100030240000A0063
:405CC00002030000040309042C0343007900700072006500730073002000530065006D00690063006F006E0064007500630074006F00720010035500530042005500410061
:405D0000520054003803430044004300200043006F006D006D0075006E00690063006100740069006F006E00200049006E0074006500720066006100630065002603430025
:405D40004400430020004400610074006100200049006E007400650072006600610063006500000009024300020101C032090400000102020103052400100104240202058C
:405D80002406000105240100010705810308000A09040100020A0000040705820240000A0705030240000A001201000202000008B40432F201000102800100004300232D85
:405DC000302B2000686C4C006566674546470030313233343536373839414243444546003031323334353637383961626364656600000000F8B500BFF8BC08BC9E46704781
:405E00004D0000002D060000F8B500BFF8BC08BC9E46704729000000285E00000881FF1FF0000000C00100000000000064000000B883FF1F7F800000030000000000E02E8F
:405E4000C05D00001800000000366E017F000000C8C8C8C8C8C8C80003030301010101001414140064646400000A0A000100000003070700C22D0A009082FF1F5C82FF1F91
:405E80006C82FF1F3081FF1F4481FF1FC04B0000C44B0000B84B00003881FF1F4881FF1F4081FF1F00C2010000000800FFFF000000000000000000000000000000000000A1
:405EC00000000000000000000000000000000000BC5D0000000000000000000000000000000000000000000000000000000000000000000000000000000000000000000089
:405F0000000000000000000000000000000000009081FF1F000000000000000000000000000000000000000000000000000000000000000000000000000000000000000032
:405F40000000000000000000000000000000000000000000000000000000000000000000000000000000000000000000000000000000000000000000000000000000000021
:405F800000000000000000000000000000000000000000000000000000000000000000000000000000000000000000000000000000000000000000000000000000000000E1
:405FC00000000000000000000000000000000000000000000000000000000000000000000000000000000000000000000000000000000000000000000000000000000000A1
:406000000000000000000000000000000000000000000000000000000000000000000000000000000000000000000000000000000000000000000000000000000000000060
:020000040003F7
:0200000480007A
:400000000145004005520040025A004008640040016500400101014035020140260301405304014039050140590601403C07014003090140010B0140020D0140010F01401A
:40004000411401402215014044160140251701400318014003190140031B0140084001400941014006420140024301400C440140034501400C4601400D470140084801404C
:4000800007490140034C0140074D014005500140035101407E022870297F2E7F31087C400B20970102FF04FF05FF12FF15FF22FF25FF851F877F8F800007010107100810D7
:4000C0000B040C0712081404180619161A011B081C201F1620012301240526022C032E0430073101322033023408350C361037103E453F5540434102450246604809560846
:40010000580459045A045B0C5F01610C62F0630C650C670C6840694C6A406B4C6C906D586F0C049005010D080E480F0114801540168017041C101E481F80276A2F4036209F
:4001400037403F29472A4F0857105C4067017C808D01A780C0D0C2F0C4B0CA80CC30CEE0D0E0D610D810DE10E640EA04EE040201050114041A0625012E0830043101320269
:400180003408360139023E013F014012450546024704481549FF4AFF4BFF4C024D204F055110580459045A045F01604061406280648066808004860187058C048F0192028C
:4001C00099069A049B089C04A201A306A405AE04B004B101B301B401B50CB602B702BE11BF55C023C104C506C602C805D602D712D804D904DA04DB04DE08DF01E10CE2F030
:40020000E30CE50CE70CE840E94CEA40EB4CEC90ED58EF0C01020480050106200A180E4A12021640174419821A181D201E4222022508278929042F40362038083F884004D7
:4002400041404520470949044F0850045140564057405D047680774079407A017C04828094C0954097809D019E809F04A204A508A620C0B8C2D6C4B1CA82CC20CE52D0EC7D
:40028000D640DE40EA02000A0201080B0C0B1604180B1C091E12260927012C102E02300432033408350136103E544005410649FF4AFF4BFF4C024D0C4EF8580459045A0474
:4002C0005F01624863A168F06AF06CF06EF0841C872089028C0C8D018E108F029014910392089320960297049B089D049F08A201A310A902AA10AB01AE0CB001B110B20471
:40030000B30CB402B520B618B703BE44BF54C005C102C50AC9FFCAFFCBFFCC03CD0CCEF4D217D804D904DA04DB04DF01E248E3A1E8F0EAF0ECF0EEF0004404800501070488
:4003400009020A200E2A100A1301178818C419201A201B401D011E201F602102220823092620270429202B402F2030A031023204388039144004482049804DA0680A691442
:4003800070808620874092089484978099809B809D019E209F04A205A6A0B104B440C0D5C2ECC4ABCA45CC0FCE0ED004D238EA20A404B004EA60EA02EA04EE04E0400B024F
:4003C0000E010F0112021A081C0126053002320134083501360437023E153F40403249FF4AFF4BFF4DA04F0150185280580459045A045B045C995D995F0160406280644099
:400400006540668068406A506BA86C406D206E506FA8C036C9FFCAFFCBFFCDAFCE07CF01D018DA04DD09DF01E040E280E440E540E680E840EA50EBA8EC40ED20EE50EFA87C
:40044000004009200A41121018441A19212022903880392040044210430447044E04724090809120940496289A109F04A680AD10B180B210B584C001C20BC404CE0CD0462E
:40048000D220EC30403649FF4AFF4BFF4DAF4E074F0150185A045D095F016040628064406540668068406A506BA86C406D206E506FA884048E068F029902A601AF01B00429
:4004C000B102B402B501B601BE51BF01C032C502C6C5C70EC81DC9FFCAFFCBFFCDAFCE07CF01D018D41FD804D904DA04DB04DC99DD99DF01E040E280E440E540E680E84068
:40050000EA50EBA8EC40ED20EE50EFA8000801800A04103019821A042008238029803210388040044304470448204E04504051085220581059065B8061886220A680AA0812
:40054000C005C202C404CA08CC04CE08D046D220D60FD80EEA02BF10D904DF012008A404EA02B004EA20EC1033213580360839023A803D40CCF0CE708D8095429D809E801F
:400580009F01AA08AB20EA20EE20814095429F01AE80E620EA409F01B10129102B0434183940591078188D40CA08CC05CE08D401E0029C10A740AB440040302034123B4028
:4005C0003F4097049C10A740AF04C002CC0DCE0C09080B040F8097049810A420A740B012B340B440C20EE804EA02210224802780A340AB40AF01C8C0EA607B40A340AF80AD
:40060000B102B440DE40E8409810A420AD08581064109810B420D401D801EC08000108010A0111011B0100AF0102100A0000000000000000C0000000007F7F0000000000E5
:40064000000000000000020000007F000000000048480000080010000000000000000000000000000000000000000000000000000000000000000000000000000000000051
:40068000000000000000000000000000000000000000000000000000000000000000000000000000000000000000000000000000000000000000000000000000000000003A
:4006C00000000000000000000000000000000000000000000000000000000000000000000000000000000000000000000000000000000000000000000000000000000000FA
:4007000000000000000000000000000000000000000000000000000000000000000000000000000000000000000000000000000000000000000000000000000000000000B9
:400740000000000000000000000000000000000000000000000000000000000000000000000000000000000000000000000000000000000000000000000000000000000079
:0200000490006A
:0400000000004005B7
:0200000490105A
:04000000BC90ACAF55
:0200000490303A
:020000001E29B7
:0200000490402A
:4000000000000000000000000000000000000000000000000000000000000000000000000000000000000000000000000000000000000000000000000000000000000000C0
:400040000000000000000000000000000000000000000000000000000000000000000000000000000000000000000000000000000000000000000000000000000000000080
:400080000000000000000000000000000000000000000000000000000000000000000000000000000000000000000000000000000000000000000000000000000000000040
:4000C0000000000000000000000000000000000000000000000000000000000000000000000000000000000000000000000000000000000000000000000000000000000000
:0200000490501A
:0C00000000012E12306900012E324E92D9
:00000001FF