:400000000080002011000000F1000000F100000080B500AF024B034A12681A6000F06CF8BC760040FA46004010B5054C237833B9044B13B10448AFF300800123237010BDD3
:400040003081FF1F00000000B425000008B5064B1BB106480649AFF300800648036813B1054B03B1984708BD00000000B42500003481FF1F0881FF1F0000000080B582B060
:4000800000AF0023FB7162B6174801F0A7F90020002100F03BFA00BF00F0BEFB0346002BFAD001201149032200F0C2FB00BF012000F042FC0346002BF9D001200B490322BC
:4000C00000F0B6FBFB79802B03D1084B05225A7005E0FB79FF2B02D1044BFB225A70FB790133FB7100BFE1E70C81FF1F4C81FF1F80B400AFFEE700BF80B586B000AF224B5D
:400100007B61224B3B61204B7B6135E03B691B68FB603B695B68BB603B699B683B6000237B600CE0FB681A68BB681A60BB680433BB60FB680433FB607B6804337B607A688B
:400140003B689A42EED13B69DB683B6000237B6008E0BB6800221A60BB680433BB607B6804337B607A683B689A42F2D13B6910333B617B69013B7B617B69002BC6D102F075
:40018000E1F9FFF77BFFFEE701000000B827000080B582B000AF174B174A1A60174B174A126842F400721A6000237B600FE07B68032B04D8124B7A6853F8223000E0114B8C
:4001C000114A796842F821307B6801337B607B682F2BECD90D4B1B78DAB20D4B1A700D4B094A1A6000F006F90B4B00221A600837BD4680BD0CED00E00004FA0514ED00E0A9
:4002000000000000F10000000080FF1FBC7600400481FF1F08ED00E00081FF1F80B582B000AF78603960786800213A6802F0B9F90837BD4680BD00BF80B584B000AFF8602A
:40024000B9607A60F868B9687A6802F0A1F91037BD4680BD80B483B000AF0346FB71FEE780B487B000AF7860396000233B6100237B6126E07B699B007A6813441B68BB60C0
:40028000BB68FB73BB6823F0FF03BB6013E03B695B003A6813441B781A46BB6813443A69520039680A4452781A703B6901333B61FB7B013BFB73FB7B002BE8D17B690133C4
:4002C0007B617B690B2BD5D91C37BD465DF8047B704700BF80B582B000AF294B06221A70284B52221A70284B284A1278D2B21A70274B40F20B721A80264B41F251221A8024
:400300000023FB7019237B6014E0FB785B00DAB2214B1B78DBB203F00103DBB21343DBB203F00303FB704FF4F07002F02DF87B68013B7B607B68002B02D0FB78032BE4D189
:400340007B68002B02D10320FFF784FF134B4FF480721A80114B07221A70114B00221A70104B48221A700D4B00221A700E4B00221A700E4B02221A700837BD4680BD00BF1F
:400380000043004000420040A14600400F010049224200402042004025420040044000400640004008400040094000400140004080B483B000AF0B4B1B78FB710A4BFA79FC
:4003C00002F00702D2B21A70084BFA791209D2B21A70074B44221A700C37BD465DF8047B704700BFCF0100496E5800406F5800407658004080B582B000AF72B6354B354AC2
:400400001278D2B242F00402D2B21A700023FB7113E0FA7913465B0013445B002E4A13443B603B681A683B689B889BB210461946FFF7F4FEFB790133FB71FB79072BE8D953
:400440004FF090402549FFF70BFF254B244A1278D2B242F00202D2B21A70224B214A1278D2B242F00202D2B21A701F4B1E4A1278D2B242F04002D2B21A701C4B1B4A1278ED
:40048000D2B242F01002D2B21A70194819490A22FFF7D2FE184819490822FFF7CDFE184B174A1278D2B242F00802D2B21A70154B00221A70FFF70EFF124B80221A70FFF75A
:4004C00077FF114808490E22FFF7B6FE0837BD4680BD00BFE8460040B8250000300000480350014013500140A0430040C2430040F051004050000048125100405C00004801
:400500002243004000480040B043004080B582B000AF02460B46FA71BB71094B1B78002B04D100F00FF8064B01221A70FA79BB791046194600F0B8F80837BD4680BD00BFFF
:400540005081FF1F80B582B000AF01F03FFF0346FB71474B464A1278D2B242F00102D2B21A70444B434A1278D2B242F00102D2B21A70414B01221A70404B02221A70404BB5
:400580003F4A1278D2B202F07F02D2B21A70002001F036FF3B4B3B4A1278D2B222F00602D2B21A70384B384A1278D2B222F02002D2B21A70334B334A1278D2B242F0010209
:4005C000D2B21A70012001F01BFF282001F018FF2E4B2E4A1278D2B202F07F02D2B21A702A4B2A4A1278D2B222F04002D2B21A70244B244A1278D2B242F00202D2B21A7069
:40060000022001F0FDFE1F4B1E4A1278D2B242F00402D2B21A701E4B00221A701D4B00221A70FB79184601F0D5FE17201A4901F0F9FE1720072101F01DFF1520174901F053
:40064000F1FE1520072101F015FF1820144901F0E9FE1820072101F00DFF0020114901F0E1FE0020072101F005FF0837BD4680BDA5430040B54300409D6000400960004013
:40068000106000409443004012600040F851004084600040856000400D1000000110000081090000AD0F000080B584B000AF02460B46FA71BB710023FB7306E0FB7B264AD6
:4006C0000121D154FB7B0133FB73FB7B002BF5D0224B4FF400021A60204B4FF080721A601E4B01221A601E4B00221A70BB79002B02D0012B04D007E01A4B02221A7007E0C6
:40070000184B03221A7003E0164B03221A7000BF154BFA791A70154B00221A70144B00221A70144B00221A70134B00221A70134B00221A70124B00221A70124B03221A704D
:40074000114B80221A70012001F01EFE0F4B04221A701037BD4680BDFC81FF1F00E100E07F81FF1F096000406C81FF1F7C81FF1F7D81FF1F7E81FF1F6D81FF1FF181FF1F14
:400780006081FF1F28600040086000401260004080B483B000AF0023FB7106E0FB79144A0121D154FB790133FB71FB79002BF5D0104B00221A70104B00221A700F4B002272
:4007C0001A700F4B00221A700E4B00221A700E4B00221A700D4B00221A700D4B03221A700C4B80221A700C37BD465DF8047B7047FC81FF1F7F81FF1F7C81FF1F7D81FF1F10
:400800007E81FF1F6D81FF1FF181FF1F6081FF1F286000400860004080B400AF034B1B78DBB21846BD465DF8047B70477C81FF1F90B484B000AF396013460246FA71BB8031
:40084000FB79002B69D0FB79082B66D8FB79013BDBB21B017B737A7B324B1344BB60B988FA79314813465B0013449B000344DB889BB2C3F5007399420BD9FA792A4913469D
:400880005B0013449B000B44DB889BB2C3F50073BB807A7B254B13441946BB881B0A9BB2D8B2FA79204C13465B0013449B002344DB78DBB20343DBB20B707A7B1C4B13445F
:4008C000BA88D2B21A703B68002B0FD00023FB8108E0FB893A6813441A78BB681A70FB890133FB81FA89BB889A42F2D3FA790E4913465B0013449B000B4400225A707A7B7D
:400900000C4B13441946FA79074813465B0013449B0003445B79DBB20B701037BD4690BC704700BF886000408081FF1F0C6000400D6000400E60004080B485B000AF034664
:40094000FB710023FB73FB79002B0FD0FB79082B0CD8FB79013BDBB21B01BB73BA7B074B13441B78DBB203F01003FB73FB7B18461437BD465DF8047B704700BF0E6000405E
:4009800080B582B000AF374B1B78BB71BB7903F01003002B63D00123FB71BB795BB2002B13DABB7903F00F03012B02D00023FB711DE000F061F82C4B1B78DBB2DBB25BB222
:4009C000002B14DA0023FB7111E0BB7903F04003002B02D000F094F809E0BB7903F02003002B02D000F0B2F801E00023FB71FB79002B34D01B4B1B78BB71BB795BB2002B0D
:400A00002DDB1A4B1B78DAB2194B1B78DBB21343BB71184BBA791A70164B1B78DBB2BA799A421CD1104B1B78FB710E4B1B78DBB223F07F03BB71BB79002B0AD1094B0A4A11
:400A40001278D2B21A70074B1B78DBB203F00F03FB71054B1B78DBB2FA799A42E2D10837BD4680BD286000406F81FF1FED81FF1F6E81FF1F2960004080B582B000AF1D4B54
:400A80001B78FB711B4BFA791A701A4B1B78FB71FB795BB2002B03DA174BFA791A7025E0022000F049FA154B1B78DBB203F06003202B08D0402B0BD0002B0ED100F0B0FC49
:400AC0000346FB710CE001F0F7FC0346FB7107E001F02CFC0346FB7102E00023FB7100BFFB79002B02D1044B03221A700837BD4680BD00BF286000406F81FF1F00600040B3
:400B000080B500AF104B1B78DBB2062B19D801A252F823F0430B0000430B0000310B0000430B0000370B0000430B00003D0B000000F0FCF806E000F0AFF903E000F0D8F930
:400B400000E000BF80BD00BF7F81FF1F80B500AF124B1B78DBB2062B1DD801A252F823F0970B0000970B00007D0B0000970B0000830B0000970B0000890B000000F0DCF83F
:400B80000AE000F02DF907E0032000F0D5F9044B03221A7000E000BF80BD00BF7F81FF1F6F81FF1F80B483B000AF0023FB712B4B1B78DBB21A462A4B1B889BB213449AB205
:400BC000274B1A8018E0FB7903F1804303F5C043244A52681278D2B21A70224B5B685A1C204B5A60FB790133FB711E4B1B889BB2013B9AB21B4B1A801A4B1B889BB2002BCB
:400C000002D0FB79072BDED9144B1B78DBB2082B02D0FB79002B0FD0134B1B78DBB283F07F03DB43DAB2104B1A70104B0F221A700F4B02221A7005E00C4B02221A700C4B22
:400C400002221A70054BFA791A700A4BFA791A700C37BD465DF8047B704700BF6081FF1F6281FF1F7081FF1FED81FF1F6F81FF1F7F81FF1F6E81FF1F80B582B000AF154B4D
:400C80001B889BB2002B02D100F02EF81DE0124B02221A70114B00221A7000F06DF9104B1B78DBB21B029AB20E4B1B78DBB213439BB2FB80074B1B889BB2FA889A4202D2DB
:400CC000044BFA881A80FFF76DFF012318460837BD4680BD7081FF1F7F81FF1FED81FF1F076000400660004080B400AF0A4B02221A700A4B80221A70094B0F221A70094B56
:400D000000221A70084B00221A7001231846BD465DF8047B704700BF7F81FF1FED81FF1F6F81FF1F6081FF1F6E81FF1F80B500AFFFF738FF80BD00BF80B500AF0A4B1B789C
:400D4000DBB21A46094B1B889BB213449AB2074B1A80074B00221A70012000F0EDF8054B03221A7080BD00BF6081FF1F6281FF1F7F81FF1F6F81FF1F80B582B000AF124B25
:400D800004221A70114B80221A7000F0F5F8104B1B78DBB21B029AB20E4B1B78DBB213439BB2FB800C4B1B889BB2FA889A4202D2094BFA881A80094B0B221A70012318462D
:400DC0000837BD4680BD00BF7F81FF1FED81FF1F07600040066000407081FF1F6F81FF1F80B483B000AF0023BB71254B1B78DBB203F00F03DBB2023BFB71FB799AB2214B45
:400E00001B889BB213449AB21E4B1A801BE01E4B5A68BB7903F1804303F5C0431B78DBB21370194B5B685A1C174B5A60BB790133BB71FB79013BFB71134B1B889BB2013B7A
:400E40009AB2114B1A80104B1B889BB2002B02D0FB79002BDBD10D4BFA791A700C4B1B78DBB283F07F03DB43DAB2094B1A70094B0B221A700C37BD465DF8047B704700BFB9
:400E8000296000406281FF1F7081FF1F6E81FF1FED81FF1F6F81FF1F80B500AF044B00221A70012000F048F8024B03221A7080BD7F81FF1F6F81FF1F80B400AF084B0622BF
:400EC0001A70084B06221A70074B80221A70074B00221A7001231846BD465DF8047B70477F81FF1F6F81FF1FED81FF1F6E81FF1F80B500AF0C4B1B78DBB2002B0AD00B4B5C
:400F0000094A1278D2B262F07F02D2B21A70064B00221A70064B00221A70012000F00CF8044B03221A7080BD6D81FF1F086000407F81FF1F6F81FF1F80B483B000AF0346E6
:400F4000FB710B4B9B68002B0CD0094B9B68FA791A70074B9B68074A128892B25A80044B00229A600C37BD465DF8047B704700BF7081FF1F6281FF1F80B400AF094B00228F
:400F80001A80094B9B68002B07D0074B9B6800221A70054B9B6800225A80BD465DF8047B704700BF6281FF1F7081FF1F80B400AF104B1B78104B1B7BDBB203F00303012B1D
:400FC00008D00D4BDB7BDBB283F07F03DB43DAB2094BDA73084B01225A73084B074A1278D2B222F00102D2B21A70BD465DF8047B704700BF0E6000408081FF1F0B600040C1
:4010000080B400AFBD465DF8047B704780B500AFFFF7BEFB80BD00BF80B582B000AF0023FB716F4B1B78BB716E4B1B78DBB2DBB25BB2002B6DDA6C4B1B78DBB2013B052B6A
:4010400065D801A252F823F0A7100000C1100000ED1000000F1100000F11000061100000624B1B78DBB2212B0BD100F0CBF8604B1B889BB2002B15D0FFF7FEFD0346FB7104
:4010800046E05A4B1B78DBB2222B0BD100F0F8F8574B1B889BB2002B04D0FFF7EDFD0346FB7135E034E000F031F9514B1B889BB2002B04D0FFF7E0FD0346FB7128E027E0B1
:4010C000BB79002B11D14B4B1B78DBB2002B0CD1474B01221A80BA79474B1A44444B5A60FFF7CAFD0346FB7112E011E0BB79002B0CD13F4B01221A80BA79404B1A443C4BBB
:401100005A60FFF7B9FD0346FB7101E000E000BF61E0344B1B78DBB2DBB25BB2002B5ADB314B1B78DBB20A2B11D00B2B3FD0092B00D050E000F0EAF82D4B1B889BB2002BAA
:4011400004D0FFF719FE0346FB7144E043E0BB79002B2BD1274B1B78DBB2002B26D1BB79224A1278D1B2244AD154BB79224AD35CDAB2BB792249CB5CDBB29A4204D2BB79AF
:401180001F4A0021D1540CE0BB791D4AD35CDBB2012B06D9BB79BA7917498A5CD1B2184AD154FFF789FE0346FB7114E013E0BB79002B0FD10F4B1B78DBB2012B0AD8BB7967
:4011C0000C4A1278D1B20D4AD154FFF775FE0346FB71FFE700BFFB7918460837BD4680BD046000400060004001600040036000407081FF1F02600040F881FF1FFC81FF1F91
:40120000F481FF1F80B584B000AF194B1B78DBB2013BDBB2184600F0D9FEF860154B1B78FB72FB7A0233DB00FA681344FB60FB685B68FB60FB7A104AD35CDBB2DB00FA68F7
:401240001344FB60FB685B68FB60FB682033FB60FB685B687B607B681B78DBB21A46074B1A80064B7A685A601037BD4680BD00BF7C81FF1F046000406481FF1F7081FF1FD6
:4012800080B584B000AF1D4B1B78DBB2013BDBB2184600F09BFEF860194B1B78FB72FB7A0233DB00FA681344FB60FB685B68FB60FB7A144AD35CDBB2DB00FA681344FB608A
:4012C000FB685B68FB60FB681833FB60FB685B687B607B6801331B78DBB21B029AB27B681B78DBB213439BB29AB2074B1A807B689A1C054B5A601037BD4680BD7C81FF1FA0
:40130000046000406481FF1F7081FF1F80B584B000AF2C4B00221A802B4B1B78DBB2013BDBB2184600F052FEF860284B1B78FB72274B1B78BB72BB7A0233DB00FA681344B4
:40134000FB60FB685B68FB60BB7A002B37D1BB7A204AD35CDBB2DB00FA681344FB60FB685B68FB60FB7A002B29D0FB7A032B26D8FB7A03F10053013BDB00FA681344FB603D
:40138000154B1B78FB72FB681B78FA7A9A4216D8FB685B687B60FA7A13465B0013449B007A6813447B607B685A68064B5A607B681A88044B1A807B689A68024B9A601037D9
:4013C000BD4680BD7081FF1F7C81FF1F03600040046000406481FF1F0260004080B483B000AF78600C4B00221A707B68002B0ED07B681B78012B0AD97B6801331B78032B5D
:4014000005D1064B7A681A60034B01221A700C37BD465DF8047B70475881FF1F5481FF1F80B586B000AF0023FB7500233B61A04B00221A809F4B1B78DBB2DBB25BB2002B91
:4014400080F20B819C4B1B78DBB20A2B00F2038101A252F823F000BFAB15000057160000571600005716000057160000571600008514000057160000211600005716000072
:40148000371600008D4B1B78DBB2012B0ED100F0C7FDB860BB685A68854B5A60844B12221A80FFF7E9FB0346FB757DE0834B1B78DBB2022B23D1824B1B78DBB2184600F0CA
:4014C00085FDB860BB68002B6ED0BB685A68784B5A60774B5B6803331B78DBB21B029AB2734B5B6802331B78DBB213439BB29AB26F4B1A80FFF7C0FB0346FB75ACE06F4B57
:401500001B78DBB2032B4AD10023FB736D4B3B6109E03B691B78FB71FB793A6913443B61FB7B0133FB73664B1B78DBB2FA7B9A4204D23B691B78DBB2002BEAD1604B1B78CF
:40154000DBB2EE2B01D1604B3B615D4B1B78DBB2002B11D05A4B1B78DAB25C4B1B7C9A420AD15B4B1B78DBB2002B03D0594B1B683B6101E0584B3B613B691B78DBB2002B89
:4015800012D03B691B78DBB21A46494B1A80484B3A695A60FFF770FB0346FB755CE000F08BFF0346FB7557E056E0424B1B78DBB203F00303002B1FD0022B00D02FE03C4BBE
:4015C00002221A80454B1B78DBB203F07F02444913465B0013449B000B449B78DAB2414B1A70404B00225A70314B3E4A5A60FFF743FB0346FB7512E02D4B02221A803A4B03
:401600001B78DAB2374B1A70364B00225A70284B344A5A60FFF730FB0346FB7500BF1BE0234B01221A80224B304A5A60FFF724FB0346FB7510E01E4B01221A80274B1B781E
:40164000DBB21A462A4B1A44194B5A60FFF714FB0346FB7500E000BF23E1174B1B78DBB2013B0A2B00F21C8101A252F823F000BF89170000A118000015180000A1180000AB
:401680009D160000A1180000A1180000A1180000F9160000A11800004F170000084B1B78DAB2144B1A70FFF707FC0346FB75F8E07081FF1F00600040016000400360004046
:4016C000026000402026000058270000E82500005881FF1F5481FF1F60260000046000408081FF1F5C81FF1FF181FF1F7C81FF1F6481FF1F6D81FF1F6C4B1B78BB71BB79E4
:40170000002B06D0BB79013BDBB2184600F05EFCB860BB79002B02D0BB68002B02D1BB79002B13D1624B1B78DBB2BA799A4208D05F4BBA791A705F4B01221A70012000F0D3
:4017400089F9FFF7B9FB0346FB75AAE0A9E000F0B1FD0346002B16D0574B1B787B71574B7A791A70534B01221A7000F0F5FA7B797A7953498A5CD1B2524AD154FFF79CFBD5
:401780000346FB758DE08CE04F4B1B78DBB203F00303012B22D0012B0DD3022B00D038E0424B1B78DBB2002B04D100F0E1FC0346FB752EE02DE03D4B1B78DBB2012B0CD1A6
:4017C000424B1B78DBB223F00203DAB23F4B1A70FFF772FB0346FB751BE01AE0364B1B78DBB2002B14D1344B1B78DBB21A463849CB5CD9B22D4B1B78DBB2DB43DBB20B4002
:40180000D9B2334B9954FFF757FB0346FB75FFE700BF46E02C4B1B78DBB203F00303012B22D0012B0DD3022B00D038E01F4B1B78DBB2002B04D100F02BFC0346FB752EE0AF
:401840002DE01A4B1B78DBB2012B0CD11F4B1B78DBB243F00203DAB21C4B1A70FFF72CFB0346FB751BE01AE0134B1B78DBB2002B14D1114B1B78DBB21A461549CB5CD9B249
:401880000A4B1B78DBB2DB43DBB20B40D9B2104B9954FFF711FB0346FB75FFE700BF00E000BFFB7D18461837BD4680BD026000407C81FF1F7E81FF1F046000407D81FF1FEC
:4018C0006481FF1FEC81FF1F00600040F181FF1FF081FF1F80B483B000AF0123FB710023BB7197E0BB7903F1804303F5C1430C221A70FA794E4913465B0013449B000B4491
:401900005B79DBB2002B18D0FA79494913465B0013449B000B441B79DBB2DBB25BB2002B05DABA79434B13440C221A700AE0BA79404B134408221A7004E0BA793D4B1344FB
:4019400080221A70BA793C4B13441946FA79384813465B0013449B00034408331B889BB21B0A9BB2DBB20B70BA79344B13441946FA792F4813465B0013449B0003440833CC
:401980001B889BB2DBB20B70BA792D4B13441946FA79274813465B0013449B000344DB889BB2DBB20B70BA79264B13441946FA791F4813465B0013449B000344DB889BB276
:4019C0001B0A9BB2DBB20B70BA791F4B13441946FA79174813465B0013449B000344DB889BB2DBB20B70BA79184B13441946FA790F4813465B0013449B000344DB889BB2F0
:401A00001B0A9BB2DBB20B70FB790133FB71BB791033BB71BB795BB2002BBFF663AF0C4BFF221A700C37BD465DF8047B704700BF8081FF1F0E6000400C6000400D6000408A
:401A4000866000408760004084600040856000400A60004080B588B000AF0346FB7100237B830023FB7743E0FA7FA34913465B0013449B000B4400221A70FA7F9E491346BD
:401A80005B0013449B000B4400229A70FA7F9A4913465B0013449B000B4400225A70FA7F954913465B0013449B000B440022DA70FA7F914913465B0013449B000B440022FF
:401AC0005A71FA7F8C4913465B0013449B000B44083300221A80FA7F874913465B0013449B000B44083300229A70FB7F0133FB77FB7F082BB8D9FB79002B10D000237B774A
:401B00000AE07B7F7D4A0021D1547B7F7C4A0021D1547B7F01337B777B7F002BF1D0794B1B78DBB2002B00F01181764B1B78DBB2013BDBB2184600F049FA38613B695B68DC
:401B4000FB60FB6807331B7803F04003002B08D06D4B1B78DBB243F00103DAB26A4B1A7007E0694B1B78DBB223F00103DAB2664B1A703B6908333B613B691B78FB770123E6
:401B80007B778DE03B695B687B610023BB777FE07A7F7B699B7803F07F039A4272D17A7F554913465B0013449B000B4408331B889AB27B699B889A420BD27A7F7B699988D7
:401BC0004D4813465B0013449B00034408330A461A807B691B78494AD35CDAB27B695B789A424FD17B69DB7803F00303FB727B699B78DBB25BB2002B17DA7A7F3E491346A3
:401C00005B0013449B000B4401225A70797FFB7A012B01D1072200E00D2237480B465B000B449B0003445A7116E07A7F324913465B0013449B000B4400225A70797FFB7A99
:401C4000012B01D1052200E009222B480B465B000B449B0003445A717A7F7B699978264813465B0013449B0003440A461A717A7F7B69D978204813465B0013449B00034472
:401C80000A461A707B6908337B61BB7F0133BB77BA7FFB7F9A42FFF47BAF7B7F01337B777B7F082B7FF66EAF3B695B687B6100237B7714E07B699B7803F07F027B691978F8
:401CC0000D4813465B0013449B00034408330A469A707B6908337B617B7F01337B777A7FFB7F9A42E6D300F0ADF90246074B1A600123FB7725E000BF8081FF1F6481FF1FC4
:401D0000EC81FF1F7C81FF1FF181FF1F6881FF1FFA7F104913465B0013449B000B447A8BDA80FA7F0B4913465B0013449B000B4408331B889AB27B8B13447B83FB7F01334B
:401D4000FB77FB7F082BE3D9FFF7C4FD2037BD4680BD00BF8081FF1F80B584B000AF8F4B1B78DBB2002B00F015818C4B1B78DBB2013BDBB2184600F029F978607B68083373
:401D80007B607B681B78FB707B685B68BB600023FB73FAE0BB681B78814AD35CDAB2BB681B788049CB5CDBB29A4200F0E880BB681B787B4AD35CDAB2BB685B789A4240F060
:401DC000DE80BB681A78784B1B78DBB29A4240F0D680BB689B7803F07F03BB70BB78013BDBB21B017B70BB68DB7803F003033B70BB689B78DBB25BB2002B17DABA786B49C6
:401E000013465B0013449B000B4401225A70B9783B78012B01D1072200E00D2263480B465B000B449B0003445A7116E0BA785F4913465B0013449B000B4400225A70B97871
:401E40003B78012B01D1052200E0092257480B465B000B449B0003445A717A78544B134401221A70BA78BB689988504813465B0013449B00034408330A461A80BA78BB682E
:401E800099784A4813465B0013449B0003440A461A71BA78BB68D978444813465B0013449B0003440A461A70BA78404913465B0013449B000B440022DA707A783D4B1344D1
:401EC0001946BA78394813465B0013449B00034408331B889BB21B0A9BB2DBB20B707A78354B13441946BA78304813465B0013449B00034408331B889BB2DBB20B707A785A
:401F00002E4B13441946BA78284813465B0013449B000344DB889BB2DBB20B707A78284B13441946BA78214813465B0013449B000344DB889BB21B0A9BB2DBB20B707A786C
:401F4000204B13441946BA78184813465B0013449B000344DB889BB2DBB20B707A781A4B13441946BA78114813465B0013449B000344DB889BB21B0A9BB2DBB20B70BB6837
:401F80000833BB60FB7B0133FB73FA7BFB789A42FFF400AF1037BD4680BD00BF7C81FF1F6481FF1FEC81FF1F046000408081FF1F0E6000400C6000400D600040866000406E
:401FC00087600040846000408560004080B485B000AF0346FB71104B1B78DBB20F4ADB0013445B68FB60FB680833FB60FB681B78FA799A4202D30023FB6005E0FB79DB00BB
:40200000FA6813445B68FB60FB6818461437BD465DF8047B704700BF6C81FF1F5027000080B400AF054B1B78DBB2054ADB0013445B681846BD465DF8047B70476C81FF1F60
:402040005027000080B584B000AF104B1B78DBB2013BDBB21846FFF7B9FFB860BB68002B0DD0BB685B681B79FB71FB790233DB00BA681344BB60BB685B68FB6001E00023FB
:40208000FB60FB6818461037BD4680BD7C81FF1F80B582B000AF0023FB71324B1B78DBB203F07F03BB71BB79013BDBB21B017B71BB79002B51D0BB79082B4ED8BA79B97908
:4020C00029480B465B000B449B0003449B78DBB243F00103D9B2244813465B0013449B0003440A469A70BA791F4913465B0013449B000B440022DA70BA79B9791A480B4669
:402100005B000B449B0003445B78DBB243F00203D9B2154813465B0013449B0003440A465A70BA79104913465B0013449B000B441B79DBB2DBB25BB2002B05DA7A790B4BFD
:4021400013448D221A7004E07A79084B134489221A70FEF7B1FE0346FB71FB7918460837BD4680BD046000408081FF1F0E60004080B582B000AF0023FB714A4B1B78DBB2A4
:4021800003F07F03BB71BB79013BDBB21B017B71BB79002B00F08180BB79082B7DD8BA79B97941480B465B000B449B0003449B78DBB223F00103D9B23B4813465B001344D2
:4021C0009B0003440A469A70BA79374913465B0013449B000B440022DA707A79334B13441A467979314B0B441B78DBB203F07F03DBB21370BA79B9792B480B465B000B4432
:402200009B0003445B78DBB223F00203D9B2264813465B0013449B0003440A465A70BA79214913465B0013449B000B441B79DBB2DBB25BB2002B16DABA791B4913465B0091
:4022400013449B000B445B78DBB2012B05D17A79174B13440C221A701BE07A79144B13440D221A7015E0BA790F4913465B0013449B000B445B78DBB2012B05D17A790C4BD9
:40228000134408221A7004E07A79094B134409221A70FEF711FE0346FB71FB7918460837BD4680BD046000408081FF1F0C6000400E60004080B584B000AF0123FB73164BAA
:4022C0001B78BB73154B1B78DBB2013BDBB21846FFF77CFEB860BB685B681B79FB71BA7BFB799A4202D2BB7B002B02D00023FB730CE0BB7BBA7B0A498A5CD1B2094AD15460
:40230000BB7B094A1278D1B2054AD154FB7B18461037BD4680BD00BF046000407C81FF1F6481FF1FEC81FF1F0260004080B582B000AF0023FB710F4B1B78DBB2DBB25BB2D1
:40234000002B12DA0C4B1B78DBB2012B00D00CE00A4B0B4A5A600A4B1B781A46074B1A80FEF78AFC0346FB7100BFFB7918460837BD4680BD00600040016000407081FF1FBF
:402380006C27000000000000142840F2188002B4012114381149097811F0C001890904B40F4A515C04BC00BF00BF00BF88417FF5FDAF00BF00BF02BC704700BF00BF70F1BB
:4023C00004007FF5FCAF70470B050709EFF3108072B6704780F310887047000000480040C8230000AFF3008080B483B000AF0346FB7101BE0C37BD465DF8047B704700BF21
:4024000080B582B000AF0346FB80FB88044A127802FB03F31846FFF7B7FF0837BD4680BD2481FF1F80B584B000AF03463960FB710F4B1B68FB60FB791F2B02D90020FFF7DB
:40244000D3FFFB7903F01F0310339B00FA6813441B68BB60FB7903F01F0310339B00FA6813443A681A60BB6818461037BD4680BD08ED00E080B582B000AF02460B46FA7199
:40248000BB71BB79072B02D90020FFF7ADFFFB791F2B02D90020FFF7A7FFFB7903F01F0303F1604303F56443BA795201D2B21A700837BD4680BD00BF80B582B000AF0023CE
:4024C000FB710023BB711B4B1B78DBB203F00303012B02D0022B04D012E0174B1B78BB710EE0154B1B78DBB203F07F02134913465B0013449B000B4408339B78BB7100BF24
:402500000F4B1A68BB7913441B78022B09D0032B02D0012B07D007E0FEF77EFD0346FB7102E000BF00E000BFFB7918460837BD4680BD00BF00600040046000408081FF1FD9
:402540006881FF1F70B50E4B0E4D0024ED1AAD101E46AC4204D056F8242090470134F8E700F018F9084D094B0024ED1AAD101E46AC4204D056F8242090470134F8E770BD8E
:40258000A0270000A0270000A8270000A027000010B50023934203D0CC5CC4540133F9E710BD02440346934202D003F8011BFAE7704700000000000000510040100020514F
:4025C00000405000C0510040100000000140001000140140000800400140000A004C014000020050014020001201000200000008B4041DF2000001028001000009022200DC
:40260000010101C0000904000001030000000921110100012236000705810308000A0000040309042C0343007900700072006500730073002000530065006D006900630052
:402640006F006E0064007500630074006F0072000C034D006F007500730065000000000002030000360005010902A1010901A10005090509050919012903150025019503F8
:40268000750181029501750581010501093009311581257F750895028106C0C000000000320005010902A1010901A100050919012903150025019503750181029501750501
:4026C00081010501093009311581257F750895028106C0C000000000040000000482FF1F0082FF1F00000000D8260000000000000000000000000000000000000100000043
:4027000064260000010000000E26000001000000E426000000008103080003000300000001000000FC2500000100000014270000010000000C270000000000001C27000068
:4027400001000000E82500000100000020270000010000004027000012034D00530046005400310030003000010000002800000000010400010000000000000000014359EF
:402780005553420000003030303031000000000000000000F8B500BFF8BC08BC9E4670474D00000091010000F8B500BFF8BC08BC9E46704729000000C82700000881FF1FA2
:4027C00028000000D8000000000000000E034600570053004E00300031000000408AF701E8800000210000000000744000000000000000000000000000000000000000002A
:402800000000000000000000000000000000000000000000000000000000000000000000000000000000000000000000000000000000000000000000000000000000000098
:402840000000000000000000000000000000000000000000000000000000000000000000000000000000000000000000000000000000000000000000000000000000000058
:402880000000000000000000000000000000000000000000000000000000000000000000000000000000000000000000000000000000000000000000000000000000000018
:4028C00000000000000000000000000000000000000000000000000000000000000000000000000000000000000000000000000000000000000000000000000000000000D8
:020000040003F7
:0200000480007A
:4000000001450040015200400117014001190140024001400141014001420140014301400247014002480140014C0140015101407E027C40EE08EE083380CC10A780A780A9
:40004000A7800808C208AF80EE10AC08000200000000000000000000C0000000000400000000000000000000000000000000000000000000000000000000000000000000D8
:400080000000000000000000000000000000000000000000000000000000000000000000000000000000000000000000000000000000000000000000000000000000000040
:4000C0000000000000000000000000000000000000000000000000000000000000000000000000000000000000000000000000000000000000000000000000000000000000
:4001000000000000000000000000000000000000000000000000000000000000000000000000000000000000000000000000000000000000000000000000000000000000BF
:40014000000000000000000000000000000000000000000000000000000000000000000000000000000000000000000000000000000000000000000000000000000000007F
:0200000490006A
:040000000800C0052F
:0200000490105A
:04000000BC90ACAF55
:0200000490303A
:02000000DC0F13
:0200000490402A
:4000000000000000000000000000000000000000000000000000000000000000000000000000000000000000000000000000000000000000000000000000000000000000C0
:400040000000000000000000000000000000000000000000000000000000000000000000000000000000000000000000000000000000000000000000000000000000000080
:400080000000000000000000000000000000000000000000000000000000000000000000000000000000000000000000000000000000000000000000000000000000000040
:4000C0000000000000000000000000000000000000000000000000000000000000000000000000000000000000000000000000000000000000000000000000000000000000
:0200000490501A
:0C00000000012E12306900012E210C7846
:00000001FF