:400000000080002011000000FD060000FD06000008B5044B1A6803F53F5302331A6000F06FFB00BFFA46004010B5054C237833B9044B13B10448AFF300800123237010BD07
:400040009081FF1F000000000C32000008B5064B1BB106480649AFF300800648036813B1054B03B1984708BD000000000C3200009481FF1F0881FF1F00000000F8B501206F
:4000800000F06AFF00F070FA01F096FA01F03EF901F078F80028FBD1022001F07BF843F69823984216D81BE001F030F9284601F071F843F69823984207D900233B600120E3
:4000C00000F04AFF0323336002E00A2000F002FE013C03E00A240625034F044E002CE3DC024B1868F8BD00BF1082FF1FFC81FF1F08B500F07FFA00F009FA00F003FA012255
:40010000054B1A600020014600F084FF034800F011FF022008BD00BF1082FF1F1032000008B5044800F006FF0222034B1A60032008BD00BF183200001082FF1F08B5304B75
:400140001B68032B04D10020014600F063FF08E0012000F001FF2B4800F0ECFE0322284B1A600120002100F055FF01F025FA01F0CDF801F007F80028FBD1012001F084FA28
:4001800078B1214B1B68002B07DB013B1E4A13604FF4FA7000F09EFD0DE002221A4B1A6009E0022001F070FA28B1174B186800F0E7F9042008BD144B1B68012B14D0022BE2
:4001C00009D0D3B90120002100F024FF0F4800F0B1FE032008BD0120002100F01BFF0C4800F0A8FE032008BD0120002100F012FF084800F09FFE032008BD032008BD00BF9A
:400200001082FF1F20320000AC81FF1F34320000403200004C32000008B504221B4B1A6000F00EFA00231A4907E05A1C01EB8200406801EB830358601346082BF5DD154B7F
:400240001968134B9962586802F0E2FD02F060FF00FB00F3632B13DD002803DD00220E4B1A6002E001220C4B1A600120052100F0D1FE094B188800F0EBFE0522074B1A60BD
:40028000642000F027FD054B186808BD1082FF1FAC81FF1F1C82FF1F0882FF1FFC81FF1F10B50522264B1A60264B1B68012B30D0022B18D0002B41D1234B1C68204623490A
:4002C00002F01CFF20B1224B186800F063F835E02046204902F0F4FE00282FD01C4B586800F058F82AE0184B1C6820461A4902F005FF20B1164B186800F04CF81EE0204698
:40030000164902F0DDFEC8B1114B586800F042F814E00D4B1C6820460C4902F0EFFE20B10B4B986800F036F808E020460C4902F0C7FE18B1064B586800F02CF8042010BDEA
:400340001082FF1FAC81FF1F1C82FF1F0000C8420C81FF1F0000A042000034430000F0420000704208B50622024B1A6000F034F8002008BD1082FF1F08B501F0B3FD08BD54
:4003800008B5034B186080B201F086FD08BD00BF1482FF1F70B505460E4B1C68844208DB13E02046FFF7ECFF304600F093FC013400E00A26AC42F4DB70BD2046FFF7E0FF4D
:4003C000304600F087FC013C00E00A26AC42F4DC70BD00BF1482FF1F70B50D4B1C680D4E86FB0436E317C3EBE606642506E02046FFF7C6FF284600F06DFCA41B002CF6DCAA
:400400000020FFF7BDFF0120002100F003FE70BD1482FF1F6766666608B502F055FA02460B4602F005F902460B4605A1D1E9000102F0DAFB02F0C0FC08BD00BFAFF30080A1
:400440000000000080842E412DE9F8430446894602F05EFEFFF7E0FF05464FF0010800274FF07E56404600F039FE284600F048FC384600F033FE284600F042FC2046314648
:4004800002F0C6FC0446484602F078FD214602F017FE0028E6D1BDE8F88300BF10B515488221FFF7D1FF202000F014FC12483021FFF7CAFF402000F00DFC10484121FFF7DF
:4004C000C3FF202000F006FC0D484121FFF7BCFF642000F0FFFB3D2408E0204602F04EFD04EBD4714910FFF7AFFF013C3A2CF4DC10BD00BFA4D082437BD412435CCF0243C9
:400500000000444308B5FFF7C9FF08BDF8B5012000F022FD002427460526104D0AE03846E1B200F077FD304600F012FD286800F0D1FB01340F2CF2DD012000F00DFD002064
:40054000032100F067FD064800F0F4FC0120022100F060FD034800F0EDFCF8BD1881FF1F583200006432000008B50020014600F051FD024800F0DEFC08BD00BF74320000F4
:400580002DE9F04105460424DFF86480164F174E25E0012000F0E0FC642000F09BFB012D12D0022D08D0B5B90120002100F032FD304600F0BFFC0EE00120002100F02AFDB2
:4005C000384600F0B7FC06E00120002100F022FD404600F0AFFC642000F07CFB013C002CD7DCBDE8F08100BF40320000343200004C32000008B501F0A9FA01F0B5FA00F06F
:40060000FBFC00F021FF00F075FD00F07FFE00F05FFF01F065FB01F0EBF901F093FB01F08FFC01F009FC01F015FCFFF7A5FE01F043FD01F0D1FC0320002100F06BFB08BD96
:4006400010B50020014600F0E5FC0E4800F072FC0D4B1A680D4B1B68D31A0D4C0D4890FBF3F002F08BFC20600120002100F0D2FC206802F073FD00F0EBFC074800F05AFCBC
:40068000206810BD80320000EC81FF1FF081FF1F1C82FF1FC02709008C32000010B562B60120154B186000F057FC134C2368062BFCD8DFE803F00C040814101C1800FFF787
:4006C00017FD2060F2E7FFF72BFD2060EEE7FFF7D5FC2060EAE7FFF79FFD2060E6E7FFF72DFD2060E2E7FFF73DFE2060DEE7FFF7D7FD2060DAE700BFFC81FF1FFEE700BF3B
:4007000080B5104F104E002415E031687368B568224604E051F8040B43F8040B0432AA42F8D1F168224602E043F8044B04328A42FAD11036013F002FE7D102F02FFDFFF7C9
:40074000ADFFFEE7010000000044000010B5134A134B1A6008331A6842F400721A6000231048114C114908E0032B02D854F8232000E0024641F8232001332F2BF4D90C4BC3
:400780001A780C4B1A70094A0B4B1A6000F016F900F0D2F90022094B1A6010BD0004FA050CED00E0FD060000000000000080FF1FBC7600400481FF1F08ED00E00081FF1F26
:4007C000FEE700BFF0B400231F4611E050F82760F2B226F0FF0608E001EB430511F813406D78A5550133013AD2B2002AF4D10137272FEBD9F0BC7047164B1B78DBB203F048
:400800000701154A11701B09013213700222134B1A70102220331A70092103F2FF63197000210433197003F5C8731A7020230C490B7088310A700B4A1370402103321170FE
:40084000103213700122084B1A704422A3F2E5231A707047CF0100496E5800404D510040085A0040C05A00405B5B004008B50A46002102F0C2FC08BDF8B50022384B1A80F1
:40088000582202331A70092202331A801B2202331A7040F69F7202331A80182202331A70062203F276231A7043F21332EE3B1A80023B05221A701B7843F2C824294D4FF422
:4008C000F07603E0304600F023F9013C1CB12B7813F0800FF6D114B90120FFF771FF40224FF040231A70702203F500731A704FF4E16222331A8041F25122023B1A800025A7
:400900001924194F4FF4F0760AE03B7803F0010343EA450505F00305304600F0F9F8013C0CB1032DF1D114B90320FFF749FF0F4A4FF4807313800723137000230C490B702E
:400940004820023108701370053213700222094B1A7003F2A1331A7842F007021A70F8BD80400040104200402542004004400040064000400140004008B502F035FC08BDE7
:40098000092808D8044A52F82030104490F828101A780A431A70704794320000092809D8054A52F82030104490F828101A7822EA01021A70704700BF9432000038B572B6B9
:4009C0003B4B1A7842F004021A700024394D09E004EB44035B002B4418689988FFF746FF0134E4B2062CF3D94FF090403249FFF7E9FE4FF44072314B1A8003222A3B1A804F
:400A000040F2032204331A802D480421FFF72EFF2C480421FFF72AFF2B4B1A7842F002021A7010331A7842F002021A70274C237843F040032370264B1A7842F010021A70D4
:400A4000244825490822FFF797FF244824490A22FFF792FF234824490822FFF78DFF234823490822FFF788FF224823490822FFF783FF224822490822FFF77EFF4422214B9C
:400A80001A70A3F54B43B93B1A7842F008021A701D4D01232B70FFF7EFFE81232B70FFF7ABFE1A4821460E22FFF766FF38BD00BFE8460040C8320000A000004872580040EE
:400AC000007600400876004003500140A0430040C2430040C251004078090048F051004080090048225100408C0900484251004094090048525100409C090048625100400D
:400B0000A4090048DB0E014000480040B04300400230800800F0058000BF013800467FF4FCAF7047EFF3108072B6704780F31088704700BFAFF300800B4A7F23137080218A
:400B4000517007E0DA0002F1804202F5F042013BDBB21370002BF5D1DB0003F1804303F5F04300221A7070471C81FF1F172815D831B102010A4BD15C41F02001D15405E00E
:400B80000201074BD15C01F0DF01D1540001044BC25C42F00102C25400207047012070471070004017280BD80001064BC25C02F0F10201F0070142EA4101C15400207047CB
:400BC000012070471070004041F6FF73994201D14FF4005141F6FF739A4201D14FF40052172808D8C00000F1804000F5EC408180C280002070470120704700BF172805D809
:400C0000034B03EB0010417200207047012070471070004010B417281AD8C40004F1804404F5EC44D201D2B201F07F01114321709DF804201201D2B203F00F031343637080
:400C40009DF8083003F00F03A3700020E07000E001205DF8044B704710B5FFF763FF0A4B5B78182B0BD9084A1478013B5370E30003F1804303F5F0431B78137000E0FF249C
:400C8000FFF754FF204610BD1C81FF1F10F0800F0CD111F4704F0BD1C00000F1804000F5F04001808270C37000207047012070470120704710F0800F08D1C00000F1804055
:400CC00000F5F0408180C280002070470120704701BE704738B50446084D04E02868FFF717FFA4F50044B4F5004FF7D8034B586800FB04F0FFF70CFF38BD00BF2481FF1F42
:400D000008B5034B1B7A03FB00F0FFF701FF08BD2481FF1F0E4B1A7802F0FC0200F0030002431A701A7842F080021A701A7802F07F021A704901187801F0600200F09F00EF
:400D400002431A701A7842F010021A70704700BF834300400122014B1A7070478443004070B505460E46074B1C681F2802D90020FFF7AEFF05F01F05103554F8250044F887
:400D8000256070BD08ED00E038B505460C46072902D90020FFF79CFF1F2D02D90020FFF797FF05F01F0000F1604000F564406401E4B2047038BD00BF10B50B4C237803F088
:400DC0009F032370237803F0F00323702378184340F0100323700120FFF792FF237803F0EF03237010BD00BF2051004038B505460E4C237843F020032370237803F0BF0380
:400E000023700020FFF77CFF237803F0F003237023781D4345F0100525700120FFF770FF237803F0EF03237038BD00BF205100402DE9F041364B1A7802F08002D2B21A70C6
:400E4000344A117801F0F00141F00F0111700132117801F0F00111700132117801F0F00111701A7802F0DF021A701A7842F040021A704FF4CA7500271C46DFF89C8038468E
:400E8000FFF73EFF237843F0100323700120FFF737FF98F80060F6B2237803F0EF0323703846FFF72DFF06F00806F6B2237843F0100323700120FFF723FF237803F0EF031A
:400EC000237016B90A20FFF71BFF013D0EB1002DD5D10F4B1A7802F0BF021A701A7802F08002D2B21A7002331A7802F0F0021A7001331A7802F0F00242F00F021A70013369
:400F00001A7802F0F00242F00F021A70BDE8F08120510040225100402151004010B50446FFF786FF2009FFF761FF04F00F00FFF75DFF10BD38B505460078012404E0FFF768
:400F4000EDFF285D0134E4B20028F8D138BD00BF08B5FFF7E3FF08BD10B50446FFF768FF2009FFF729FF04F00F00FFF725FF10BD08B52820FFF7AEFE0320FFF71DFF052098
:400F8000FFF7A8FE0320FFF717FF0F20FFF7A2FE0320FFF711FF0120FFF79CFE0220FFF70BFF0520FFF796FE0620FFF7D5FF0E20FFF7D2FF2C20FFF7CFFF0820FFF7CCFF18
:400FC0000120FFF7C9FF0C20FFF7C6FF0320FFF7C3FF0520FFF77EFE014800F069F808BDF432000008B50C20FFF7B6FF0122014B1A7008BDD881FF1F08B5054B5B7823B9AF
:40100000FFF7B6FF0122024B5A70FFF7EBFF08BDD881FF1F08B5032819D8DFE800F002070D1381F08000FFF797FF08BDA1F14000C0B2FFF791FF08BDA1F16C00C0B2FFF7BF
:401040008BFF08BDA1F12C00C0B2FFF785FF08BD10B584B000238DF80E300922134C0FE0A4FB0013DB08194603EB83035B00C31A303304A8104400F80C3C0846013AD2B20A
:401080000928EDD8094BA3FB0013DB0803EB83035B00C31A303304A9114401F80C3C01A81044FFF747FF04B010BD00BFCDCCCCCC38B50546FFF7BCFE4020FFF74DFF0024A8
:4010C00004E0285DFFF72AFF0134E4B23F2CF8D9FFF7AEFE8020FFF73FFF38BD044B1A7802F0FE0200F0010002431A70704700BF6051004010B5FFF715FD0446134B1A78F5
:4011000042F020021A7000F0F5FB00F017FB00F06FFB0F4B1A7842F010021A70103B1A7842F010021A7003F5A65305331A7842F001021A702046FFF7F9FC0822054B1A6071
:40114000054B1A7842F080021A7010BD9F640040BB43004000E100E07D64004010B4012407490130C0B2072807D0C30800F0070204FA02F2CB5C1A42F3D05DF8044B7047E6
:401180003481FF1F024B187800F00100704700BF3882FF1F014B33F8100070472082FF1F10B50B4B1A5C1918097A03EB80031B6909241C700F2A00D10722054B03EB82025A
:4011C000D36A1A780A431A70FFF7DAFB10BD00BF3433000070B504460B4B1D5C03441E7AFFF7DCFB0F2D00D10725074B03EB8505EA6A117821EA0606167003EB8404236922
:4012000008221A7070BD00BF3433000010B5002404E02046FFF7DEFF0134E4B2062CF8D910BD00BF10B50E4B197801F0FC011970663B197809020B4B23F810100A4C247861
:401240002143C94323F81010FFF7C4FF002000F0EBFA064B1A7842F001021A7010BD00BF7D6400402082FF1F0764004070580040024B187040081033187070472E640040E2
:4012800070B50446084B034493F84C60074D2B18187900F0C9FA35442A7B054B1A70054B185DFFF7E5FF70BD343300003481FF1F536400403082FF1F38B50546FFF7E0FF41
:4012C000084C237843F001032370074B1A7802F0FE021A702846FFF763FF237843F00203237038BD7D6400407058004008B5054B00221A70044A107081221A70FFF7DCFF06
:4013000008BD00BF3882FF1F3782FF1F10B500220A4B1A700A4CFF2323702078FFF71EFF20702378DBB2062B07D8044B1A7842F001021A702078FFF7BFFF10BD3882FF1FA5
:401340003782FF1F012805D1054B1A7802F0EF021A707047024B1A7842F010021A7070477D64004038B5FFF751FF0220FFF7EAFFFFF7D8FB2E4B1A7842F003021A7001330F
:401380001A7842F003021A70FFF7D0FB4FF43442284B1A804FF6FF7520331D80072443331C70FFF7BFFB244B1A7842F003021A7004331A7842F003021A70FFF7B7FBFF23B7
:4013C0001E4A157020321370403A13702432137030321370103A1370082503F1E02381331D6003201649FFF7BBFC03202146FFF7CBFC00F07BFA2046FFF7C2FA2846FFF7F7
:40140000BFFA0920FFF7BCFA0E4B1A7842F004021A7000F0CFF900F027FA002000F03AFA042000F047FA002000F0FEF938BD00BF9C6400402C640040936400402364004046
:40144000B51600007D64004008B5084B1B7823B9FFF788FF0122054B1A70FFF74BFE00F05DF90122024BDA7308BD00BFDA81FF1F3481FF1F094B1B5C094A32F81010094ABA
:4014800022F81010002208490A5408490A5423B15A1E0749C95C074B99547047803300002082FF1F5482FF1F4482FF1F4C82FF1F4481FF1FDC81FF1F10B50446FFF716FF0C
:4014C000FFF760FE0028FBD12046FFF7D3FF10BD10B5002404E02046FFF7EEFF0134E4B2062CF8D910BD00BF2DE9F04104462B4B1B5C2B4A13441F792A4B33F8106000F057
:4015000009F9294B33F81430B34204D8F51AADB24FF0010803E09D1BADB24FF00008B8F1000F10D1142D0ED9204B1B5D042B06D92046FFF79FFF00221C4B1A5519E001332D
:401540001A4A135515E0AF4204D2132D11D8B8F1000F0ED1164A115D41EA03210E44F31AC3F30F20104921F81400135500220F4B1A55AF420DD2B8F1000F0AD0FF2D04D97E
:40158000FF220C4B1A55BDE8F0810A4B1D55BDE8F0810022074B1A55BDE8F081803300004481FF1F2082FF1F5482FF1F3C82FF1F4482FF1F4C82FF1F70B500240126094D9C
:4015C0000CE0E30804F0070206FA02F2EB5C1A4202D02046FFF788FF0134E4B2062CF0D970BD00BF3481FF1FF0B4C10800F0070301229A40D2B21F4B1B5C1F4CE5182E7A6D
:401600002D7BE75C23B901241C4B9C70022301E0013BDBB21A4C645C14420DD0DFF864C01CF80000751BA8421BDA24EA0204144844541248C75414E0DFF848C01CF8000041
:401640003544A8420BDD18460C4DEB5C012B02D814430B4D6C54013B084C235401E00748C754074B5B5C134201D0012000E00020F0BC7047803300004481FF1FDC81FF1F96
:401680006482FF1F4C82FF1FF8B5094B1C5C184405792544EDB2002601272046FFF7A4FF00B13E460134E4B2AC42F6D33046F8BD8833000010B5114B1878FFF7B3FD104B43
:4016C0001B7813F0800F05D00D4B1A7802F0FE021A7010BD094C2078FFF740FD20702378DBB2062B03D82078FFF7E6FD10BD044B1A7802F0FE021A7010BD00BF3782FF1FDB
:401700003882FF1F08B5FFF7F1FD08BD08B5FFF739FD08BD08B500F077FE08BD08B500F029FF08BD08B50220FFF70CFE08BD00BF08B50120FFF706FE08BD00BF054B1A789B
:4017400042F004021A7010331A7842F004021A70704700BFA74300400F4B1A7802F0FC0200F003010A431A7001280AD10B4B1A78D2B20B4B1A700B4B1A78D2B20A4B1A702E
:4017800070470A4B1A78D2B2054B1A70084B1A78D2B2054B1A7070474258004012010049344600401601004935460040B1010049B901004908B50020FFF7CEFF0B4B1A78A2
:4017C00042F020021A701A7802F0FB021A701A7842F008021A7003F295231A7802F0E7021A701A7842F010021A7008BD42580040054B1A7842F001021A7010331A7842F05D
:4018000001021A70704700BFA8430040054B1A7802F0FD021A701A7800F0020002431A70704700BF20580040014B1870704700BF805B0040094B1B7803F00C035B08084A99
:40184000127812F0040F00D0013303F1924393F82021D2B2034B1A70704700BF20580040215800400846004008B51422084B1A700133002018701A7842F004021A701A78CD
:4018800042F002021A70FFF7C1FFFFF7D3FF08BD2058004008B5064B1A7802F0FB021A701A7800F0040002431A70FFF7C3FF08BD2158004008B5064B1A7802F0F3021A70B8
:4018C0001A7800F00C0002431A70FFF7B3FF08BD2058004010B5002404E02046FFF75EF80134E4B2092CF8D910BD00BF08B5FFF7F1FF08BD054B1A7842F001021A7010333E
:401900001A7842F001021A70704700BFA2430040084B1A7842F001021A7010331A7842F001021A7003F5A5531E331A7842F080021A707047A9430040044B1A7802F0FC02BE
:4019400000F0030002431A70704700BF0158004010B487B00446194A03AB1068516803C3117A19706B4652F80C0F516803C3127A1A70082C1ED8124B1A7802F08002D2B279
:401980001A70197806AA144414F80C0C14F8182C920002F00C0202430A431A70013B1A7802F0F3021A70197814F8182C0A4342F00C021A7007B05DF8044B7047C0330000A6
:4019C0000258004008B50C22084B1A7001331A7842F020021A70802201331A700620FFF7B7FF0320FFF7A8FF08BD00BF0058004008B5054B1B7823B9FFF7E4FF0122024B0E
:401A00001A70FFF785FF08BDE481FF1F2DE9F0471E4B1D7805F00105064640B96DB1A3F5AB53063B1A7842F010021A7005E025B9174B1A7842F010021A700EB90F2700E018
:401A400007270024DFF848A0DFF84890DFF83C8018E036B999F800300133DBB289F8003005E09AF800300133DBB28AF800300A20FFF746F998F8003003F00103AB4203D108
:401A80000134E4B2BC42E4D3BDE8F087965B00403146004030460040054B1A7842F001021A7010331A7842F001021A70704700BFA74300400F4B1A7802F0FC0200F0030147
:401AC0000A431A7001280AD10B4B1A78D2B20B4B1A700B4B1A78D2B20A4B1A7070470A4B1A78D2B2054B1A70084B1A78D2B2054B1A70704740580040100100493046004096
:401B00001401004931460040AD010049B501004908B50120FFF7CEFF0B4B1A7842F020021A701A7802F0FB021A701A7842F008021A7003F287231A7802F0E7021A701A78A8
:401B400042F010021A7008BD4058004008B5054B1B7823B9FFF7DCFF0122024B1A70FFF79BFF08BDE581FF1FF8B51E480678F6B21D490D78EDB21D4B1C78E4B200220270F1
:401B80000A7004F0F6011970A3F283231F78FFB2197841F03001197015490A7001310A701B7803F00303012B03D11046FFF72EFF05E00120FFF72AFF0020FFF727FF0D4BF6
:401BC0001F7003F520731E7002331D7001331C70A3F5A453123B1878013B1B7843EA0020F8BD00BFC05A0040C25A0040C35A0040304600404058004010B500F0D5FA074C47
:401C000020780121FEF7B2FF60780121FEF7AEFF002000F0E5FA00F07DFA10BDE681FF1F70B505460E46012001462A0C4FF4804300F07EFA094C2070A27810463146012340
:401C4000FFF724F8A078A9B245F68232FFF732F82078A178FEF7D2FF70BD00BFE681FF1F70B505460E46012001462A0C4FF4804300F07CFA094C6070E278104631460123AA
:401C8000FFF704F8E078A9B245F68232FFF712F86078E178FEF7B2FF70BD00BFE681FF1F10B500F0C3FA022000F08CFA002000F0ADFAFEF7D1FF084CA070FEF7CDFFE0704D
:401CC000064C20464FF47A61FFF7AAFF04F57A606421FFF7C5FF10BDE681FF1FD833000008B5054B1B7923B9FFF7DAFF0122024B1A71FFF781FF08BDE681FF1F10B5034CE5
:401D00006368236000F046F8606010BDEC81FF1F014B1B681864704708ED00E04001C0B2014B1870704700BF00E400E00122014B1A60704700E100E00122014B1A60704776
:401D400080E100E008B5FFF7F7FF0448FFF7E0FF0720FFF7E3FFFFF7E9FF08BDFD1C0000024B1A7842F080021A70704774650040014B1870704700BF87650040014B18785E
:401D8000704700BF67650040014B1860704700BF04650040024B1B78024B1868704700BF0465004044650040014B1868704700BF44650040014B1860704700BF24650040DB
:401DC000014B1860704700BF3465004008B501E0FFF7EAFFFFF7D2FF10F0400FF8D108BD08B5134B1A7802F0F80242F001021A701A7802F0FC021A70FFF7E8FF4FF0FF3000
:401E0000FFF7D8FF4FF0FF30FFF7BEFF0020FFF7AFFFFFF7B3FF8020FFF7D2FFFEF782FE044B1A7842F010021A70FEF77FFE08BD746500409765004008B5054B1B7823B9B5
:401E4000FFF7CEFF0122024B1A70FFF789FF08BDF481FF1F054B1A7842F002021A7010331A7842F002021A70704700BFA2430040024B1A7842F080021A7070477164004014
:401E8000014B1880704700BF00680040014B1880704700BF80680040014B1880704700BF4068004008B50E4B1A7802F0C00242F009021A701F331A7842F001021A70013362
:401EC0001A7842F001021A7040F2CF70FFF7D8FF40F2CF70FFF7DAFF7F20FFF7DDFF08BD7164004008B5054B1B7823B9FFF7DAFF0122024B1A70FFF7BBFF08BDF581FF1F7A
:401F00000622014B1A607047FC81FF1F014B1B685864704708ED00E04001C0B2014B1870704700BF01E400E00222014B1A60704700E100E00222014B1A60704780E100E044
:401F400008B5FFF7F7FF0448FFF7E0FF0720FFF7E3FFFFF7E9FF08BD011F000070B500F0C9F8064600F0B6F8054600F0BBF8044601200521FFF74EF83046FFF769F828461F
:401F8000FFF766F82046FFF763F800F0B3F838B100F0A0F820B100F0A5F808B1FEF7DAFE70BD00BF014B1B689864704708ED00E04001C0B2014B1870704700BF02E400E020
:401FC0000422014B1A60704700E100E00422014B1A60704780E100E008B5FFF7F7FF0448FFF7E0FF0720FFF7E3FFFFF7E9FF08BD5D1F0000024B1A7842F080021A707047DD
:4020000075640040014B1870704700BF86640040014B1878704700BF6664004008B50146014800F06DF808BD24640040024B186820F07F40704700BF4464004008B501468A
:40204000014800F05DF808BD04640040400100F06002044B197801F09F01197019780A431A7070477564004008B501E0FFF7DEFFFFF7CEFF10F0080FF8D108BD10B50C4CAA
:402080002046FFF7CBFF2046FFF7D8FF8020FFF7DDFFFEF747FD074B1A7842F010021A70FEF744FDFFF7E0FF0020FFF7ABFF10BD9F8601009664004008B5054B1B7823B9F6
:4020C000FFF7DCFF0122024B1A70FFF793FF08BDF681FF1F024B1878C0F38010704700BFC1510040024B1878C0F38010704700BF61510040014B1878C0097047C151004015
:40210000CBB20370C1F307234370C1F307418170704700BF054B1A7842F004021A7010331A7842F004021A70704700BFA2430040F0B583B086460F4616461D460A4C0023B4
:40214000237000930193184671463A46FEF762FD207831462A46FEF737FD20780221FEF721FD207803B0F0BD8C81FF1FF0B583B086460F4616461D460A4C01202070002341
:402180000093019371463A46FEF744FD207831462A46FEF719FD20780221FEF703FD207803B0F0BD8D81FF1F054B1A7842F004021A7010331A7842F004021A70704700BF7C
:4021C000A8430040054B1A7802F0FD021A701A7800F0020002431A70704700BF28580040014B1870704700BF825B0040054B1B78C3F3810303F1924393F82E21D2B2024BD6
:402200001A707047285800400A46004008B5064B1A7802F0F3021A701A7800F00C0002431A70FFF7E3FF08BD2858004008B50020074B18700133187003F26E231A7842F085
:4022400008021A70FFF7E2FF0220FFF7BBFF08BD28580040F7B50193194B041C1B7883422CD9184B184F1B6808261954396800230B54164B16491B6809681B5C8025CA5482
:40228000420000923968201C0B191A782A431A70FFF738FAFFF73AFA0028FBD10D4B009A1B6801999B5A8B4204D23A6813191A78AA431A70013E6D08002EE3D1F7BDC046AC
:4022C0005981FF1F6881FF1F6C81FF1F7C81FF1F8081FF1F6481FF1F70B5194DFF232B54184B0F221B68041C1E5C174BFFF7B2FF164A174B10881B5D311C584300F07EF990
:4023000080B2802804D92B5D40085B082B55F8E7104BC0B21855104B1049800818556200002353520E490F4853520F490968095DFF2444540D4843540D4909688B5270BD4D
:402340008482FF1F6C81FF1F980D00005C81FF1FB8330000A082FF1FA882FF1F6882FF1F8C82FF1F8082FF1F7C81FF1F9C82FF1F6081FF1F1E4BF7B51A681E4E43001E4CC1
:402380009A5A9F5B195BBD1AADB20191891A6940090429D5002D27D0019D1F53511B89B28DB22CB2002C01DA4D42ADB21349EDB20F5C79088D4217DA114C215C8D4206DD7C
:4023C000104D00260131FF082E54C9190BE08D420AD00C4D2F5C092F02D801372F5403E000272F54013921540249CA52F7BDC0466481FF1F6882FF1F8C82FF1FA082FF1FA4
:40240000A882FF1F7882FF1F70B5264B051C1B681C5CFFF7AFFF244B595D244B48005A5DC0B2234B824204D9185D904205D91A5503E01E5D864200D9185548080918C8B2E7
:402440009208011C904200D2111C1A4AC8B2165D864200D2115518490968085D17490968095D4118013989B28D421AD11449185D0D6828551348155D0668355500680E6826
:402480000019355D06786D08AE4200D3057009680D48095D006889080155FF2119550023135570BD7C81FF1FA882FF1FA082FF1F8082FF1F9C82FF1F7481FF1F7881FF1F5C
:4024C0007081FF1F8881FF1F8481FF1FF7B50022224B1B7893423FD9214C2248267800230768B446191CDDB265450BD2FD5C954206D11D4DEE5C351C8E4200D20D1CE9B20A
:402500000133F0E7194B1B68995424780068019400900023019CD8B2A0421AD2009CE05C904214D1124CE05C0F4D5D192F78B94206D901267F003743B0402F7080B2F3E744
:40254000FF25071CAF4301D0E55400E0E0540133E0E70132D2B2BBE7F7BDC0465881FF1F5A81FF1F7C81FF1F8482FF1F8081FF1FA082FF1F38B5FFF7DBF80024194B1A7898
:402580001D1CA2420AD9184B01221978D923201C93400134FFF75EFEE4B2EFE70023134A12789A420BD91249124A09681248C95C1268C908415CD1540133DBB2EFE7FFF7FB
:4025C000B1F800242B78A34208D90A4B201C1B68195D0134FFF780FEE4B2F3E7FFF776FF38BDC0465981FF1F5E81FF1F5A81FF1F6C81FF1F6881FF1F98330000002902D0D6
:40260000B0FBF1F0704708B14FF0FF3000F008B80029F8D00246B0FBF1F000FB11217047704700BF81F0004102E000BF83F0004330B54FEA41044FEA430594EA050F08BF1B
:4026400090EA020F1FBF54EA000C55EA020C7FEA645C7FEA655C00F0E2804FEA5454D4EB5555B8BF6D420CDD2C4480EA020281EA030382EA000083EA010180EA020281EA59
:402680000303362D88BF30BD11F0004F4FEA01314FF4801C4CEA113102D0404261EB410113F0004F4FEA03334CEA133302D0524263EB430394EA050F00F0A780A4F101040F
:4026C000D5F1200E0DDB02FA0EFC22FA05F2801841F1000103FA0EF2801843FA05F359410EE0A5F120050EF1200E012A03FA0EFC28BF4CF0020C43FA05F3C01851EBE371E0
:4027000001F0004507D54FF0000EDCF1000C7EEB00006EEB0101B1F5801F1BD3B1F5001F0CD349085FEA30004FEA3C0C04F101044FEA445212F5800F80F09A80BCF1004F96
:4027400008BF5FEA500C50F1000041EB045141EA050130BD5FEA4C0C404141EB010111F4801FA4F10104E9D191F0000F04BF01460020B1FA81F308BF2033A3F10B03B3F18C
:4027800020020CDA0C3208DD02F1140CC2F10C0201FA0CF021FA02F10CE002F11402D8BFC2F1200C01FA02F120FA0CFCDCBF41EA0C019040E41AA2BF01EB0451294330BDFE
:4027C0006FEA04041F3C1CDA0C340EDC04F11404C4F1200220FA04F001FA02F340EA030021FA04F345EA030130BDC4F10C04C4F1200220FA02F001FA04F340EA0300294686
:4028000030BD21FA04F0294630BD94F0000F83F4801306BF81F480110134013D4EE77FEA645C18BF7FEA655C29D094EA050F08BF90EA020F05D054EA000C04BF1946104692
:4028400030BD91EA030F1EBF0021002030BD5FEA545C05D14000494128BF41F0004130BD14F580043CBF01F5801130BD01F0004545F0FE4141F470014FF0000030BD7FEA13
:40288000645C1ABF194610467FEA655C1CBF0B46024650EA013406BF52EA033591EA030F41F4002130BD00BF90F0000F04BF0021704730B54FF4806404F132044FF0000550
:4028C0004FF0000150E700BF90F0000F04BF0021704730B54FF4806404F1320410F0004548BF40424FF000013EE700BF42004FEAE2014FEA31014FEA02701FBF12F07F4339
:4029000093F07F4F81F06051704792F0000F14BF93F07F4F704730B54FF4607401F0004521F0004120E700BF50EA010208BF704730B54FF000050AE050EA010208BF70472E
:4029400030B511F0004502D5404261EB41014FF4806404F132045FEA915C3FF4DCAE4FF003025FEADC0C18BF03325FEADC0C18BF033202EBDC02C2F1200300FA03FC20FA8E
:4029800002F001FA03FE40EA0E0021FA02F11444C1E600BF70B54FF0FF0C4CF4E06C1CEA11541DBF1CEA135594EA0C0F95EA0C0F00F0DEF82C4481EA030621EA4C5123EAE3
:4029C0004C5350EA013518BF52EA033541F4801143F4801338D0A0FB02CE4FF00005E1FB02E506F00042E0FB03E54FF00006E1FB03569CF0000F18BF4EF0010EA4F1FF04A7
:402A0000B6F5007F64F5407404D25FEA4E0E6D4146EB060642EAC62141EA55514FEAC52040EA5E504FEACE2EB4F1FD0C88BFBCF5E06F1ED8BEF1004F08BF5FEA500E50F152
:402A4000000041EB045170BD06F0004646EA010140EA020081EA0301B4EB5C04C2BFD4EB0C0541EA045170BD41F480114FF0000E013C00F3AB8014F1360FDEBF002001F03C
:402A8000004170BDC4F10004203C35DA0C341BDC04F11404C4F1200500FA05F320FA04F001FA05F240EA020001F0004221F0004110EBD37021FA04F642EB06015EEA430EA3
:402AC00008BF20EAD37070BDC4F10C04C4F1200500FA04F320FA05F001FA04F240EA020001F0004110EBD37041F100015EEA430E08BF20EAD37070BDC4F1200500FA05F291
:402B00004EEA020E20FA04F301FA05F243EA020321FA04F001F0004121FA04F220EA020000EBD3705EEA430E08BF20EAD37070BD94F0000F0FD101F00046400041EB01019A
:402B400011F4801F08BF013CF7D041EA060195F0000F18BF704703F00046520043EB030313F4801F08BF013DF7D043EA0603704794EA0C0F0CEA135518BF95EA0C0F0CD030
:402B800050EA410618BF52EA4306D1D181EA030101F000414FF0000070BD50EA410606BF1046194652EA430619D094EA0C0F02D150EA013613D195EA0C0F05D152EA03367A
:402BC0001CBF104619460AD181EA030101F0004141F0FE4141F470014FF0000070BD41F0FE4141F4780170BD70B54FF0FF0C4CF4E06C1CEA11541DBF1CEA135594EA0C0FB3
:402C000095EA0C0F00F0A7F8A4EB050481EA030E52EA03354FEA013100F088804FEA03334FF0805545EA131343EA12634FEA022245EA111545EA10654FEA00260EF0004112
:402C40009D4208BF964244F1FD0404F5407402D25B084FEA3202B61A65EB03055B084FEA32024FF480104FF4002CB6EB020E75EB030E22BFB61A754640EA0C005B084FEAB5
:402C80003202B6EB020E75EB030E22BFB61A754640EA5C005B084FEA3202B6EB020E75EB030E22BFB61A754640EA9C005B084FEA3202B6EB020E75EB030E22BFB61A75464A
:402CC00040EADC0055EA060E18D04FEA051545EA16754FEA06164FEAC30343EA52734FEAC2025FEA1C1CC0D111F4801F0BD141EA00014FF000004FF0004CB6E711F4801F7A
:402D000004BF01430020B4F1FD0C88BFBCF5E06F3FF6AFAEB5EB030C04BFB6EB020C5FEA500C50F1000041EB045170BD0EF0004E4EEA113114EB5C04C2BFD4EB0C0541EA8F
:402D4000045170BD41F480114FF0000E013C90E645EA060E8DE60CEA135594EA0C0F08BF95EA0C0F3FF43BAF94EA0C0F0AD150EA01347FF434AF95EA0C0F7FF425AF104670
:402D800019462CE795EA0C0F06D152EA03353FF4FDAE1046194622E750EA410618BF52EA43067FF4C5AE50EA41047FF40DAF52EA43057FF4EBAE12E74FEA410212F5001291
:402DC00015D211D56FF47873B3EB625212D94FEAC12343F0004343EA505311F0004F23FA02F018BF404270474FF00000704750EA013005D111F0004008BF6FF00040704714
:402E00004FF00000704700BF80F0004002E000BF81F0004142001FBF5FEA410392EA030F7FEA226C7FEA236C6AD04FEA1262D2EB1363C1BFD218414048404140B8BF5B428E
:402E4000192B88BF704710F0004F40F4000020F07F4018BF404211F0004F41F4000121F07F4118BF494292EA030F3FD0A2F1010241FA03FC10EB0C00C3F1200301FA03F172
:402E800000F0004302D5494260EB4000B0F5000F13D3B0F1807F06D340084FEA310102F10102FE2A51D2B1F1004F40EBC25008BF20F0010040EA03007047490040EB00008D
:402EC00010F4000FA2F10102EDD1B0FA80FCACF1080CB2EB0C0200FA0CF0AABF00EBC25052421843BCBFD0401843704792F0000F81F4000106BF80F400000132013BB5E7B6
:402F00004FEA41037FEA226C18BF7FEA236C21D092EA030F04D092F0000F08BF0846704790EA010F1CBF0020704712F07F4F04D1400028BF40F00040704712F100723CBFFF
:402F400000F50000704700F0004343F0FE4040F4000070477FEA226216BF08467FEA23630146420206BF5FEA412390EA010F40F4800070474FF0000304E000BF10F00043FD
:402F800048BF40425FEA000C08BF704743F0964301464FF000001CE050EA010208BF70474FF000030AE000BF50EA010208BF704711F0004302D5404261EB41015FEA010C45
:402FC00002BF84460146002043F0B64308BFA3F18053A3F50003BCFA8CF2083AA3EBC25310DB01FA02FC634400FA02FCC2F12002BCF1004F20FA02F243EB020008BF20F068
:403000000100704702F1200201FA02FCC2F1200250EA4C0021FA02F243EB020008BF20EADC7070474FF0FF3C06E000BF4FF0010C02E000BF4FF0010C4DF804CD4FEA400273
:403040004FEA41037FEA226C18BF7FEA236C11D001B052EA530C18BF90EA010F58BFB2EB030088BFC81738BF6FEAE17018BF40F0010070477FEA226C02D15FEA402C05D1ED
:403080007FEA236CE4D15FEA412CE1D05DF8040B704700BF844608466146FFE70FB5FFF7C9FF002848BF10F1000F0FBD4DF808EDFFF7F4FF0CBF012000205DF808FB00BFAA
:4030C0004DF808EDFFF7EAFF34BF012000205DF808FB00BF4DF808EDFFF7E0FF94BF012000205DF808FB00BF4DF808EDFFF7D2FF94BF012000205DF808FB00BF4DF808EDCC
:40310000FFF7C8FF34BF012000205DF808FB00BF4FEA4002B2F1FE4F0FD34FF09E03B3EB12620DD94FEA002343F0004310F0004F23FA02F018BF404270474FF0000070472C
:4031400012F1610F01D1420205D110F0004008BF6FF0004070474FF00000704742000ED2B2F1FE4F0BD34FF09E03B3EB126209D44FEA002343F0004323FA02F070474FF007
:403180000000704712F1610F01D1420202D14FF0FF3070474FF00000704700BF70B50E4B0E4D0024ED1AAD101E46AC4204D056F8242090470134F8E701F010F9084D094B1B
:4031C0000024ED1AAD101E46AC4204D056F8242090470134F8E770BDE8430000E8430000F0430000E843000010B50023934203D0CC5CC4540133F9E710BD0244034693424E
:4032000002D003F8011BFAE770470000000000005245534554000000535441525400000053656C65637420612070726F66696C652E2E0000526567756C617220202000007C
:4032400043617264696F202020200000466174204275726E2020000057656C636F6D6520746F20004D792054726561646D696C6C00000000536C656570696E672E2E2E0036
:403280004865617274726174653A200020202020202000005C5100405C5100405C5100405C5100405C5100405C5100405C5100406C510040D35A0040835A004020400102EF
:4032C000040810100110000000510040200030510040100000000140001000140140000800400140000A004C01400002005001402000000000000000000000001010101056
:403300001010101018181818181818181C1C1C1C1C1C1C1C1E1E1E1E1E1E1E1E1F1F1F1F1F1F1F1F000000000000000000000000000000000505050505050500204001023F
:40334000040810002D5000402E50004028500040295000402A5000402B5000402C500040065200400E520040165200401E520040265200402E520040365200407E52004034
:4033800001020000000000000200010005010100080000000019000001010102020203030304040404050505060606070707080808090909090A0A0A04040202020202001B
:4033C0000111213141615363730000000809010105070704040000000606060606060606060606060606060606060606060606060606070707070707070707070707070772
:4034000007070707070707070707070707070707070707070707070707070707070707070707070707070707070707070707070707070707070707070707070707070707CC
:403440000707070707070707070707070707070707070707070707070708080808080808080808080808080808080808080808080808080808080808080808080808080865
:40348000080808080808080808080808080808080808080808080808080808080808080808080808080808080808080808080808080808080808080808080808080808080C
:4034C000080808090909090909090909090909090909090909090909090909090909090909090909090909090909090909090909090909090909090909090909090909098F
:4035000009090909090909090909090909090909090909090909090909090909090909090909090909090909090909090909090909090909090A0A0A0A0A0A0A0A0A0A0A40
:403540000A0A0A0A0A0A0A0A0A0A0A0A0A0A0A0A0A0A0A0A0A0A0A0A0A0A0A0A0A0A0A0A0A0A0A0A0A0A0A0A0A0A0A0A0A0A0A0A0A0A0A0A0A0A0A0A0A0A0A0A0A0A0A0ACB
:403580000A0A0A0A0A0A0A0A0A0A0A0A0A0A0A0A0A0A0A0A0A0A0A0A0A0A0A0A0A0A0A0A0A0A0A0A0A0A0A0A0A0A0A0A0A0A0A0A0A0A0A0A0A0B0B0B0B0B0B0B0B0B0B0B80
:4035C0000B0B0B0B0B0B0B0B0B0B0B0B0B0B0B0B0B0B0B0B0B0B0B0B0B0B0B0B0B0B0B0B0B0B0B0B0B0B0B0B0B0B0B0B0B0B0B0B0B0B0B0B0B0B0B0B0B0B0B0B0B0B0B0B0B
:403600000B0B0B0B0B0B0B0B0B0B0B0B0B0B0B0B0B0B0B0B0B0B0B0B0B0B0B0B0B0B0B0B0B0B0B0B0B0B0B0B0B0B0B0B0B0B0B0B0B0B0B0B0B0B0B0B0B0B0B0B0B0B0B0BCA
:403640000B0B0B0B0B0B0B0B0B0B0B0B0B0B0B0B0B0B0B0C0C0C0C0C0C0C0C0C0C0C0C0C0C0C0C0C0C0C0C0C0C0C0C0C0C0C0C0C0C0C0C0C0C0C0C0C0C0C0C0C0C0C0C0C5D
:403680000C0C0C0C0C0C0C0C0C0C0C0C0C0C0C0C0C0C0C0C0C0C0C0C0C0C0C0C0C0C0C0C0C0C0C0C0C0C0C0C0C0C0C0C0C0C0C0C0C0C0C0C0C0C0C0C0C0C0C0C0C0C0C0C0A
:4036C0000C0C0C0C0C0C0C0C0C0C0C0C0C0C0C0C0C0C0C0C0C0C0C0C0C0C0C0C0C0C0C0C0C0C0C0C0C0C0C0C0C0C0C0C0C0C0C0C0C0C0C0C0C0C0C0C0C0C0C0C0C0C0C0CCA
:403700000C0C0C0C0C0C0C0C0C0C0C0C0C0C0C0C0C0C0C0C0C0C0C0C0C0C0C0C0C0C0C0C0C0C0C0C0C0C0C0C0C0C0C0C0C0C0C0C0C0C0C0C0C0C0C0C0C0C0C0C0C0C0C0C89
:403740000C0C0C0C0C0C0C0C0C0C0C0C0C0C0C0C0C0C0C0C0C0C0C0C0C0C0C0C0C0C0C0C0C0C0C0C0C0C0C0C0C0C0C0C0C0C0C0C0C0C0C0C0C0C0C0C0C0C0C0C0C0C0C0C49
:403780000C0C0C0C0C0C0C0C0C0C0C0C0C0C0C0C0C0C0C0C0C0C0C0C0C0C0C0C0C0C0C0C0C0C0C0C0C0C0C0C0C0C0C0C0C0C0C0C0C0C0C0C0C0C0C0C0C0C0C0C0C0C0C0C09
:4037C0000C0C0C0C0C0C0C0C0C0C0C0C0C0C0C0C0C0C0C0C0C0C0C0C0C0C0C0C0C0C0C0C0C0C0C0C0C0C0C0C0C0C0C0C0C0C0C0C0C0C0C0C0C0C0C0C0C0C0C0C0C0C0C0CC9
:403800000C0C0C0C0C0C0C0C0C0C0C0C0C0C0C0C0C0C0C0C0C0C0C0C0C0C0C0C0C0C0C0C0C0C0C0C0C0C0C0C0C0C0C0C0C0C0C0C0C0C0C0C0C0C0C0C0C0C0C0C0C0C0C0C88
:403840000C0C0C0C0C0C0C0C0C0C0C0C0C0C0C0C0C0C0C0C0C0C0C0C0C0C0C0C0C0C0C0C0C0C0C0C0C0C0C0C0C0C0C0C0C0C0C0C0C0C0C0C0C0C0C0C0C0C0C0C0C0C0C0C48
:403880000C0C0C0C0C0C0C0C0C0C0C0C0C0C0C0C0C0C0C0C0C0C0C0C0C0C0C0C0C0C0C0C0C0C0C0C0C0C0C0C0C0C0C0C0C0C0C0C0C0C0C0C0C0C0C0C0C0C0C0C0C0C0C0C08
:4038C0000C0C0C0C0C0C0C0C0C0C0C0C0C0C0C0C0C0C0C0C0C0C0C0C0C0C0C0C0C0C0C0C0C0C0C0C0C0C0C0C0C0C0C0C0C0C0C0C0C0C0C0C0C0C0C0C0C0C0C0C0C0C0C0CC8
:403900000C0C0C0C0C0C0C0C0C0C0C0C0C0C0C0C0C0C0C0C0C0C0C0C0C0C0C0C0C0C0C0C0C0C0C0C0C0C0C0C0C0C0C0C0C0C0B0B0B0B0B0B0B0B0B0B0B0B0B0B0B0B0B0B99
:403940000B0B0B0B0B0B0B0B0B0B0B0B0B0B0B0B0B0B0B0B0B0B0B0B0B0B0B0B0B0B0B0B0B0B0B0B0B0B0B0B0B0B0B0B0B0B0B0B0B0B0B0B0B0B0B0B0B0B0B0B0B0B0B0B87
:403980000B0B0B0B0B0B0B0B0B0B0B0B0B0B0B0B0B0B0B0B0B0B0B0B0B0B0B0B0B0B0B0B0B0B0B0B0B0B0B0B0B0B0B0B0B0B0B0B0B0B0B0B0B0B0B0B0B0B0B0B0B0B0B0B47
:4039C0000B0B0B0B0B0B0B0B0B0B0B0B0A0A0A0A0A0A0A0A0A0A0A0A0A0A0A0A0A0A0A0A0A0A0A0A0A0A0A0A0A0A0A0A0A0A0A0A0A0A0A0A0A0A0A0A0A0A0A0A0A0A0A0A3B
:403A00000A0A0A0A0A0A0A0A0A0A0A0A0A0A0A0A0A0A0A0A0A0A0A0A0A0A0A0A0A0A0A0A0A0A0A0A0A0A0A0A0A0A0A0A0A0A0A0A0A0A0A0A0A0A0A0A0A0A0A0A0A0A0A0A06
:403A40000A0A0A0A0A0A0A0A0A0A0A0A09090909090909090909090909090909090909090909090909090909090909090909090909090909090909090909090909090909FA
:403A800009090909090909090909090909090909090909090909090909090909090909090909090909090909090909090909090909090909090909090909090909090808C8
:403AC00008080808080808080808080808080808080808080808080808080808080808080808080808080808080808080808080808080808080808080808080808080808C6
:403B0000080808080808080808080808080808080808080808080808080808080808080808080808080808080707070707070707070707070707070707070707070707079D
:403B40000707070707070707070707070707070707070707070707070707070707070707070707070707070707070707070707070707070707070707070707070707070785
:403B80000707070707070707070707070707070606060606060606060606060606060606060606060606060606060606060606060606060606060606060606060606060676
:403BC0000606060606060606060606060606060606060606060606060606060606060606060606060606060606060606060606060606060606050505050505050505050550
:403C00000505050505050505050505050505050505050505050505050505050505050505050505050505050505050505050505050505050505050505050505050505050544
:403C40000505050505050505050505050505050505050505050505050505050505040404040404040404040404040404040404040404040404040404040404040404040427
:403C80000404040404040404040404040404040404040404040404040404040404040404040404040404040404040404040404040404040404040404040404040404040404
:403CC00004040404040404040404040303030303030303030303030303030303030303030303030303030303030303030303030303030303030303030303030303030303F9
:403D000003030303030303030303030303030303030303030303030303030303030303030303030303030303030303030303030303030303030303030303030303030303C3
:403D400003030202020202020202020202020202020202020202020202020202020202020202020202020202020202020202020202020202020202020202020202020202C1
:403D80000202020202020202020202020202020202020202020202020202020202020202020202020202020202020202020202020202020202020202020202020202020283
:403DC0000202020202020202020202020202010101010101010101010101010101010101010101010101010101010101010101010101010101010101010101010101010175
:403E00000101010101010101010101010101010101010101010101010101010101010101010101010101010101010101010101010101010101010101010101010101010142
:403E40000101010101010101010101010101010101010101010101010101010101010101010101010101010101010101010101010101010101010101010101010101010102
:403E800001010101010101010101010101010101000000000000000000000000000000000000000000000000000000000000000000000000000000000000000000000000F2
:403EC00000000000000000000000000000000000000000000000000000000000000000000000000000000000000000000000000000000000000000000000000000000000C2
:403F00000000000000000000000000000000000000000000000000000000000000000000000000000000000000000000000000000000000000000000000000000000000081
:403F40000000000000000000000000000000000000000000000000000000000000000000000000000000000000000000000000000000000000000000000000000000000041
:403F80000000000000000000000000000000000000000000000000000000000000000000000000000000000000000000000000000000000000000000000000000000000001
:403FC00000000000000000000000000000000000000000000000000000000000000000000000000000000000000000000000000000000000000000000000000000000000C1
:404000000000000000000000000000000000000000000000000000000000000000000000000000000000000000000000000000000000000000000000000000000000000080
:404040000000000000000000000000000000000000000000000000000000000000000000000000000000000000000000000000000000000000000000000000000000000040
:4040800000000000000000000000000000000000000101010101010101010101010101010101010101010101010101010101010101010101010101010101010101010101D1
:4040C0000101010101010101010101010101010101010101010101010101010101010101010101010101010101010101010101010101010101010101010101010101010180
:40410000010101010101010101010101010101010101010101010101010101010101010101010101010101010101010101010101010101010101010101010101010101013F
:4041400001010101010101010101010101010101010101020202020202020202020202020202020202020202020202020202020202020202020202020202020202020202D2
:40418000020202020202020202020202020202020202020202020202020202020202020202020202020202020202020202020202020202020202020202020202020202027F
:4041C000020202020202020202020202020202020202020202020202020202020202020303030303030303030303030303030303030303030303030303030303030303031E
:4042000003030303030303030303030303030303030303030303030303030303030303030303030303030303030303030303030303030303030303030303030303030303BE
:404240000303030303030303030303030303030303030303030304040404040404040404040404040404040404040404040404040404040404040404040404040404040454
:4042800004040404040404040404040404040404040404040404040404040404040404040404040404040404040404040404040404040404040404040404040404040404FE
:4042C0000404040405050505050505050505050505050505050505050505050505050505050505050505050505050505050505050505050505050505050505050505050582
:404300000505050505050505050505050505050505050505050505050505050505050505050505050505050505050505060606060606060606060606060606060606060629
:4043400006060606060606060606060606060606060606060606060606060606060606060606060606060606060606060606060606060606060606060000000000000000ED
:4043800000000000000000000000000000000000000000000000000000000000000000000000000000000000000000000000000000000000000000000000000000000000FD
:4043C00000000000000000000000000000000000000000000000000000000000F8B500BFF8BC08BC9E4670474D0000004D070000F8B500BFF8BC08BC9E46704729000000F5
:40440000104400000881FF1F8800000020010000000000002C01000032000000C8000000640000007F800000030000000000E02EC05D00001800000000366E017F000000E4
:40444000C8C8C8C8C8C8C80003030301010101001414140064646400000A0A000100000003070700C22D0A005482FF1F2082FF1F3082FF1F3881FF1F4C81FF1F883300002F
:404480008C330000803300004081FF1F5081FF1F4881FF1FFFFF000000000000000000000000000000000000000000000000000000000000000000000000000000000000D7
:4044C00000000000000000000000000000000000000000000000000000000000000000000000000000000000000000000000000000000000000000000000000000000000BC
:40450000000000000000000000000000000000000000000000000000000000000000000000000000000000000000000000000000000000000000000000000000000000007B
:40454000000000000000000000000000000000000000000000000000000000000000000000000000000000000000000000000000000000000000000000000000000000003B
:4045800000000000000000000000000000000000000000000000000000000000000000000000000000000000000000000000000000000000000000000000000000000000FB
:020000040003F7
:0200000480007A
:400000000145004008520040025A004009640040016500405800014030010140470201403B0301404D0401403B050140490601403807014005090140070B0140440C014047
:40004000330D0140330E0140250F014043140140251501404C160140321701400318014008190140021B01400E4001400D410140064201400B4301400A440140044501405D
:4000800010460140094701400648014009490140024C0140054D014009500140035101407E022020280F29702E7F3008344064C07C600B20970103FF07FF0EFF13FF17FFBC
:4000C00023FF27FF867F8F1F877F0302040109021401150219021A021D021E0120012301240128012B0230013202330235013E013F044020410649FF4AFF4BFF4DA04F0475
:400100005018580459045A0B5D095F01604062C06440654066C068C06AC06CC06EC08202860487028B018E019608AA04B002B204B301B401B608B702B980BE05BF44C02071
:40014000C106C502C610C702C819C9FFCAFFCBFFCDAFCE0FCF04D018D280D80BD90BDA0BDB0BDC99DD99DF01E040E2C0E440E540E6C0E8C0EAC0ECC0EEC00008044407405F
:400180000A160E2010901208172019011A101B081C441D201E201F9020082114272229012B0830903218370239203A023F284004452048084C084F085408571077407A80B5
:4001C0007E8088208A02C0B4C227C44ECA05CC8ECE65D024D224DE81E24802020308050107020C100E2013011420161018011A021B04270228042A093004320833083430D0
:400200003503360337043E553F105804590B5C905F01840E861089038D028E0E8F019301950197029903A609A702A903AE05B004B103B201B418B602BE55BF01C042C10565
:40024000C506C720C821D804D90BDA04DC90DF01E10CE2F0E30CE50CE70CE840E94CEA40EB4CEC90ED58EF0C000803020501060107020E200F0810221720185419841D01F5
:400280001E211F2420802620272229042A012B082F20312032493620370239603B083E013F0840444820498050027A807E80814082108A0191289210932096269820A004F3
:4002C000A30CA480A688AB80C095C260C445CA47CCAFCECED005D208DE81EA04EE02040A0604070108180E01140C16021802200E240E28062A18301032013301340E39802B
:400300003E113F404034420549FF4AFF4BFF4F0150185608580459045A085B0D5D095F016040624064406540668068806A806C806E8087019A01A701AE02B201B301B40245
:40034000BE14BF04C034C202C9FFCAFFCBFFCD83CE03CF01D018D280D804D90BDA08DB09DC90DD99DF01E040E240E440E540E680E880EA80EC80EE80009808200A100E08D5
:4003800010901208174018401A241B021D081E08224827202F1030103210372039083F0841084280440445084680494058406240774078A07C807E807F0589209010912865
:4003C0009210932096A49820A0C4A304A688A702AC80AD20C007C246C48ECA40CC20CE42D0E3D208D608D808DEBCEA08EE01020123012E013001360137013E4140344202C1
:4004000045EC4602480749FF4AFF4BFF4D834E034F0150185403580859085A085B085C995D995F016040624064406540668068806A806C806E8080018708890B8B048E0139
:400440009B02A70BB201B308B506B701BE04BF54C032C101C506C702C811D608D804D904DA04DB04DD90DF01E10CE2F0E30CE50CE70CE840E94CEA40EB4CEC90ED58EF0CA9
:40048000004002400680174019041E801F802015254029042F8030203404350838083920401544044508468048204D055004568059805C205D055E806280640465487F010F
:4004C000894090409120970A9A409B409C049D609E80A108A680B040C019C480CA82CC04CE06D0EED6F8D878DE10E204E628EA029F01A604E204E608EA8287018E049F01E7
:40050000A604AA40AD04E0221E012A0134013E104003410649FF4AFF4BFF4C024D0C4EF858045A045F01624863A168F06AF06CF06EF0850186048702880189028A028C025A
:400540008E0192019403950297019A109B04A004A208A608AA02AD03B00CB304B403B503B610BE11BF10C003C106C50AC9FFCAFFCBFFCC03CD0CCEF4D217D804D904DA040E
:40058000DB04DF01E248E3A1E8F0EAF0ECF0EEF00020018003200A440B100E0110A8172019801A851F102020212C298031203204391840204420470848204B104F1068081D
:4005C00069106A406B2070808B109208931096409B089D809F01A320A508A604AA04AF08C007C28EC44ECA08CC06CE06D042D224E220EA04EC04040405010C011101120107
:4006000014011A061F0228012E082F04300431013202330434083502360139023E413F014026455046204704481A49FF4AFF4BFF4C024D204F055110580459045A045F018D
:40064000604061406280648066808E01B201BE04D602D712D804DB04DE08DF010188070109080A441202131019481A841B201F082206231829403101324038084110490174
:400680004B10500451105E0875027E0489028E04C085C20EC403CA08CC09CE02D004D204D640DE20E2C8020109040A020F0413011E04260428042F02310132013302340237
:4006C000360437043E503F41405249FF4AFF4BFF4DA04F0150185280580459045A045B045C995D995F016040628064406540668068406A506BA86C406D206E506FA8C05688
:40070000C9FFCAFFCBFFCDAFCE07CF01D018DA04DD09DF01E040E280E440E540E680E840EA50EBA8EC40ED20EE50EFA8001002400A0212081308181419401A081B4022497D
:400740002980310238903A40400449404E044F807102858087089080940496889D40A740A980AB08C00AC201C406CA08CC01CE0CD004D238EC202B0131013F01405649FFCA
:400780004AFF4BFF4DAF4E074F0150185608580859045A045B045C995D995F016040628064406540668068406A506BA86C406D206E506FA884048A048D01A602A801AB02A4
:4007C000B004B202B301B401B502BE15BF04C052C502C6C5C70EC81DC9FFCAFFCBFFCDAFCE07CF01D018D41FD804D904DA04DB04DC90DD99DF01E040E280E440E540E680FD
:40080000E840EA50EBA8EC40ED20EE50EFA8000803081030120819221B082008220827402B082F0837403A40400444204708482049404E044F805040510852105810590AB7
:400840005A805C205D80610862106301670A7F018D088F01970A9A409DA8B020B148C006C406CA24CC10CE08D004D238D63FD83EDE103F0459045F01250826048D088E04C2
:400880009F01A604E240E610B301EC2031023310340837803A203B023F405D0286208F01CCF0CE70D680E2103310344080089C089F80A502A902AB10AF40CC30E620EA20B6
:4008C000EE609C409F90A310A502AB10EE808310844089029C409F10A310A502AF80E220E610EA402A20342035083B2056208710CA08CC05CE08D4029730A820A908AA2068
:400900000110072030203420350839403D4084208B108C208D489730C006CC0DCE0CE0060B180F80834087049710AF20B110C20EEA01231027202B02A310C8C0CA107B1089
:4009400087109310A310AB02B320DE40E010E8208F04E00257046308A304D402D80200010101080109010A010B010E0111011B0100FF012A100A0000C0C000000000000034
:400980002000002000000000C0000000007F7F00000000002020000020000A0000007F000000000049490000080010000000000000000000000000000000000000000000A6
:4009C00000000000000000000000000000000000000000000000000000000000000000000000000000000000000000000000000000000000000000000000000000000000F7
:400A000000000000000000000000000000000000000000000000000000000000000000000000000000000000000000000000000000000000000000000000000000000000B6
:400A40000000000000000000000000000000000000000000000000000000000000000000000000000000000000000000000000000000000000000000000000000000000076
:400A80000000000000000000000000000000000000000000000000000000000000000000000000000000000000000000000000000000000000000000000000000000000036
:0200000490006A
:0400000000004005B7
:0200000490105A
:04000000BC90ACAF55
:0200000490303A
:02000000D40C1E
:0200000490402A
:4000000000000000000000000000000000000000000000000000000000000000000000000000000000000000000000000000000000000000000000000000000000000000C0
:400040000000000000000000000000000000000000000000000000000000000000000000000000000000000000000000000000000000000000000000000000000000000080
:400080000000000000000000000000000000000000000000000000000000000000000000000000000000000000000000000000000000000000000000000000000000000040
:4000C0000000000000000000000000000000000000000000000000000000000000000000000000000000000000000000000000000000000000000000000000000000000000
:0200000490501A
:0C00000000012E12306900012E2A047548
:00000001FF