:400000000080002011000000510800005108000008B5044B1A6803F53F5302331A6000F031FC00BFFA46004010B5054C237833B9044B13B10448AFF300800123237010BD98
:400040000082FF1F00000000784F000008B5064B1BB106480649AFF300800648036813B1054B03B1984708BD00000000784F00000482FF1F0881FF1F0000000070B503F031
:40008000BFFA064603F0ACFA054603F0B1FA04461EB125B128B9002304E0002302E0002300E00123194A1360E3B900F031FB00F097FA002000F0A4F900F060FA0123144A2E
:4000C0001360144A1360114A136016B9124800F09FFB15B9114800F09BFB14B9104800F097FBFEE773B100F0E3FA002000F088F900F048FA00F042FA0122054B1A60002213
:40010000044B1A60034B186870BD00BF9882FF1F9082FF1F7C82FF1F7C4F0000944F0000A44F0000F8B5012000F0D6FF00F094F901F002FB01F0AAF901F0E4F80028FBD1C4
:40014000022001F0E7F843F69823984213D818E001F09CF9284601F0DDF843F69823984204D900233B600323336002E00A2000F071FE013C03E00A240625034F034E002C4D
:40018000E6DC024B1868F8BD9082FF1F7C82FF1F08B5304B1B68032B04D10020014600F0F9FF08E0012000F097FF2B4800F082FF0322284B1A600120002100F0EBFF01F010
:4001C000BBFA01F063F901F09DF80028FBD1012001F01AFB78B1214B1B68002B07DB013B1E4A13604FF4FA7000F034FE0DE002221A4B1A6009E0022001F006FB28B1174B29
:40020000186800F01BFA042008BD144B1B68012B14D0022B09D0D3B90120002100F0BAFF0F4800F047FF032008BD0120002100F0B1FF0C4800F03EFF032008BD01200021DF
:4002400000F0A8FF084800F035FF032008BD032008BD00BF9082FF1FBC4F00001C82FF1FD04F0000DC4F0000E84F000070B50A4B1B680A4D95FBF3F500240A2606E0204600
:4002800000F0BEF8304600F0E5FD0134AC42F6DB0520034B186070BD0C81FF1F803801007C82FF1F08B50522184B1A60184B186800F0B8FA00F03EFA0023164907E05A1C77
:4002C00001EB8200406801EB830358601346082BF5DD0F4B19680F4B9962586804F04CF804F0CAF900FB00F3632B0BDD002803DD0022094B1A6002E00122074B1A6006222C
:40030000064B1A60054B186808BD00BF9082FF1FA082FF1F1C82FF1F8882FF1F7C82FF1F10B50622264B1A60264B1B68012B30D0022B18D0002B41D1234B1C682046234920
:4003400004F090F920B1224B186800F063F835E02046204904F068F900282FD01C4B586800F058F82AE0184B1C6820461A4904F079F920B1164B186800F04CF81EE02046C6
:40038000164904F051F9C8B1114B586800F042F814E00D4B1C6820460C4904F063F920B10B4B986800F036F808E020460C4904F03BF918B1064B586800F02CF8052010BD16
:4003C0009082FF1F1C82FF1FA082FF1F0000C8420C81FF1F0000A042000034430000F0420000704208B50722024B1A6000F034F8002008BD9082FF1F08B503F007F808BD8D
:4004000008B5034B186080B202F0DAFF08BD00BF9482FF1F70B505460E4B1C68844208DB13E02046FFF7ECFF304600F013FD013400E00A26AC42F4DB70BD2046FFF7E0FF74
:40044000304600F007FD013C00E00A26AC42F4DC70BD00BF9482FF1F70B50B4B1C680B4E86FB0436E317C3EBE606642506E02046FFF7C6FF284600F0EDFCA41B002CF6DCAC
:400480000020FFF7BDFF70BD9482FF1F6766666608B503F0CDFC02460B4603F07DFB02460B4605A1D1E9000103F052FE03F038FF08BD00BFAFF300800000000080842E4173
:4004C0002DE9F8430446894604F0D6F8FFF7E0FF05464FF0010800274FF07E56404600F0BDFE284600F0CCFC384600F0B7FE284600F0C6FC2046314603F03EFF04464846AF
:4005000003F0F0FF214604F08FF80028E6D1BDE8F88300BF10B515488221FFF7D1FF202000F098FC12483021FFF7CAFF402000F091FC10484121FFF7C3FF202000F08AFC7B
:400540000D484121FFF7BCFF642000F083FC3D2408E0204603F0C6FF04EBD4714910FFF7AFFF013C3A2CF4DC10BD00BFA4D082437BD412435CCF02430000444308B5FFF702
:40058000C9FF08BDF8B5012000F0A6FD002427460526104D0AE03846E1B200F0FBFD304600F096FD286800F055FC01340F2CF2DD012000F091FD0020032100F0EBFD06483F
:4005C00000F078FD0120022100F0E4FD034800F071FDF8BD1881FF1FF44F000000500000F8B5012000F078FD002427460526104D0AE03846E1B200F0CDFD304600F068FD0D
:40060000286800F027FC01340F2CF2DD012000F063FD0020014600F0BDFD064800F04AFD0120002100F0B6FD034800F043FDF8BD1881FF1F10500000245000002DE9F041EA
:4006400005460424DFF86480164F174E25E0012000F042FD642000F0FDFB012D12D0022D08D0B5B90120002100F094FD304600F021FD0EE00120002100F08CFD384600F0DE
:4006800019FD06E00120002100F084FD404600F011FD642000F0DEFB013C002CD7DCBDE8F08100BFDC4F0000D04F0000E84F000008B501F00BFB01F017FB00F05DFD00F057
:4006C00083FF00F0D7FD00F0E1FE00F0C1FF01F0C7FB01F04DFA01F0F5FB02F0C5FE01F06BFC02F04BFEFFF787FE02F06BFF02F0F9FE0320002100F0CDFB0020014601F00D
:4007000051FD024800F084F808BD00BF4450000008B500F031FD02F0A7FEFFF76DFE0020014601F03FFD024800F072F808BD00BF6050000038B50020014600F02BFD10489A
:4007400000F0B8FC0F4D284600F0B4FC0120002100F020FD0C4B1A680C4B1B68D31A0C4890FBF3F003F0BEFE0A4C206003F0AAFF00F02EFD284600F09DFC206838BD00BF4B
:4007800068500000745000005C82FF1F6082FF1FC0270900A082FF1F10B562B601201B4B186000F099FC194C2368072BFCD801A252F823F0DD070000D5070000A9070000CA
:4007C000ED07000005080000E5070000FD070000F5070000FFF752FC2060E5E7FFF7A2FC2060E1E7FFF75EFD2060DDE7FFF7D0FC2060D9E7FFF7F6FD2060D5E7FFF790FD61
:400800002060D1E7FFF732FD2060CDE77C82FF1F10B5044601F0E8FD0028FBD0204601F099FD10BD00B58FB003F026FF024601A8064903F0A5FF01F0D7FD0028FBD001A835
:4008400001F088FD0FB05DF804FB00BF7C500000FEE700BF08B5094B1B681844084A821A802A02DC054A106005E003F04BFF0C2303604FF0FF33184608BD00BF1C81FF1FD9
:400880000084FF1F80B5104F104E002415E031687368B568224604E051F8040B43F8040B0432AA42F8D1F168224602E043F8044B04328A42FAD11036013F002FE7D103F0C7
:4008C00027FFFFF769FFFEE701000000E063000010B5134A134B1A6008331A6842F400721A6000231048114C114908E0032B02D854F8232000E0024641F8232001332F2B8F
:40090000F4D90C4B1A780C4B1A70094A0B4B1A6000F014F900F0D0F90022094B1A6010BD0004FA050CED00E051080000000000000080FF1FBC7600400481FF1F08ED00E0CD
:400940000081FF1FFEE700BFF0B400231F4611E050F82760F2B226F0FF0608E001EB430511F813406D78A5550133013AD2B2002AF4D10137272FEBD9F0BC7047164B1B78A7
:40098000DBB203F00701154A11701B09013213700A22134B1A70102220331A70092203F2FF631A70002204331A70802203F5C8731A7020230B4A1370B83213704021033266
:4009C0001170083213700122074B1A704422A3F2E5231A70704700BFCF0100496E5800404D510040085A00405B5B004008B50A46002103F0BCFE08BDF8B50022384B1A8096
:400A0000582202331A70092202331A801B2202331A7040F69F7202331A80182202331A70062203F276231A7043F21332EE3B1A80023B05221A701B7843F2C824294D4FF4A0
:400A4000F07603E0304600F023F9013C1CB12B7813F0800FF6D114B90120FFF773FF40224FF040231A70702203F500731A704FF4E16222331A8041F25122023B1A80002523
:400A80001924194F4FF4F0760AE03B7803F0010343EA450505F00305304600F0F9F8013C0CB1032DF1D114B90320FFF74BFF0F4A4FF4807313800723137000230C490B70AB
:400AC0004820023108701370053213700222094B1A7003F2A1331A7842F007021A70F8BD80400040104200402542004004400040064000400140004008B503F02FFE08BD69
:400B0000092808D8044A52F82030104490F828101A780A431A70704794500000092809D8054A52F82030104490F828101A7822EA01021A70704700BF9450000038B572B6FB
:400B40003B4B1A7842F004021A700024394D09E004EB44035B002B4418689988FFF746FF0134E4B2062CF3D94FF090403249FFF7EBFE4FF44072314B1A8003222A3B1A80CB
:400B800040F2031202331A802D480421FFF72EFF2C480421FFF72AFF2B4B1A7842F002021A7010331A7842F002021A70274C237843F040032370264B1A7842F010021A7065
:400BC000244825490822FFF797FF244824490A22FFF792FF234824490822FFF78DFF234823490822FFF788FF224823490822FFF783FF224822490822FFF77EFF4422214B1B
:400C00001A70A3F54B43B93B1A7842F008021A701D4D01232B70FFF7EFFE81232B70FFF7ADFE1A4821460E22FFF766FF38BD00BFE8460040C8500000A0000048725800404C
:400C4000007600400876004003500140A0430040C2430040C251004074090048F05100407C090048225100408809004842510040900900485251004098090048625100409F
:400C8000A0090048DB0E014000480040B04300400230800800F0058000BF013800467FF4FCAF7047EFF3108072B6704780F31088704700BFAFF300800B4A7F23137080210D
:400CC000517007E0DA0002F1804202F5F042013BDBB21370002BF5D1DB0003F1804303F5F04300221A7070472081FF1F172815D831B102010A4BD15C41F02001D15405E089
:400D00000201074BD15C01F0DF01D1540001044BC25C42F00102C25400207047012070471070004017280BD80001064BC25C02F0F10201F0070142EA4101C1540020704749
:400D4000012070471070004041F6FF73994201D14FF4005141F6FF739A4201D14FF40052172808D8C00000F1804000F5EC408180C280002070470120704700BF172805D887
:400D8000034B03EB0010417200207047012070471070004010B417281AD8C40004F1804404F5EC44D201D2B201F07F01114321709DF804201201D2B203F00F0313436370FF
:400DC0009DF8083003F00F03A3700020E07000E001205DF8044B704710B5FFF763FF0A4B5B78182B0BD9084A1478013B5370E30003F1804303F5F0431B78137000E0FF241B
:400E0000FFF754FF204610BD2081FF1F10F0800F0CD111F4704F0BD1C00000F1804000F5F04001808270C37000207047012070470120704710F0800F08D1C00000F18040CF
:400E400000F5F0408180C280002070470120704701BE704738B50446084D04E02868FFF717FFA4F50044B4F5004FF7D8034B586800FB04F0FFF70CFF38BD00BF2881FF1FBC
:400E800008B5034B1B7A03FB00F0FFF701FF08BD2881FF1F0E4B1A7802F0FC0200F0030002431A701A7842F080021A701A7802F07F021A704901187801F0600200F09F006A
:400EC00002431A701A7842F010021A70704700BF834300400122014B1A7070478443004070B505460E46074B1C681F2802D90020FFF7AEFF05F01F05103554F8250044F806
:400F0000256070BD08ED00E038B505460C46072902D90020FFF79CFF1F2D02D90020FFF797FF05F01F0000F1604000F564406401E4B2047038BD00BF10B50B4C237803F006
:400F40009F032370237803F0F00323702378184340F0100323700120FFF792FF237803F0EF03237010BD00BF2051004038B505460E4C237843F020032370237803F0BF03FE
:400F800023700020FFF77CFF237803F0F003237023781D4345F0100525700120FFF770FF237803F0EF03237038BD00BF205100402DE9F041364B1A7802F08002D2B21A7045
:400FC000344A117801F0F00141F00F0111700132117801F0F00111700132117801F0F00111701A7802F0DF021A701A7842F040021A704FF4CA7500271C46DFF89C8038460D
:40100000FFF73EFF237843F0100323700120FFF737FF98F80060F6B2237803F0EF0323703846FFF72DFF06F00806F6B2237843F0100323700120FFF723FF237803F0EF0398
:40104000237016B90A20FFF71BFF013D0EB1002DD5D10F4B1A7802F0BF021A701A7802F08002D2B21A7002331A7802F0F0021A7001331A7802F0F00242F00F021A700133E7
:401080001A7802F0F00242F00F021A70BDE8F08120510040225100402151004010B50446FFF786FF2009FFF761FF04F00F00FFF75DFF10BD38B505460078012404E0FFF7E7
:4010C000EDFF285D0134E4B20028F8D138BD00BF08B5FFF7E3FF08BD10B50446FFF768FF2009FFF729FF04F00F00FFF725FF10BD08B52820FFF7AEFE0320FFF71DFF052017
:40110000FFF7A8FE0320FFF717FF0F20FFF7A2FE0320FFF711FF0120FFF79CFE0220FFF70BFF0520FFF796FE0620FFF7D5FF0E20FFF7D2FF2C20FFF7CFFF0820FFF7CCFF96
:401140000120FFF7C9FF0C20FFF7C6FF0320FFF7C3FF0520FFF77EFE014800F069F808BDF450000008B50C20FFF7B6FF0122014B1A7008BD4882FF1F08B5054B5B7823B99E
:40118000FFF7B6FF0122024B5A70FFF7EBFF08BD4882FF1F08B5032819D8DFE800F002070D1381F08000FFF797FF08BDA1F14000C0B2FFF791FF08BDA1F16C00C0B2FFF7CD
:4011C0008BFF08BDA1F12C00C0B2FFF785FF08BD10B584B000238DF80E300922134C0FE0A4FB0013DB08194603EB83035B00C31A303304A8104400F80C3C0846013AD2B289
:401200000928EDD8094BA3FB0013DB0803EB83035B00C31A303304A9114401F80C3C01A81044FFF747FF04B010BD00BFCDCCCCCC38B50546FFF7BCFE4020FFF74DFF002426
:4012400004E0285DFFF72AFF0134E4B23F2CF8D9FFF7AEFE8020FFF73FFF38BD044B1A7802F0FE0200F0010002431A70704700BF6051004010B5FFF715FD0446134B1A7873
:4012800042F020021A7000F0F5FB00F017FB00F06FFB0F4B1A7842F010021A70103B1A7842F010021A7003F5A65305331A7842F001021A702046FFF7F9FC0822054B1A60F0
:4012C000054B1A7842F080021A7010BD9F640040BB43004000E100E07D64004010B4012407490130C0B2072807D0C30800F0070204FA02F2CB5C1A42F3D05DF8044B704765
:401300003881FF1F024B187800F00100704700BFBC82FF1F014B33F810007047A482FF1F10B50B4B1A5C1918097A03EB80031B6909241C700F2A00D10722054B03EB8202CC
:40134000D36A1A780A431A70FFF7DAFB10BD00BF3451000070B504460B4B1D5C03441E7AFFF7DCFB0F2D00D10725074B03EB8505EA6A117821EA0606167003EB8404236982
:4013800008221A7070BD00BF3451000010B5002404E02046FFF7DEFF0134E4B2062CF8D910BD00BF10B50E4B197801F0FC011970663B197809020B4B23F810100A4C2478C2
:4013C0002143C94323F81010FFF7C4FF002000F0EBFA064B1A7842F001021A7010BD00BF7D640040A482FF1F0764004070580040024B187040081033187070472E640040DD
:4014000070B50446084B034493F84C60074D2B18187900F0C9FA35442A7B054B1A70054B185DFFF7E5FF70BD345100003881FF1F53640040B482FF1F38B50546FFF7E0FF19
:40144000084C237843F001032370074B1A7802F0FE021A702846FFF763FF237843F00203237038BD7D6400407058004008B5054B00221A70044A107081221A70FFF7DCFF84
:4014800008BD00BFBC82FF1FBB82FF1F10B500220A4B1A700A4CFF2323702078FFF71EFF20702378DBB2062B07D8044B1A7842F001021A702078FFF7BFFF10BDBC82FF1F98
:4014C000BB82FF1F012805D1054B1A7802F0EF021A707047024B1A7842F010021A7070477D64004038B5FFF751FF0220FFF7EAFFFFF7D8FB2E4B1A7842F003021A7001330A
:401500001A7842F003021A70FFF7D0FB4FF43442284B1A804FF6FF7520331D80072443331C70FFF7BFFB244B1A7842F003021A7004331A7842F003021A70FFF7B7FBFF2335
:401540001E4A157020321370403A13702432137030321370103A1370082503F1E02381331D6003201649FFF7BBFC03202146FFF7CBFC00F07BFA2046FFF7C2FA2846FFF775
:40158000BFFA0920FFF7BCFA0E4B1A7842F004021A7000F0CFF900F027FA002000F03AFA042000F047FA002000F0FEF938BD00BF9C6400402C6400409364004023640040C5
:4015C000351800007D64004008B5084B1B7823B9FFF788FF0122054B1A70FFF74BFE00F05DF90122024BDA7308BD00BF4A82FF1F3881FF1F094B1B5C094A32F81010094A42
:4016000022F81010002208490A5408490A5423B15A1E0749C95C074B9954704780510000A482FF1FD882FF1FC882FF1FD082FF1F4881FF1F4C82FF1F10B50446FFF716FFE7
:40164000FFF760FE0028FBD12046FFF7D3FF10BD10B5002404E02046FFF7EEFF0134E4B2062CF8D910BD00BF2DE9F04104462B4B1B5C2B4A13441F792A4B33F8106000F0D5
:4016800009F9294B33F81430B34204D8F51AADB24FF0010803E09D1BADB24FF00008B8F1000F10D1142D0ED9204B1B5D042B06D92046FFF79FFF00221C4B1A5519E00133AC
:4016C0001A4A135515E0AF4204D2132D11D8B8F1000F0ED1164A115D41EA03210E44F31AC3F30F20104921F81400135500220F4B1A55AF420DD2B8F1000F0AD0FF2D04D9FD
:40170000FF220C4B1A55BDE8F0810A4B1D55BDE8F0810022074B1A55BDE8F081805100004881FF1FA482FF1FD882FF1FC082FF1FC882FF1FD082FF1F70B500240126094D64
:401740000CE0E30804F0070206FA02F2EB5C1A4202D02046FFF788FF0134E4B2062CF0D970BD00BF3881FF1FF0B4C10800F0070301229A40D2B21F4B1B5C1F4CE5182E7AE7
:401780002D7BE75C23B901241C4B9C70022301E0013BDBB21A4C645C14420DD0DFF864C01CF80000751BA8421BDA24EA0204144844541248C75414E0DFF848C01CF80000C0
:4017C0003544A8420BDD18460C4DEB5C012B02D814430B4D6C54013B084C235401E00748C754074B5B5C134201D0012000E00020F0BC7047805100004881FF1F4C82FF1F82
:40180000E882FF1FD082FF1FF8B5094B1C5C184405792544EDB2002601272046FFF7A4FF00B13E460134E4B2AC42F6D33046F8BD8851000010B5114B1878FFF7B3FD104B9B
:401840001B7813F0800F05D00D4B1A7802F0FE021A7010BD094C2078FFF740FD20702378DBB2062B03D82078FFF7E6FD10BD044B1A7802F0FE021A7010BD00BFBB82FF1FD5
:40188000BC82FF1F08B5FFF7F1FD08BD08B5FFF739FD08BD08B502F06BF808BD08B502F01DF908BD08B50220FFF70CFE08BD00BF08B50120FFF706FE08BD00BF054B1A78B6
:4018C00042F002021A7010331A7842F002021A70704700BFA74300400F4B1A7802F0FC0200F003010A431A7001280AD10B4B1A78D2B20B4B1A700B4B1A78D2B20A4B1A70B1
:4019000070470A4B1A78D2B2054B1A70084B1A78D2B2054B1A7070474158004011010049324600401501004933460040AF010049B701004908B50020FFF7CEFF0B4B1A782B
:4019400042F020021A701A7802F0FB021A701A7842F008021A7003F28E231A7802F0E7021A701A7842F010021A7008BD41580040054B1A7842F008021A7010331A7842F0DC
:4019800008021A70704700BFA8430040054B1A7802F0FD021A701A7800F0020002431A70704700BF2C580040014B1870704700BF835B0040094B1B7803F00C035B08084A02
:4019C000127812F0040F00D0013303F1924393F83821D2B2034B1A70704700BF2C5800402D5800400B46004008B51422084B1A700133002018701A7842F004021A701A7819
:401A000042F002021A70FFF7C1FFFFF7D3FF08BD2C58004008B5064B1A7802F0FB021A701A7800F0040002431A70FFF7C3FF08BD2D58004008B5064B1A7802F0F3021A701E
:401A40001A7800F00C0002431A70FFF7B3FF08BD2C58004010B5002404E02046FFF75EF80134E4B2092CF8D910BD00BF08B5FFF7F1FF08BD054B1A7842F001021A701033B0
:401A80001A7842F001021A70704700BFA2430040084B1A7842F001021A7010331A7842F001021A7003F5A5531E331A7842F080021A707047A9430040044B1A7802F0FC023D
:401AC00000F0030002431A70704700BF0158004010B487B00446194A03AB1068516803C3117A19706B4652F80C0F516803C3127A1A70082C1ED8124B1A7802F08002D2B2F8
:401B00001A70197806AA144414F80C0C14F8182C920002F00C0202430A431A70013B1A7802F0F3021A70197814F8182C0A4342F00C021A7007B05DF8044B7047C051000006
:401B40000258004008B50C22084B1A7001331A7842F020021A70802201331A700620FFF7B7FF0320FFF7A8FF08BD00BF0058004008B5054B1B7823B9FFF7E4FF0122024B8C
:401B80001A70FFF785FF08BD5482FF1F2DE9F0471E4B1D7805F00105064640B96DB1A3F5AB53063B1A7842F010021A7005E025B9174B1A7842F010021A700EB90F2700E026
:401BC00007270024DFF848A0DFF84890DFF83C8018E036B999F800300133DBB289F8003005E09AF800300133DBB28AF800300A20FFF746F998F8003003F00103AB4203D187
:401C00000134E4B2BC42E4D3BDE8F087965B00403146004030460040054B1A7842F001021A7010331A7842F001021A70704700BFA74300400F4B1A7802F0FC0200F00301C5
:401C40000A431A7001280AD10B4B1A78D2B20B4B1A700B4B1A78D2B20A4B1A7070470A4B1A78D2B2054B1A70084B1A78D2B2054B1A70704740580040100100493046004014
:401C80001401004931460040AD010049B501004908B50120FFF7CEFF0B4B1A7842F020021A701A7802F0FB021A701A7842F008021A7003F287231A7802F0E7021A701A7827
:401CC00042F010021A7008BD4058004008B5054B1B7823B9FFF7DCFF0122024B1A70FFF79BFF08BD5582FF1FF8B51E480678F6B21D490D78EDB21D4B1C78E4B200220270FF
:401D00000A7004F0F6011970A3F283231F78FFB2197841F03001197015490A7001310A701B7803F00303012B03D11046FFF72EFF05E00120FFF72AFF0020FFF727FF0D4B74
:401D40001F7003F520731E7002331D7001331C70A3F5A453123B1878013B1B7843EA0020F8BD00BFC05A0040C25A0040C35A0040304600404058004010B501F09BFC074CFC
:401D800020780121FEF7B2FF60780121FEF7AEFF002001F0ABFC01F043FC10BD5682FF1F70B505460E46012001462A0C4FF4804301F044FC094C2070A278104631460123F3
:401DC000FFF724F8A078A9B245F68232FFF732F82078A178FEF7D2FF70BD00BF5682FF1F70B505460E46012001462A0C4FF4804301F042FC094C6070E278104631460123EF
:401E0000FFF704F8E078A9B245F68232FFF712F86078E178FEF7B2FF70BD00BF5682FF1F10B501F089FC022001F052FC002001F073FCFEF7D1FF084CA070FEF7CDFFE070FF
:401E4000064C20464FF47A61FFF7AAFF04F57A606421FFF7C5FF10BD5682FF1FD851000008B5054B1B7923B9FFF7DAFF0122024B1A71FFF781FF08BD5682FF1F10B5034C63
:401E80006368236000F046F8606010BD5C82FF1F014B1B681864704708ED00E04001C0B2014B1870704700BF00E400E00122014B1A60704700E100E00122014B1A60704784
:401EC00080E100E008B5FFF7F7FF0448FFF7E0FF0720FFF7E3FFFFF7E9FF08BD7D1E0000024B1A7842F080021A70704774650040014B1870704700BF87650040014B18785B
:401F0000704700BF67650040014B1860704700BF04650040024B1B78024B1868704700BF0465004044650040014B1868704700BF44650040014B1860704700BF2465004059
:401F4000014B1860704700BF3465004008B501E0FFF7EAFFFFF7D2FF10F0400FF8D108BD08B5134B1A7802F0F80242F001021A701A7802F0FC021A70FFF7E8FF4FF0FF307E
:401F8000FFF7D8FF4FF0FF30FFF7BEFF0020FFF7AFFFFFF7B3FF8020FFF7D2FFFEF782FE044B1A7842F010021A70FEF77FFE08BD746500409765004008B5054B1B7823B934
:401FC000FFF7CEFF0122024B1A70FFF789FF08BD6482FF1FF8B5FEF765FE07463C4B1A7842F001021A7010331A7842F001021A70012603F5E75308331E700225943B1D707A
:4020000007331A7802F07F021A700020FEF738FF304C237803F0F90323702F4B1A7802F0DF021A702378334323703046FEF728FF2820FEF725FF294B1A7802F07F021A70EF
:402040001A7802F0BF021A7023782B4323702846FEF716FF237843F0040323700023204A1370013213703846FEF720FE17201D49FEF736FF17200721FEF746FF15201A49C6
:40208000FEF72EFF15200721FEF73EFF18201749FEF726FF18200721FEF736FF04201449FEF71EFF04200721FEF72EFF05201149FEF716FF05200721FEF726FF06200E49C5
:4020C000FEF70EFF06200721FEF71EFFF8BD00BFA54300409443004012600040F851004084600040212900001D290000F92600006D280000A5280000DD28000008B51D4B31
:402100004FF400021A604FF080721A6010221A6020221A6040221A600022174B1A7011B1012904D007E00222144B1A7006E00322124B1A7002E00322104B1A70104B18706E
:402140000023104A1370104A1370104A1370104A1370104A1370104A137003220F4B1A708022203B1A700120FEF792FD04220C4B1A7008BD00E100E04283FF1F09600040C0
:402180003D83FF1F5B83FF1F5083FF1F5883FF1F5A83FF1F5D83FF1F3C83FF1F286000401260004038B505460C46064B1B7823B9FFF710FF0122034B1A7028462146FFF7F6
:4021C0009DFF38BD6582FF1F00230A4A13700A4A13700A4A13700A4A13700A4A13700A4A13700A4A13700322094B1A708022203B1A7070474283FF1F5B83FF1F5083FF1F34
:402200005883FF1F5A83FF1F5D83FF1F3C83FF1F2860004070B4461EF6B2072E38D83601F6B21C4D354400EB40039B001A4C2344DB889BB2C3F500739A4207D900EB400376
:402240009B002344DA88C2F5007292B200EB40039B00114C2344DC7844EA12240F4BF454D4B20133F45429B907E0CC5C2C7001339BB200E000239342F7D3074A41000B183F
:402280009B00134400245C705A79D2B2044BF25470BC7047886000406083FF1F0C6000400E6000400246002001E0013080B2135C002BFAD1704700BF08B51F4B1B7813F0A6
:4022C000800F0CD01D4B1B78DBB2212B2ED11C4B07221A801B4A5A6000F078FA08BD164B1B7813F0800F23D1144B1B78DBB2202B02D0222B0DD01DE0114B07221A80114A79
:402300005A60114B1A7842F001021A7000F088FA08BD0E4B1A78D2B20D4B1A800A4B1A7842F002021A7000F015F908BD002008BD002008BD002008BD006000400160004044
:402340004483FF1F9081FF1F3883FF1F026000403683FF1F2DE9F8438046FFF7A3FF064600271F4C1F4D237803EB43039B002B441B899BB2B34209D2237803EB43039B00FA
:402380002B44B3F808901FFA89F900E0B146207808EB07014A46FFF73DFFC9EB0606B6B246B9237803EB43039B002B441B899BB2994510D14F44BFB2237803EB43039B0086
:4023C0002B445B7813F0FF0FF6D026B9207800210A46FFF71FFF002EC5D1BDE8F88300BF3583FF1F6083FF1F044B1B7803EB43039B00034A13445878704700BF3583FF1FDD
:402400006083FF1F1D4B19781D4B1A880A4492B21A8000221B4B10E002F1804101F5C04158680078C0B208705968013159600132D2B21988013989B21980198889B209B17F
:40244000072AE9D90D4B1B78DBB2082B00D05AB10D4B197881F0800119700F210B4B197002210B4B197004E0022308490B7008490B70024B1A70074B1A7070473C83FF1F86
:402480003E83FF1F4483FF1FCE83FF1F5983FF1F4283FF1F5C83FF1F0222074B1A708022064B1A700F22064B1A700023054A1370054A1370012070474283FF1FCE83FF1F95
:4024C0005983FF1F3C83FF1F5C83FF1F08B5FFF799FF08BD10B4194B197801F00F010239C9B2174B1A880A4492B21A800020154B12E05C6800F1804202F5C0421278D2B268
:4025000022705A6801325A600130C0B20139C9B21A88013A92B21A801A8892B20AB10029E7D1094B1970094B1A7882F080021A700B22074B1A705DF8044B70472960004057
:402540003E83FF1F4483FF1F5C83FF1FCE83FF1F5983FF1F0623064A1370064A13708022054B1A700022054B1A700120704700BF4283FF1F5983FF1FCE83FF1F5C83FF1F0A
:40258000064B9B6843B1054B9A6810709A6804490988518000229A60704700BF4483FF1F3E83FF1F08B5134B1A78D2B21A701B78DBB213F0800F02D00F4A137008BD0220F8
:4025C000FFF7DEFF0D4B1B7803F06003202B05D0402B06D043B900F0E7FC06E001F0C0F803E000F0ABFE00E0002010B90322024B1A7008BD286000405983FF1F00600040A0
:4026000008B5084B1978084B1A880A4492B21A800022064B1A700120FFF7B2FF0322044B1A7008BD3C83FF1F3E83FF1F4283FF1F5983FF1F08B50B4B1B78DBB2042B06D07F
:40264000062B07D0022B0BD1FFF7DAFF08BDFFF741FF08BD0320FFF793FF0322024B1A7008BD00BF4283FF1F5983FF1F08B50022044B1A700120FFF783FF0322024B1A7065
:4026800008BD00BF4283FF1F5983FF1F08B50B4B1B7813F0FF0F07D0084B197841F08001074A117000221A700022064B1A700120FFF766FF0322044B1A7008BD5A83FF1FE0
:4026C000086000404283FF1F5983FF1F08B5094B1B78DBB2042B06D0062B07D0022B07D1FFF7F4FE08BDFFF7C1FF08BDFFF7CEFF08BD00BF4283FF1F08B5264B1B78DBB272
:4027000013F0100F45D013F0800F0CD003F00F03012B16D1FFF746FF1F4B1B7813F0800F11D1012312E013F0400F03D0FFF7CEFF01230BE013F0200F07D0FFF77BFF012386
:4027400004E0002302E0002300E000230BB3114B1B7813F0800F1CD1104B1B78104A12781343104A13701278D2B29A4211D10A4B08491A78D2B2087810F0800F05D11A781A
:40278000D2B20A700A7802F00F021878C0B28242EFD108BD286000405983FF1FCE83FF1F5C83FF1F296000400022064B1A80064B9B682BB1044A916800230B709268538065
:4027C000704700BF3E83FF1F4483FF1F08B5104B1B889BB213B9FFF75FFE16E002220D4B1A7000220C4B1A70FFF7DEFF0B4B1A78013B1B7843EA0223054A128892B29A4294
:4028000001D9034A1380FFF7FDFD012008BD00BF4483FF1F4283FF1FCE83FF1F0760004008B504220C4B1A7080220C4B1A70FFF7BBFF0B4B1A78013B1B7843EA0223094A18
:40284000128892B29A4201D9064A13800B22064B1A70012008BD00BF4283FF1FCE83FF1F076000404483FF1F5983FF1F0A4B1B780A4B1B7B03F00303012B04D0074BDA7BE9
:4028800082F08002DA730122044B5A73044B1A7802F0FE021A7070470E6000406083FF1F0B6000400A4B1B780A4B1B7E03F00303012B04D0074BDA7E82F08002DA7601224A
:4028C000044B5A76044B1A7802F0FD021A7070471E6000406083FF1F0B6000400C4B1B780C4B93F8243003F00303012B06D0094B93F8272082F0800283F827200122054BD2
:4029000083F82520044B1A7802F0FB021A7070472E6000406083FF1F0B600040704700BF08B5FFF751FC08BD30B484B00446144B0FCB04AD05E90F00F4B122232370032325
:4029400063700022022315E002F1924191F80011C9B20132D2B204AD05EB111010F8100CE054981C01F00F01294411F8101C21540433DBB2212BE7D904B030BC704700BFEA
:40298000DC6100002DE9F00F002001224FF00C0C2F4DDFF8C8B0DFF8C8A0DFF8C8904DE0034600F1804101F5C14181F800C0144602EB420189002944497911F0FF0F0ED06A
:4029C00002EB420189002944097911F0800F02D000F80BC006E0082100F80B1002E0802100F80B1066003119890029440F89C7F3072703F80A700F89FFB203F80970CF88A3
:402A0000FFB2DFF8648003F80870CF88C7F3072708F1010803F80870C988C9B20D4FD955311989002944C988C1F30721A8F1020803F808100132D2B21030C0B210F0800F92
:402A4000AED0FF22044B1A70BDE8F00F704700BF6083FF1F846000400A6000400E6000400C6000400D60004086600040084B1A78084B03EBC2035B6803F108021B7A8342C2
:402A800003D902EBC000406870470020704700BF3D83FF1F2C6200002DE9F84F5D4B1B7813F0FF0F00F0B3805A4B18780138C0B2FFF7DCFF047AC36800225749574FDFF8C7
:402AC00068A1A1E018780E5C554D2D5CF6B2AE4200F097800E5CF6B25D78AE4240F091803D78EDB2A84240F08C80987800F07F056E1E3601F6B293F803C00CF0030C10F0AE
:402B0000800F19D005EB45008000DFF8208140444FF0010880F80180C44502D14FF0070C01E04FF00D0C05EB45008000DFF8FC80404480F805C019E005EB45008000DFF876
:402B4000EC8040444FF0000880F80180BCF1010F02D14FF0050C01E04FF0090C05EB45008000DFF8C880404480F805C0012006F80A00B3F804B0DFF8B48005FA00F909EBFC
:402B8000050C4FEA8C0C08EB0C00A0F808B093F802B080F804B093F803B008F80CB04FF0000C80F803C0B0F808C0CCF3072CDFF880B006F80BC0B0F808C05FFA8CFC0BF17C
:402BC000010B06F80BC0B0F806C05FFA8CFC0BF1790B06F80BC0B0F806C0CCF3072C0BF1010B06F80BC0C088C0B2DFF848C006F80C004D44AD004544E888C0F30720094D2D
:402C0000705508330132D2B2A242FFF45BAFBDE8F88F00BF5B83FF1FCC83FF1F046000404083FF1F856000400E6000406083FF1F0C60004084600040034B1A78034B03EB63
:402C4000C2035868704700BF3D83FF1F2C62000008B5074B18780138C0B2FFF707FF28B14268127900EBC203586908BD002008BD5B83FF1F2DE9F84F00226D4D13460EE002
:402C80005600B418A40029192B558B704B70CB704B710B81214629448B720132D2B2082AEED928B90AE0C254CA540133DBB203E0002360481A466049012BF4D95F4B1B7825
:402CC00013F0FF0F00F0B1805C4B18780138C0B2FFF7CCFE4368DB7913F0400F05D0584B1A7842F001021A7004E0554B1A7802F0FE021A70047A01214FF000084C4EDFF8FC
:402D000034C14FF009098A4665E0C368424601EB4107BF0001EB410E06EB8E0E57E09D7805F07F05A9424FD1F519B5F808B01FFA8BFB9D88AB4503D206EB070BABF8085000
:402D40001D781CF805B05FFA8BFB5D78AB453BD1DD7805F0030593F902B0BBF1000F17DA8EF801A0012D02D14FF0070B01E04FF00D0B8EF805B093F806B0BBF10A0F02D045
:402D8000BBF1020F1AD1032D18D02E4D297015E08EF80180012D02D14FF0050B00E0CB468EF805B093F806B0BBF10A0F02D0BBF1020F03D1032D01D0234D29709D788EF8B9
:402DC0000450DD788EF8005008330132D2B2A242A5D30131C9B2082997D9C1680022144D0BE08B7803F07F0311F8080B03EB43039B002B4498720132D2B2A242F1D3FFF7F0
:402E000027FF124B186000200123094C09E05A00D11889002144C8800A89104480B20133DBB2082BF3D9FFF7ADFDBDE8F88F00BF6083FF1FCC83FF1F4083FF1F5B83FF1FED
:402E40005D83FF1F3583FF1F3483FF1F5483FF1F38B5144B1B7803F07F035A1ED2B21101C9B2072A1CD810485C00E21892000244957845F0010595700025D570557845F073
:402E800002055570137913F0800F03D08D22074BCA5402E08922054BCA54FFF75BFB38BD002038BD046000406083FF1F0E60004010B5244B1B7803F07F035A1ED2B2110148
:402EC000C9B2072A3BD85A001A4492001E480244907800F0FE0090700020D0701B480C5C04F07F040C54507800F0FD005070127912F0800F10D003EB43039B00124A134432
:402F00005B78DBB2012B03D10C22114BCA5413E00D220F4BCA540FE003EB43039B000A4A13445B78DBB2012B03D10822084BCA5402E00922064BCA54FFF70CFB10BD002025
:402F400010BD00BF046000406083FF1F0C6000400E60004010B50F4B1C78E4B20E4B18780138C0B2FFF782FD43681B799C420CD2012C0CD8094B195DC9B2094A1155094A17
:402F80001278D2B21A55012010BD002010BD002010BD00BF046000405B83FF1FCC83FF1F4083FF1F0260004010B50022994B1A80994B1B7813F0800F00F0B980974B1B7871
:402FC000DBB20A2B00F29181DFE813F073008F018F018F018F018F010B008F019E008F01A6008F4B1B78DBB2012B09D1FFF724FE4268884B5A6012221A80FFF7E7FB10BDCD
:40300000874B1B78DBB2022B16D103F1804303F5C0431878FFF72AFD002800F0688142687C4B5A605A68D1785A68927842EA01221A80FFF7CBFB10BD794B1B78DBB2032BA4
:4030400005D033E019780B440132D2B202E00022744B75480178C9B2914203D9197811F0FF0FEFD1704A1278D2B2EE2A00D16F4B6D4A127812F0FF0F0BD06B4A1178C9B2FE
:403080006B4A127C914204D16A4C2046FFF74CFC23461A7812F0FF0F00F02B811978C9B25C4A11805360FFF791FB10BD00F058FB10BD594B1B7813F0030317D0022B40F04B
:4030C0001A81544A13805C4B1B7803F07F0303EB43039B0059490B449978C9B2584B1970002159705360FFF771FB10BD494A02231380544B1978C9B2514B1970002159700C
:403100005360FFF763FB10BD424B01221A804E4A5A60FFF75BFB10BD3E4B01221A80464A12784A490A445A60FFF750FB10BD3B4B1B78013B0A2B00F2E080DFE813F0470010
:40314000DE00A300DE000B00DE00DE00DE001300DE003000344B1A78D2B23D4B1A70FFF7F9F910BD304B1B7803F0FF041BB1601EC0B2FFF77BFC04B110B9002C40F0BF8088
:40318000314B1B78DBB29C4206D02F4B1C700120304B1870FFF76EFDFFF7DCF910BDFFF7D9FE002800F0AD80234B1C78E4B22A4B1C700122274B1A70FFF76EFC234B1A5D8D
:4031C000D2B2264B1A55FFF7C5F910BD124B1B7803F00303012B43D073B1022B40F0938003F1804303F5C0431B7813F0FF0F40F08C80FFF75DFE10BD0B4B1B78DBB2012BDC
:4032000040F085800F4B1A7802F0FD021A70FFF7A1F910BD4483FF1F0060004001600040036000408C620000026000401862000070630000D483FF1F046000406083FF1FD5
:403240006882FF1F5D83FF1F5B83FF1FCC83FF1F5A83FF1F5883FF1F5083FF1F4083FF1F314B1B78DBB2012B53D82F4B1B78DBB22E4AD15C2E48007821EA0001D154FFF7D2
:4032800069F910BD2B4B1B7803F00303012B1AD063B1022B3FD103F1804303F5C0431B7813F0FF0F39D1FFF7D3FD10BD204B1B78DBB2012B33D1204B1A7842F002021A700B
:4032C000FFF748F910BD184B1B78DBB2012B28D8154B1B78DBB2154AD15C1548007821EA0001D154FFF736F910BD002010BD002010BD002010BD002010BD002010BD002056
:4033000010BD002010BD002010BD002010BD002010BD002010BD002010BD002010BD002010BD002010BD00BF04600040D083FF1F02600040006000405D83FF1F08B50B4B44
:403340001B7813F0800F0CD0094B1B78DBB2012B09D1084B084A5A6012781A80FFF736FA08BD002008BD002008BD00BF00600040016000404483FF1FF0610000054B1A7882
:4033800042F002021A7010331A7842F002021A70704700BFA2430040024B1A7842F080021A70704771640040014B1880704700BF00680040014B1880704700BF80680040B0
:4033C000014B1880704700BF4068004008B50E4B1A7802F0C00242F009021A701F331A7842F001021A7001331A7842F001021A7040F2CF70FFF7D8FF40F2CF70FFF7DAFFC2
:403400007F20FFF7DDFF08BD7164004008B5054B1B7823B9FFF7DAFF0122024B1A70FFF7BBFF08BD6C82FF1F0022014B1A6070477C82FF1F014B1B685864704708ED00E0A9
:403440004001C0B2014B1870704700BF01E400E00222014B1A60704700E100E00222014B1A60704780E100E008B5FFF7F7FF0448FFF7E0FF0720FFF7E3FFFFF7E9FF08BDDA
:403480002934000008B500F0BBF858B100F0A8F840B100F0ADF828B1FDF71CFD0122034B1A6008BD0022014B1A6008BD9882FF1F014B1B689864704708ED00E04001C0B2AB
:4034C000014B1870704700BF02E400E00422014B1A60704700E100E00422014B1A60704780E100E008B5FFF7F7FF0448FFF7E0FF0720FFF7E3FFFFF7E9FF08BD853400004F
:40350000024B1A7842F080021A70704775640040014B1870704700BF86640040014B1878704700BF6664004008B50146014800F06DF808BD24640040024B186820F07F4003
:40354000704700BF4464004008B50146014800F05DF808BD04640040400100F06002044B197801F09F01197019780A431A7070477564004008B501E0FFF7DEFFFFF7CEFFF5
:4035800010F0080FF8D108BD10B50C4C2046FFF7CBFF2046FFF7D8FF8020FFF7DDFFFDF781FB074B1A7842F010021A70FDF77EFBFFF7E0FF0020FFF7ABFF10BD9F86010067
:4035C0009664004008B5054B1B7823B9FFF7DCFF0122024B1A70FFF793FF08BD6D82FF1F024B1878C0F38010704700BFC1510040024B1878C0F38010704700BF6151004080
:40360000014B1878C0097047C1510040CBB20370C1F307234370C1F307418170704700BF054B1A7842F004021A7010331A7842F004021A70704700BFA2430040F0B583B04A
:4036400086460F4616461D460A4C0023237000930193184671463A46FDF79CFB207831462A46FDF771FB20780221FDF75BFB207803B0F0BD9881FF1FF0B583B086460F460B
:4036800016461D460A4C0120207000230093019371463A46FDF77EFB207831462A46FDF753FB20780221FDF73DFB207803B0F0BD9981FF1F054B1A7842F004021A70103397
:4036C0001A7842F004021A70704700BFA8430040054B1A7802F0FD021A701A7800F0020002431A70704700BF28580040014B1870704700BF825B0040054B1B78C3F381036B
:4037000003F1924393F82E21D2B2024B1A707047285800400A46004008B5064B1A7802F0F3021A701A7800F00C0002431A70FFF7E3FF08BD2858004008B50020074B187002
:403740000133187003F26E231A7842F008021A70FFF7E2FF0220FFF7BBFF08BD2858004008B5124B1B7803F00303012B02D0022B04D00FE00E4B1B78DBB20CE00C4B1B789E
:4037800003F07F0303EB43039B000A4A13449B78DBB200E00023084A1268D35C022B02D1FEF78AFD08BD002008BD00BF00600040046000406883FF1F5483FF1FF7B5019315
:4037C000194B041C1B7883422CD9184B184F1B6808261954396800230B54164B16491B6809681B5C8025CA54420000923968201C0B191A782A431A70FEF744F8FEF746F82D
:403800000028FBD10D4B009A1B6801999B5A8B4204D23A6813191A78AA431A70013E6D08002EE3D1F7BDC0465D81FF1F6C81FF1F7081FF1F8081FF1F8481FF1F6881FF1F67
:4038400070B5194DFF232B54184B0F221B68041C1E5C174BFFF7B2FF164A174B10881B5D311C584300F07EF980B2802804D92B5D40085B082B55F8E7104BC0B21855104B63
:403880001049800818556200002353520E490F4853520F490968095DFF2444540D4843540D4909688B5270BD0883FF1F7081FF1F980D00006081FF1FB85100002483FF1F6C
:4038C0002C83FF1FEC82FF1F1083FF1F0483FF1F8081FF1F2083FF1F6481FF1F1E4BF7B51A681E4E43001E4C9A5A9F5B195BBD1AADB20191891A6940090429D5002D27D0E1
:40390000019D1F53511B89B28DB22CB2002C01DA4D42ADB21349EDB20F5C79088D4217DA114C215C8D4206DD104D00260131FF082E54C9190BE08D420AD00C4D2F5C092FBB
:4039400002D801372F5403E000272F54013921540249CA52F7BDC0466881FF1FEC82FF1F1083FF1F2483FF1F2C83FF1FFC82FF1F70B5264B051C1B681C5CFFF7AFFF244B1E
:40398000595D244B48005A5DC0B2234B824204D9185D904205D91A5503E01E5D864200D9185548080918C8B29208011C904200D2111C1A4AC8B2165D864200D2115518493D
:4039C0000968085D17490968095D4118013989B28D421AD11449185D0D6828551348155D0668355500680E680019355D06786D08AE4200D3057009680D48095D00688908D0
:403A00000155FF2119550023135570BD8081FF1F2C83FF1F2483FF1F0483FF1F2083FF1F7881FF1F7C81FF1F7481FF1F8C81FF1F8881FF1FF7B50022224B1B7893423FD981
:403A4000214C2248267800230768B446191CDDB265450BD2FD5C954206D11D4DEE5C351C8E4200D20D1CE9B20133F0E7194B1B68995424780068019400900023019CD8B236
:403A8000A0421AD2009CE05C904214D1124CE05C0F4D5D192F78B94206D901267F003743B0402F7080B2F3E7FF25071CAF4301D0E55400E0E0540133E0E70132D2B2BBE756
:403AC000F7BDC0465C81FF1F5E81FF1F8081FF1F0883FF1F8481FF1F2483FF1F38B5FDF7E7FE0024194B1A781D1CA2420AD9184B01221978D923201C93400134FFF75EFEDB
:403B0000E4B2EFE70023134A12789A420BD91249124A09681248C95C1268C908415CD1540133DBB2EFE7FDF7BDFE00242B78A34208D90A4B201C1B68195D0134FFF780FE95
:403B4000E4B2F3E7FFF776FF38BDC0465D81FF1F6281FF1F5E81FF1F7081FF1F6C81FF1F98510000002902D0B0FBF1F0704708B14FF0FF3000F008B80029F8D00246B0FB79
:403B8000F1F000FB11217047704700BF81F0004102E000BF83F0004330B54FEA41044FEA430594EA050F08BF90EA020F1FBF54EA000C55EA020C7FEA645C7FEA655C00F041
:403BC000E2804FEA5454D4EB5555B8BF6D420CDD2C4480EA020281EA030382EA000083EA010180EA020281EA0303362D88BF30BD11F0004F4FEA01314FF4801C4CEA113158
:403C000002D0404261EB410113F0004F4FEA03334CEA133302D0524263EB430394EA050F00F0A780A4F10104D5F1200E0DDB02FA0EFC22FA05F2801841F1000103FA0EF26B
:403C4000801843FA05F359410EE0A5F120050EF1200E012A03FA0EFC28BF4CF0020C43FA05F3C01851EBE37101F0004507D54FF0000EDCF1000C7EEB00006EEB0101B1F565
:403C8000801F1BD3B1F5001F0CD349085FEA30004FEA3C0C04F101044FEA445212F5800F80F09A80BCF1004F08BF5FEA500C50F1000041EB045141EA050130BD5FEA4C0CB6
:403CC000404141EB010111F4801FA4F10104E9D191F0000F04BF01460020B1FA81F308BF2033A3F10B03B3F120020CDA0C3208DD02F1140CC2F10C0201FA0CF021FA02F1E0
:403D00000CE002F11402D8BFC2F1200C01FA02F120FA0CFCDCBF41EA0C019040E41AA2BF01EB0451294330BD6FEA04041F3C1CDA0C340EDC04F11404C4F1200220FA04F09E
:403D400001FA02F340EA030021FA04F345EA030130BDC4F10C04C4F1200220FA02F001FA04F340EA0300294630BD21FA04F0294630BD94F0000F83F4801306BF81F48011FE
:403D80000134013D4EE77FEA645C18BF7FEA655C29D094EA050F08BF90EA020F05D054EA000C04BF1946104630BD91EA030F1EBF0021002030BD5FEA545C05D1400049419F
:403DC00028BF41F0004130BD14F580043CBF01F5801130BD01F0004545F0FE4141F470014FF0000030BD7FEA645C1ABF194610467FEA655C1CBF0B46024650EA013406BF7C
:403E000052EA033591EA030F41F4002130BD00BF90F0000F04BF0021704730B54FF4806404F132044FF000054FF0000150E700BF90F0000F04BF0021704730B54FF480646E
:403E400004F1320410F0004548BF40424FF000013EE700BF42004FEAE2014FEA31014FEA02701FBF12F07F4393F07F4F81F06051704792F0000F14BF93F07F4F704730B594
:403E80004FF4607401F0004521F0004120E700BF50EA010208BF704730B54FF000050AE050EA010208BF704730B511F0004502D5404261EB41014FF4806404F132045FEA67
:403EC000915C3FF4DCAE4FF003025FEADC0C18BF03325FEADC0C18BF033202EBDC02C2F1200300FA03FC20FA02F001FA03FE40EA0E0021FA02F11444C1E600BF70B54FF050
:403F0000FF0C4CF4E06C1CEA11541DBF1CEA135594EA0C0F95EA0C0F00F0DEF82C4481EA030621EA4C5123EA4C5350EA013518BF52EA033541F4801143F4801338D0A0FB16
:403F400002CE4FF00005E1FB02E506F00042E0FB03E54FF00006E1FB03569CF0000F18BF4EF0010EA4F1FF04B6F5007F64F5407404D25FEA4E0E6D4146EB060642EAC621EE
:403F800041EA55514FEAC52040EA5E504FEACE2EB4F1FD0C88BFBCF5E06F1ED8BEF1004F08BF5FEA500E50F1000041EB045170BD06F0004646EA010140EA020081EA0301B6
:403FC000B4EB5C04C2BFD4EB0C0541EA045170BD41F480114FF0000E013C00F3AB8014F1360FDEBF002001F0004170BDC4F10004203C35DA0C341BDC04F11404C4F12005AE
:4040000000FA05F320FA04F001FA05F240EA020001F0004221F0004110EBD37021FA04F642EB06015EEA430E08BF20EAD37070BDC4F10C04C4F1200500FA04F320FA05F0DD
:4040400001FA04F240EA020001F0004110EBD37041F100015EEA430E08BF20EAD37070BDC4F1200500FA05F24EEA020E20FA04F301FA05F243EA020321FA04F001F000411D
:4040800021FA04F220EA020000EBD3705EEA430E08BF20EAD37070BD94F0000F0FD101F00046400041EB010111F4801F08BF013CF7D041EA060195F0000F18BF704703F00D
:4040C0000046520043EB030313F4801F08BF013DF7D043EA0603704794EA0C0F0CEA135518BF95EA0C0F0CD050EA410618BF52EA4306D1D181EA030101F000414FF00000F2
:4041000070BD50EA410606BF1046194652EA430619D094EA0C0F02D150EA013613D195EA0C0F05D152EA03361CBF104619460AD181EA030101F0004141F0FE4141F4700121
:404140004FF0000070BD41F0FE4141F4780170BD70B54FF0FF0C4CF4E06C1CEA11541DBF1CEA135594EA0C0F95EA0C0F00F0A7F8A4EB050481EA030E52EA03354FEA013123
:4041800000F088804FEA03334FF0805545EA131343EA12634FEA022245EA111545EA10654FEA00260EF000419D4208BF964244F1FD0404F5407402D25B084FEA3202B61AC4
:4041C00065EB03055B084FEA32024FF480104FF4002CB6EB020E75EB030E22BFB61A754640EA0C005B084FEA3202B6EB020E75EB030E22BFB61A754640EA5C005B084FEA11
:404200003202B6EB020E75EB030E22BFB61A754640EA9C005B084FEA3202B6EB020E75EB030E22BFB61A754640EADC0055EA060E18D04FEA051545EA16754FEA06164FEABC
:40424000C30343EA52734FEAC2025FEA1C1CC0D111F4801F0BD141EA00014FF000004FF0004CB6E711F4801F04BF01430020B4F1FD0C88BFBCF5E06F3FF6AFAEB5EB030C63
:4042800004BFB6EB020C5FEA500C50F1000041EB045170BD0EF0004E4EEA113114EB5C04C2BFD4EB0C0541EA045170BD41F480114FF0000E013C90E645EA060E8DE60CEA63
:4042C000135594EA0C0F08BF95EA0C0F3FF43BAF94EA0C0F0AD150EA01347FF434AF95EA0C0F7FF425AF104619462CE795EA0C0F06D152EA03353FF4FDAE1046194622E7DC
:4043000050EA410618BF52EA43067FF4C5AE50EA41047FF40DAF52EA43057FF4EBAE12E74FEA410212F5001215D211D56FF47873B3EB625212D94FEAC12343F0004343EAD6
:40434000505311F0004F23FA02F018BF404270474FF00000704750EA013005D111F0004008BF6FF0004070474FF00000704700BF80F0004002E000BF81F0004142001FBFBE
:404380005FEA410392EA030F7FEA226C7FEA236C6AD04FEA1262D2EB1363C1BFD218414048404140B8BF5B42192B88BF704710F0004F40F4000020F07F4018BF404211F0E3
:4043C000004F41F4000121F07F4118BF494292EA030F3FD0A2F1010241FA03FC10EB0C00C3F1200301FA03F100F0004302D5494260EB4000B0F5000F13D3B0F1807F06D398
:4044000040084FEA310102F10102FE2A51D2B1F1004F40EBC25008BF20F0010040EA03007047490040EB000010F4000FA2F10102EDD1B0FA80FCACF1080CB2EB0C0200FA47
:404440000CF0AABF00EBC25052421843BCBFD0401843704792F0000F81F4000106BF80F400000132013BB5E74FEA41037FEA226C18BF7FEA236C21D092EA030F04D092F0EB
:40448000000F08BF0846704790EA010F1CBF0020704712F07F4F04D1400028BF40F00040704712F100723CBF00F50000704700F0004343F0FE4040F4000070477FEA22625A
:4044C00016BF08467FEA23630146420206BF5FEA412390EA010F40F4800070474FF0000304E000BF10F0004348BF40425FEA000C08BF704743F0964301464FF000001CE0A6
:4045000050EA010208BF70474FF000030AE000BF50EA010208BF704711F0004302D5404261EB41015FEA010C02BF84460146002043F0B64308BFA3F18053A3F50003BCFAFC
:404540008CF2083AA3EBC25310DB01FA02FC634400FA02FCC2F12002BCF1004F20FA02F243EB020008BF20F00100704702F1200201FA02FCC2F1200250EA4C0021FA02F23F
:4045800043EB020008BF20EADC7070474FF0FF3C06E000BF4FF0010C02E000BF4FF0010C4DF804CD4FEA40024FEA41037FEA226C18BF7FEA236C11D001B052EA530C18BFC7
:4045C00090EA010F58BFB2EB030088BFC81738BF6FEAE17018BF40F0010070477FEA226C02D15FEA402C05D17FEA236CE4D15FEA412CE1D05DF8040B704700BF8446084699
:404600006146FFE70FB5FFF7C9FF002848BF10F1000F0FBD4DF808EDFFF7F4FF0CBF012000205DF808FB00BF4DF808EDFFF7EAFF34BF012000205DF808FB00BF4DF808ED7C
:40464000FFF7E0FF94BF012000205DF808FB00BF4DF808EDFFF7D2FF94BF012000205DF808FB00BF4DF808EDFFF7C8FF34BF012000205DF808FB00BF4FEA4002B2F1FE4F61
:404680000FD34FF09E03B3EB12620DD94FEA002343F0004310F0004F23FA02F018BF404270474FF00000704712F1610F01D1420205D110F0004008BF6FF0004070474FF00F
:4046C0000000704742000ED2B2F1FE4F0BD34FF09E03B3EB126209D44FEA002343F0004323FA02F070474FF00000704712F1610F01D1420202D14FF0FF3070474FF00000F6
:40470000704700BF014B1868704700BFFC81FF1F70B50E4B0E4D0024ED1AAD101E46AC4204D056F8242090470134F8E701F046FE084D094B0024ED1AAD101E46AC4204D0D6
:4047400056F8242090470134F8E770BDC8630000C8630000D0630000C863000010B50023934203D0CC5CC4540133F9E710BD02440346934202D003F8011BFAE77047000045
:404780000EB400B54FF402719CB0ADF814106FF00041049107914FF6FF711DABADF81610084953F8042B02900690086802A9019300F066F8029B00221A701CB05DF804EB59
:4047C00003B07047FC81FF1F2DE9F0478D688146AB420C4692461F4643D38B8913F4906F3DD0266809690222C1EB0608666906EB460696FBF2F608F101023A44964238BF46
:4048000016465B050FD5314600F01AFB054698B121694246FFF7A2FFA38923F4906343F08003A38113E0324600F05EFB054670B94846216900F0C0FA0C23C9F80030A389D9
:404840004FF0FF3043F04003A381BDE8F087256166614544C8EB06062560A6603D46AF4200D23D462A462068514600F089FAA36800205B1BA36023681D442560BDE8F087F8
:404880002DE9F0439DB003938B8907461C060D4616460CD50B6953B9402100F0D1FA2860286110B90C233B60C7E040236B610023099320238DF8293030238DF82A30334618
:4048C0001C4613F8012B1AB9B4EB06090FD002E0252AF5D1F8E73846294632464B46FFF773FF013000F0A480099B4B4409932378002B00F09D8000234FF0FF3204930793E0
:40490000059206938DF853301A9304F101094D4E4C4630462178052200F024FA09F10109049B28B1861B0120B04003430493EEE7D90644BF20228DF853201A0744BF2B22B5
:404940008DF8532022782A2A02D0079B21460EE0039A111D12680391002A01DB079204E0524243F002030792049301340AE00C4622780131303A092A03D80A2000FB032330
:40498000F5E7079323782E2B19D163782A2B09D1039B02341A1D1B680392002BB8BF4FF0FF330BE0611C00230C4622780131303A092A03D80A2000FB0323F5E70593224E13
:4049C00021783046032200F0CDF930B1861B4020B040049B01340343049321781B480622661C8DF8281000F0BDF988B1184B33B9039B073323F007030833039314E003AB51
:404A00000093384604A92A46124BAFF3008007E003AB0093384604A92A460E4B00F08EF8B0F1FF3F804603D0099B4344099346E7AB895B0601D4099801E04FF0FF301DB0A4
:404A4000BDE8F083866300008C6300009063000000000000C94700002DE9F84315461F468A680B6906469A42A8BF13462B6091F843200C46DDF820800AB101332B602368A1
:404A8000990602D52B6802332B60236813F006091DD094F843302268003318BF012392061FD5E118302081F843005A1C94F845102244023382F8431013E03046394604F1BF
:404AC00019020123C047013007D009F10109E2682B68D31A9945F0DBDBE74FF0FF30BDE8F8833046394604F14302C0470130F4D023682A6803F00603E168042B08BFC2EB71
:404B000001052369A2680CBF25EAE57500259A42C4BFC3EB0203ED184FF00009A9450ADA3046394604F11A020123C0470130D4D009F10109F2E70020BDE8F8832DE9FF47D0
:404B40000E7E80466E2E0C4691469A460C9D01F1430000F0A58011D8632E22D009D8002E00F0AF80582E40F0BF8081F845607B4A4FE0642E1ED0692E1CD0B5E0732E00F081
:404B8000A48009D86F2E2BD0702E40F0AD800B6843F020030B6038E0752E21D0782E34D0A2E02B6801F142071A1D1B682A6081F842309DE022682B6812F0800F03D01A1D1F
:404BC0002A601D6805E05106F9D51A1D2A60B3F90050002D39DA2D236D4284F8433034E022682B6812F0800F03D01A1D2A601D6804E05206F9D51A1D2A601D88237E574A24
:404C00006F2B14BF0A2308231BE07823544A84F845302368296813F0800F01F104062E6001D00D6802E05F06FBD50D88DE0744BF43F0200323601DB9236823F02003236085
:404C40001023002184F8431001E0444A0A236668002EA66003DB216821F00401216005B96EB104F14201B5FBF3F603FB1655555D0F4601F801593546002EF4D100E0074669
:404C8000082B0AD12368DD0707D5626823699A4203DC302307F8013C013FC01B20612CE009682B6811F0800F626904D0191D29601B681A6005E04906F8D5191D29601B6821
:404CC0001A8000232361074617E02B681A1D2A601F68384600F03EF963682061984288BF23612369636005E004F1420784F8426001232361002384F84330CDF800A0404689
:404D0000214603AA4B46FFF7A7FE013002D14FF0FF301FE0404649463A462369D0470130F5D023689B0705D4E068039B9842B8BF18460FE00025E268039BD31A9D42F3DA64
:404D40004046494604F119020123D0470130DED00135F0E704B0BDE8F08700BF97630000A863000010B5C9B202449042034605D01C7801308C42F8D1184610BD002010BD69
:404D8000814270B501D300230EE08C18A042FAD28518134613F1FF3305D351426618F65C2944CE54F6E770BD934203D0CC5CC4540133F9E770BD000030B500293CD051F848
:404DC000042C0B1F1D49002AB8BF9B180A680C4612B95A600B6030BD93420DD219685818904203D15A581144426819605A60236030BD994203D80A4651680029F9D1146831
:404E000015199D420AD11B682344D0188842136012D10868034413604B680CE002D90C23036030BD18681C188C4203D10C684968204418605960536030BD00BF7482FF1FF2
:404E400070B5CD1C25F0030508350C2D38BF0C25002D06463FDB8D423DD3214B1C6818462146A1B10B685B1B0ED40B2B03D90B60CC18CD501FE08C4202D1626802601AE0E1
:404E80004B6863600C4616E00C464968E9E7154C23681BB9304600F04DF820602946304600F048F8431C014615D0C41C24F0030484420AD1256004F10B00231D20F007005E
:404EC000C31A0BD05A42E25070BD3046611A00F031F80130EED10C233360002070BD00BF7482FF1F7082FF1FF8B5064614460D4621B91146BDE8F840FFF7A2BF1AB9FFF73F
:404F00005BFF2046F8BD00F02DF8A0420ED230462146FFF795FF074650B129462246FFF71DFC30462946FFF747FF01E02846F8BD3846F8BD38B5064C0023054608462360B4
:404F4000FBF788FC431C02D1236803B12B6038BDF883FF1F034613F8012B002AFBD1181A0138704751F8040C002802DA04390B58184404387047000000000000484541522D
:404F800054204845414C5448204641494C45440A000000004D4F544F52204641494C45440A0000005553455220494E54455246414345204641494C45440A000053656C6550
:404FC000637420612070726F66696C652E2E0000526567756C6172202020000043617264696F202020200000466174204275726E2020000057656C636F6D6520746F2000E7
:405000004D792054726561646D696C6C00000000434F4D504F4E454E54204641494C4544000000002020444F204E4F54205553452121202000000000536C656570696E67CA
:405040002E2E2E0057656C636F6D6520746F206D792074726561646D696C6C210A0D00004552524F52210A004865617274726174653A20002020202020200000596F75729D
:40508000206865617274726174653A202569202020200D005C5100405C5100405C5100405C5100405C5100405C5100405C5100406C510040CB5A00409B5A00402040010226
:4050C000040810100110000000510040200030510040100000000140001000140140000800400140000A004C01400002005001402000000000000000000000001010101038
:405100001010101018181818181818181C1C1C1C1C1C1C1C1E1E1E1E1E1E1E1E1F1F1F1F1F1F1F1F0000000000000000000000000000000005050505050505002040010221
:40514000040810002D5000402E50004028500040295000402A5000402B5000402C500040065200400E520040165200401E520040265200402E520040365200407E52004016
:4051800001020000000000000200010005010100080000000019000001010102020203030304040404050505060606070707080808090909090A0A0A0404020202020200FD
:4051C0000111213141615363730000000809010105070704040000000606060606060606060606060606060606060606060606060606070707070707070707070707070754
:4052000007070707070707070707070707070707070707070707070707070707070707070707070707070707070707070707070707070707070707070707070707070707AE
:405240000707070707070707070707070707070707070707070707070708080808080808080808080808080808080808080808080808080808080808080808080808080847
:4052800008080808080808080808080808080808080808080808080808080808080808080808080808080808080808080808080808080808080808080808080808080808EE
:4052C0000808080909090909090909090909090909090909090909090909090909090909090909090909090909090909090909090909090909090909090909090909090971
:4053000009090909090909090909090909090909090909090909090909090909090909090909090909090909090909090909090909090909090A0A0A0A0A0A0A0A0A0A0A22
:405340000A0A0A0A0A0A0A0A0A0A0A0A0A0A0A0A0A0A0A0A0A0A0A0A0A0A0A0A0A0A0A0A0A0A0A0A0A0A0A0A0A0A0A0A0A0A0A0A0A0A0A0A0A0A0A0A0A0A0A0A0A0A0A0AAD
:405380000A0A0A0A0A0A0A0A0A0A0A0A0A0A0A0A0A0A0A0A0A0A0A0A0A0A0A0A0A0A0A0A0A0A0A0A0A0A0A0A0A0A0A0A0A0A0A0A0A0A0A0A0A0B0B0B0B0B0B0B0B0B0B0B62
:4053C0000B0B0B0B0B0B0B0B0B0B0B0B0B0B0B0B0B0B0B0B0B0B0B0B0B0B0B0B0B0B0B0B0B0B0B0B0B0B0B0B0B0B0B0B0B0B0B0B0B0B0B0B0B0B0B0B0B0B0B0B0B0B0B0BED
:405400000B0B0B0B0B0B0B0B0B0B0B0B0B0B0B0B0B0B0B0B0B0B0B0B0B0B0B0B0B0B0B0B0B0B0B0B0B0B0B0B0B0B0B0B0B0B0B0B0B0B0B0B0B0B0B0B0B0B0B0B0B0B0B0BAC
:405440000B0B0B0B0B0B0B0B0B0B0B0B0B0B0B0B0B0B0B0C0C0C0C0C0C0C0C0C0C0C0C0C0C0C0C0C0C0C0C0C0C0C0C0C0C0C0C0C0C0C0C0C0C0C0C0C0C0C0C0C0C0C0C0C3F
:405480000C0C0C0C0C0C0C0C0C0C0C0C0C0C0C0C0C0C0C0C0C0C0C0C0C0C0C0C0C0C0C0C0C0C0C0C0C0C0C0C0C0C0C0C0C0C0C0C0C0C0C0C0C0C0C0C0C0C0C0C0C0C0C0CEC
:4054C0000C0C0C0C0C0C0C0C0C0C0C0C0C0C0C0C0C0C0C0C0C0C0C0C0C0C0C0C0C0C0C0C0C0C0C0C0C0C0C0C0C0C0C0C0C0C0C0C0C0C0C0C0C0C0C0C0C0C0C0C0C0C0C0CAC
:405500000C0C0C0C0C0C0C0C0C0C0C0C0C0C0C0C0C0C0C0C0C0C0C0C0C0C0C0C0C0C0C0C0C0C0C0C0C0C0C0C0C0C0C0C0C0C0C0C0C0C0C0C0C0C0C0C0C0C0C0C0C0C0C0C6B
:405540000C0C0C0C0C0C0C0C0C0C0C0C0C0C0C0C0C0C0C0C0C0C0C0C0C0C0C0C0C0C0C0C0C0C0C0C0C0C0C0C0C0C0C0C0C0C0C0C0C0C0C0C0C0C0C0C0C0C0C0C0C0C0C0C2B
:405580000C0C0C0C0C0C0C0C0C0C0C0C0C0C0C0C0C0C0C0C0C0C0C0C0C0C0C0C0C0C0C0C0C0C0C0C0C0C0C0C0C0C0C0C0C0C0C0C0C0C0C0C0C0C0C0C0C0C0C0C0C0C0C0CEB
:4055C0000C0C0C0C0C0C0C0C0C0C0C0C0C0C0C0C0C0C0C0C0C0C0C0C0C0C0C0C0C0C0C0C0C0C0C0C0C0C0C0C0C0C0C0C0C0C0C0C0C0C0C0C0C0C0C0C0C0C0C0C0C0C0C0CAB
:405600000C0C0C0C0C0C0C0C0C0C0C0C0C0C0C0C0C0C0C0C0C0C0C0C0C0C0C0C0C0C0C0C0C0C0C0C0C0C0C0C0C0C0C0C0C0C0C0C0C0C0C0C0C0C0C0C0C0C0C0C0C0C0C0C6A
:405640000C0C0C0C0C0C0C0C0C0C0C0C0C0C0C0C0C0C0C0C0C0C0C0C0C0C0C0C0C0C0C0C0C0C0C0C0C0C0C0C0C0C0C0C0C0C0C0C0C0C0C0C0C0C0C0C0C0C0C0C0C0C0C0C2A
:405680000C0C0C0C0C0C0C0C0C0C0C0C0C0C0C0C0C0C0C0C0C0C0C0C0C0C0C0C0C0C0C0C0C0C0C0C0C0C0C0C0C0C0C0C0C0C0C0C0C0C0C0C0C0C0C0C0C0C0C0C0C0C0C0CEA
:4056C0000C0C0C0C0C0C0C0C0C0C0C0C0C0C0C0C0C0C0C0C0C0C0C0C0C0C0C0C0C0C0C0C0C0C0C0C0C0C0C0C0C0C0C0C0C0C0C0C0C0C0C0C0C0C0C0C0C0C0C0C0C0C0C0CAA
:405700000C0C0C0C0C0C0C0C0C0C0C0C0C0C0C0C0C0C0C0C0C0C0C0C0C0C0C0C0C0C0C0C0C0C0C0C0C0C0C0C0C0C0C0C0C0C0B0B0B0B0B0B0B0B0B0B0B0B0B0B0B0B0B0B7B
:405740000B0B0B0B0B0B0B0B0B0B0B0B0B0B0B0B0B0B0B0B0B0B0B0B0B0B0B0B0B0B0B0B0B0B0B0B0B0B0B0B0B0B0B0B0B0B0B0B0B0B0B0B0B0B0B0B0B0B0B0B0B0B0B0B69
:405780000B0B0B0B0B0B0B0B0B0B0B0B0B0B0B0B0B0B0B0B0B0B0B0B0B0B0B0B0B0B0B0B0B0B0B0B0B0B0B0B0B0B0B0B0B0B0B0B0B0B0B0B0B0B0B0B0B0B0B0B0B0B0B0B29
:4057C0000B0B0B0B0B0B0B0B0B0B0B0B0A0A0A0A0A0A0A0A0A0A0A0A0A0A0A0A0A0A0A0A0A0A0A0A0A0A0A0A0A0A0A0A0A0A0A0A0A0A0A0A0A0A0A0A0A0A0A0A0A0A0A0A1D
:405800000A0A0A0A0A0A0A0A0A0A0A0A0A0A0A0A0A0A0A0A0A0A0A0A0A0A0A0A0A0A0A0A0A0A0A0A0A0A0A0A0A0A0A0A0A0A0A0A0A0A0A0A0A0A0A0A0A0A0A0A0A0A0A0AE8
:405840000A0A0A0A0A0A0A0A0A0A0A0A09090909090909090909090909090909090909090909090909090909090909090909090909090909090909090909090909090909DC
:4058800009090909090909090909090909090909090909090909090909090909090909090909090909090909090909090909090909090909090909090909090909090808AA
:4058C00008080808080808080808080808080808080808080808080808080808080808080808080808080808080808080808080808080808080808080808080808080808A8
:40590000080808080808080808080808080808080808080808080808080808080808080808080808080808080707070707070707070707070707070707070707070707077F
:405940000707070707070707070707070707070707070707070707070707070707070707070707070707070707070707070707070707070707070707070707070707070767
:405980000707070707070707070707070707070606060606060606060606060606060606060606060606060606060606060606060606060606060606060606060606060658
:4059C0000606060606060606060606060606060606060606060606060606060606060606060606060606060606060606060606060606060606050505050505050505050532
:405A00000505050505050505050505050505050505050505050505050505050505050505050505050505050505050505050505050505050505050505050505050505050526
:405A40000505050505050505050505050505050505050505050505050505050505040404040404040404040404040404040404040404040404040404040404040404040409
:405A800004040404040404040404040404040404040404040404040404040404040404040404040404040404040404040404040404040404040404040404040404040404E6
:405AC00004040404040404040404040303030303030303030303030303030303030303030303030303030303030303030303030303030303030303030303030303030303DB
:405B000003030303030303030303030303030303030303030303030303030303030303030303030303030303030303030303030303030303030303030303030303030303A5
:405B400003030202020202020202020202020202020202020202020202020202020202020202020202020202020202020202020202020202020202020202020202020202A3
:405B80000202020202020202020202020202020202020202020202020202020202020202020202020202020202020202020202020202020202020202020202020202020265
:405BC0000202020202020202020202020202010101010101010101010101010101010101010101010101010101010101010101010101010101010101010101010101010157
:405C00000101010101010101010101010101010101010101010101010101010101010101010101010101010101010101010101010101010101010101010101010101010124
:405C400001010101010101010101010101010101010101010101010101010101010101010101010101010101010101010101010101010101010101010101010101010101E4
:405C800001010101010101010101010101010101000000000000000000000000000000000000000000000000000000000000000000000000000000000000000000000000D4
:405CC00000000000000000000000000000000000000000000000000000000000000000000000000000000000000000000000000000000000000000000000000000000000A4
:405D00000000000000000000000000000000000000000000000000000000000000000000000000000000000000000000000000000000000000000000000000000000000063
:405D40000000000000000000000000000000000000000000000000000000000000000000000000000000000000000000000000000000000000000000000000000000000023
:405D800000000000000000000000000000000000000000000000000000000000000000000000000000000000000000000000000000000000000000000000000000000000E3
:405DC00000000000000000000000000000000000000000000000000000000000000000000000000000000000000000000000000000000000000000000000000000000000A3
:405E00000000000000000000000000000000000000000000000000000000000000000000000000000000000000000000000000000000000000000000000000000000000062
:405E40000000000000000000000000000000000000000000000000000000000000000000000000000000000000000000000000000000000000000000000000000000000022
:405E800000000000000000000000000000000000000101010101010101010101010101010101010101010101010101010101010101010101010101010101010101010101B3
:405EC0000101010101010101010101010101010101010101010101010101010101010101010101010101010101010101010101010101010101010101010101010101010162
:405F00000101010101010101010101010101010101010101010101010101010101010101010101010101010101010101010101010101010101010101010101010101010121
:405F400001010101010101010101010101010101010101020202020202020202020202020202020202020202020202020202020202020202020202020202020202020202B4
:405F80000202020202020202020202020202020202020202020202020202020202020202020202020202020202020202020202020202020202020202020202020202020261
:405FC0000202020202020202020202020202020202020202020202020202020202020203030303030303030303030303030303030303030303030303030303030303030300
:4060000003030303030303030303030303030303030303030303030303030303030303030303030303030303030303030303030303030303030303030303030303030303A0
:406040000303030303030303030303030303030303030303030304040404040404040404040404040404040404040404040404040404040404040404040404040404040436
:4060800004040404040404040404040404040404040404040404040404040404040404040404040404040404040404040404040404040404040404040404040404040404E0
:4060C0000404040405050505050505050505050505050505050505050505050505050505050505050505050505050505050505050505050505050505050505050505050564
:40610000050505050505050505050505050505050505050505050505050505050505050505050505050505050505050506060606060606060606060606060606060606060B
:4061400006060606060606060606060606060606060606060606060606060606060606060606060606060606060606060606060606060606060606060000000000000000CF
:4061800000000000000000000000000000000000000000000000000000000000000000000000000000000000000000000000000000000000000000000000000000000000DF
:4061C00000000000000000000000000000000000000000000000000000000000303132333435363738394142434445460000000028000000000104000100000000000000CF
:4062000000014359555342000000303030303100000000000000000012034D0053004600540031003000300001000000010000003462000001000000706300000100000099
:4062400044620000010000002C630000030000007062000000000000000000000000000000000000000000006C620000020A000000008103080002000100820240000A00DC
:406280000100030240000A0002030000040309042C0343007900700072006500730073002000530065006D00690063006F006E0064007500630074006F0072001003550076
:4062C0005300420055004100520054003803430044004300200043006F006D006D0075006E00690063006100740069006F006E00200049006E007400650072006600610069
:4063000063006500260343004400430020004400610074006100200049006E007400650072006600610063006500000009024300020101C0320904000001020201030524D4
:4063400000100104240202052406000105240100010705810308000A09040100020A0000040705820240000A0705030240000A001201000202000008B40432F20100010291
:40638000800100004300232D302B2000686C4C006566674546470030313233343536373839414243444546003031323334353637383961626364656600000000F8B500BFBA
:4063C000F8BC08BC9E4670474D000000D1080000F8B500BFF8BC08BC9E46704729000000F06300000881FF1FF800000000020000000000002C01000032000000C8000000A1
:40640000640000000084FF1F7F800000030000000000E02EC05D00001800000000366E017F000000C8C8C8C8C8C8C80003030301010101001414140064646400000A0A00EC
:406440000100000003070700C22D0A00D882FF1FA482FF1FB482FF1F3C81FF1F5081FF1F885100008C510000805100004481FF1F5481FF1F4C81FF1F00C201000000080024
:40648000FFFF0000000000000000000000000000000000000000000000000000000000000000000084630000000000000000000000000000000000000000000000000000F7
:4064C0000000000000000000000000000000000000000000000000000000000000000000000000009C81FF1F00000000000000000000000000000000000000000000000061
:40650000000000000000000000000000000000000000000000000000000000000000000000000000000000000000000000000000000000000000000000000000000000005B
:40654000000000000000000000000000000000000000000000000000000000000000000000000000000000000000000000000000000000000000000000000000000000001B
:4065800000000000000000000000000000000000000000000000000000000000000000000000000000000000000000000000000000000000000000000000000000000000DB
:4065C000000000000000000000000000000000000000000000000000000000000000000000000000000000000000000000000000000000000000000000000000000000009B
:020000040003F7
:0200000480007A
:400000000145004007520040025A004009640040016500405800014032010140470201403B0301404D0401403F050140490601403807014006090140060B0140440C014042
:40004000300D0140330E0140250F014044140140241501404C160140311701400318014004190140031B01400E4001400C410140074201400843014006440140044501406B
:400080000C460140124701400948014004490140044C0140074D014009500140035101407E022020287F2E7F3108344064C07C600B20970103FF07FF0EFF13FF17FF23FFBB
:4000C00027FF867F8F1F877F0302040109021401150219021A021D021E0120012301240128012B0230013202330235013E013F044020410649FF4AFF4BFF4DA04F0450182F
:40010000580459045A0B5D095F01604062C06440654066C068C06AC06CC06EC08202860487028B018E019608AA04B002B204B301B401B608B702B980BE05BF44C020C10612
:40014000C502C610C702C819C9FFCAFFCBFFCDAFCE0FCF04D018D280D80BD90BDA0BDB0BDC99DD99DF01E040E2C0E440E540E6C0E8C0EAC0ECC0EEC00008044407400A1606
:400180000E2010901208172019011A101B081C441D201E201F9020082114272229012B0830903218370239203A023F284004452048084C084F085408571077407A807E80D7
:4001C00088208A028F80C0B4C227C44ECA05CC8ECE65D024D224DE81E248E60202020308050107020C100E2013011420161018011A021B04270228042A093004320833083B
:4002000034303503360337043E553F105804590B5C905F01840E861089038D028E0E8F019301950197029903A609A702A903AE05B004B103B201B418B602BE55BF01C042C7
:40024000C105C506C720C821D804D90BDA04DC90DF01E10CE2F0E30CE50CE70CE840E94CEA40EB4CEC90ED58EF0C000803020501060107020E200F0810221720185419844D
:400280001D011E211F2420802620272229042A012B082F20312032493620370239603B083E013F0840444820498050027A807E808140821089408A01912892109320962668
:4002C0009820A004A30CA480A688C095C260C445CA47CCAFCECED005D208DE81E620EE06040A0604070108180E01140C16021802200E240E28062A18301032013301340E97
:4003000039803E113F404034420649FF4AFF4BFF4F0150185608580459045A085B0D5D095F016040624064406540668068806A806C806E8087019A01A701AE02B201B30141
:40034000B402BE14BF04C034C206C9FFCAFFCBFFCD83CE03CF01D018D280D804D90BDA08DB0ADC90DD99DF01E040E240E440E540E680E880EA80EC80EE80009808200A1030
:400380000E0810901208174018401A241B021D081E08224827202F1030103210372039083F08410842804508468049204D20588062407740782079407C087D407E807F0192
:4003C000901091289210932096A498A0A0C4A304A540A688A702AC80AD20B480C007C246C48ECA40CC20CE42D0C3D224D608D808DEDCE208EA08EE01020123012E0130016F
:40040000360137013E414034420245EC4602480749FF4AFF4BFF4D834E034F0150185403580859085A085B085C995D995F016040624064406540668068806A806C806E8055
:4004400080018708890B8B048E019B02A70BB201B308B506B701BE04BF54C032C101C506C702C811D608D804D904DA04DB04DD90DF01E10CE2F0E30CE50CE70CE840E94C04
:40048000EA40EB4CEC90ED58EF0C004002400680174019041E801F802015254029042F80302038083920401544044508468048204D044F0150045680588059405D245E8054
:4004C0005F016280640665287F01854086109040912097029A409B409C089D209E80A108A540A680C019C480CA82CC04CE06D0EED6F8D878DE10E204EA028A409D04A640EC
:40050000B240E204EA029D04A640AA40AD04E208EA101E012A0134013E104003410649FF4AFF4BFF4C024D0C4EF858045A045F01624863A168F06AF06CF06EF0850186048E
:400540008702880189028A028C028E0192019403950297019A109B04A004A208A608AA02AD03B00CB304B403B503B610BE11BF10C003C106C50AC9FFCAFFCBFFCC03CD0C99
:40058000CEF4D217D804D904DA04DB04DF01E248E3A1E8F0EAF0ECF0EEF00020018003200A440B100E0110A8172019801A851F102020212C298031203204391840204420BC
:4005C000470848204B104F10680869106A406B2070808B109208931096409B089D84A320A508A640AF08C007C28EC44ECA08CC06CE06D042D224E220EE04040405010C0145
:400600001101120114011A061F0228012E082F04300431013202330434083502360139023E413F014026455046204704481A49FF4AFF4BFF4C024D204F0551105804590426
:400640005A045F01604061406280648066808601B201BE04D602D710D804DB04DE08DF010188050409080A441202131019481A841B201F082206231829403101324038085A
:40068000411049014B10500451105E8075027E0486408902C025C20EC403CA08CC09CE02D004D204D610DE20E288020109040A020E040F0413011E0428042F023004310142
:4006C000320133023402360437043E513F41404249FF4AFF4BFF4DA04F0150185280580459045A045B045C995D995F016040628064406540668068406A506BA86C406D20E4
:400700006E506FA8C056C9FFCAFFCBFFCDAFCE07CF01D018DA04DD09DF01E040E280E440E540E680E840EA50EBA8EC40ED20EE50EFA80010024003020A021208185619800E
:400740001A0822492B02310238903A4040444D804E047102908094469688A302AE04B002B302B402B504C00BC201C402CA08CC01CE0CD005D230E802EC802B0131013F0167
:40078000405649FF4AFF4BFF4DAF4E074F0150185608580859045A045B045C995D995F016040628064406540668068406A506BA86C406D206E506FA884048A048D01A6021C
:4007C000A801AB02B004B202B301B401B502BE15BF04C042C502C6C5C70EC81DC9FFCAFFCBFFCDAFCE07CF01D018D41FD804D904DA04DB04DC90DD99DF01E040E280E44042
:40080000E540E680E840EA50EBA8EC40ED20EE50EFA8000803081030120819021A041B082008220827402B082F0837403A40404448204C014E045040510852105814590EA4
:400840005A805C805E20600261086210640867027F01970298809A409C0E9D08A210C006C406CA24CC10CE08D005D230D63FD83EDE10E8103F4059045F012640A640B504CD
:40088000E810B240E802EA2030083320340837803A283F405D0286288D02CCF0CE70D680E210E64033103580800888089C089F80A408AB20AF40CC30E620EE6085809D804C
:4008C0009F90A310AB10E210EE80831084089F10A310AF80E220E410EA4029102B0459108710CA08D40111029710AB04C4080720324034123B403F4085209710B501C00448
:40090000CC0DCE0CEA0809200B100F8034123A808340881296809710A520AF20B012B340C20ECC05CE08E004E8042104274028089C089F40A310B740C8C0CA107B10A3100C
:40094000B104DE4098029E80B640E80856805C0266809802AE80D402D60100010101080109010A010B010E0111011B0100FF012A100A0000C0C00000000000002000002009
:4009800000000000C0000000007F7F00000000002020000020000A0000007F00000000004949000008001000000000000000000000000000000000000000000000000000E6
:4009C00000000000000000000000000000000000000000000000000000000000000000000000000000000000000000000000000000000000000000000000000000000000F7
:400A000000000000000000000000000000000000000000000000000000000000000000000000000000000000000000000000000000000000000000000000000000000000B6
:400A40000000000000000000000000000000000000000000000000000000000000000000000000000000000000000000000000000000000000000000000000000000000076
:400A80000000000000000000000000000000000000000000000000000000000000000000000000000000000000000000000000000000000000000000000000000000000036
:0200000490006A
:0400000000004005B7
:0200000490105A
:04000000BC90ACAF55
:0200000490303A
:02000000902846
:0200000490402A
:4000000000000000000000000000000000000000000000000000000000000000000000000000000000000000000000000000000000000000000000000000000000000000C0
:400040000000000000000000000000000000000000000000000000000000000000000000000000000000000000000000000000000000000000000000000000000000000080
:400080000000000000000000000000000000000000000000000000000000000000000000000000000000000000000000000000000000000000000000000000000000000040
:4000C0000000000000000000000000000000000000000000000000000000000000000000000000000000000000000000000000000000000000000000000000000000000000
:0200000490501A
:0C00000000012E12306900012E35C09165
:00000001FF